{
  "_format": "hh-sol-artifact-1",
  "contractName": "GovernanceDAO",
  "sourceName": "contracts/governance-dao-smart-contract.sol",
  "abi": [
    {
      "inputs": [
        {
          "internalType": "address",
          "name": "owner",
          "type": "address"
        }
      ],
      "name": "OwnableInvalidOwner",
      "type": "error"
    },
    {
      "inputs": [
        {
          "internalType": "address",
          "name": "account",
          "type": "address"
        }
      ],
      "name": "OwnableUnauthorizedAccount",
      "type": "error"
    },
    {
      "inputs": [],
      "name": "ReentrancyGuardReentrantCall",
      "type": "error"
    },
    {
      "anonymous": false,
      "inputs": [
        {
          "indexed": false,
          "internalType": "address",
          "name": "admin",
          "type": "address"
        },
        {
          "indexed": false,
          "internalType": "bool",
          "name": "isAdmin",
          "type": "bool"
        }
      ],
      "name": "AdminUpdated",
      "type": "event"
    },
    {
      "anonymous": false,
      "inputs": [
        {
          "indexed": false,
          "internalType": "string",
          "name": "contractType",
          "type": "string"
        },
        {
          "indexed": false,
          "internalType": "address",
          "name": "oldAddress",
          "type": "address"
        },
        {
          "indexed": false,
          "internalType": "address",
          "name": "newAddress",
          "type": "address"
        }
      ],
      "name": "ContractUpdated",
      "type": "event"
    },
    {
      "anonymous": false,
      "inputs": [
        {
          "indexed": false,
          "internalType": "bool",
          "name": "paused",
          "type": "bool"
        }
      ],
      "name": "DAOStatusUpdated",
      "type": "event"
    },
    {
      "anonymous": false,
      "inputs": [
        {
          "indexed": false,
          "internalType": "uint256",
          "name": "oldMaxPercentage",
          "type": "uint256"
        },
        {
          "indexed": false,
          "internalType": "uint256",
          "name": "newMaxPercentage",
          "type": "uint256"
        }
      ],
      "name": "MaxPercentageUpdated",
      "type": "event"
    },
    {
      "anonymous": false,
      "inputs": [
        {
          "indexed": false,
          "internalType": "uint256",
          "name": "oldLimit",
          "type": "uint256"
        },
        {
          "indexed": false,
          "internalType": "uint256",
          "name": "newLimit",
          "type": "uint256"
        }
      ],
      "name": "MaxProposalsPerSessionUpdated",
      "type": "event"
    },
    {
      "anonymous": false,
      "inputs": [
        {
          "indexed": false,
          "internalType": "enum GovernanceDAO.Tier",
          "name": "oldProposalTier",
          "type": "uint8"
        },
        {
          "indexed": false,
          "internalType": "enum GovernanceDAO.Tier",
          "name": "newProposalTier",
          "type": "uint8"
        }
      ],
      "name": "NoRulesProposalTierUpdated",
      "type": "event"
    },
    {
      "anonymous": false,
      "inputs": [
        {
          "indexed": false,
          "internalType": "enum GovernanceDAO.Tier",
          "name": "oldVoteTier",
          "type": "uint8"
        },
        {
          "indexed": false,
          "internalType": "enum GovernanceDAO.Tier",
          "name": "newVoteTier",
          "type": "uint8"
        }
      ],
      "name": "NoRulesVoteTierUpdated",
      "type": "event"
    },
    {
      "anonymous": false,
      "inputs": [
        {
          "indexed": true,
          "internalType": "address",
          "name": "previousOwner",
          "type": "address"
        },
        {
          "indexed": true,
          "internalType": "address",
          "name": "newOwner",
          "type": "address"
        }
      ],
      "name": "OwnershipTransferred",
      "type": "event"
    },
    {
      "anonymous": false,
      "inputs": [
        {
          "indexed": false,
          "internalType": "uint256",
          "name": "proposalId",
          "type": "uint256"
        },
        {
          "indexed": false,
          "internalType": "uint256",
          "name": "referenceId",
          "type": "uint256"
        }
      ],
      "name": "ProposalCancelled",
      "type": "event"
    },
    {
      "anonymous": false,
      "inputs": [
        {
          "indexed": false,
          "internalType": "address",
          "name": "creator",
          "type": "address"
        },
        {
          "indexed": false,
          "internalType": "uint256",
          "name": "proposalId",
          "type": "uint256"
        },
        {
          "indexed": false,
          "internalType": "uint256",
          "name": "sessionId",
          "type": "uint256"
        },
        {
          "indexed": false,
          "internalType": "uint256",
          "name": "referenceId",
          "type": "uint256"
        },
        {
          "indexed": false,
          "internalType": "string",
          "name": "title",
          "type": "string"
        },
        {
          "indexed": false,
          "internalType": "string",
          "name": "description",
          "type": "string"
        },
        {
          "indexed": false,
          "internalType": "string",
          "name": "status",
          "type": "string"
        },
        {
          "indexed": false,
          "internalType": "uint256",
          "name": "startTime",
          "type": "uint256"
        },
        {
          "indexed": false,
          "internalType": "uint256",
          "name": "endTime",
          "type": "uint256"
        },
        {
          "indexed": false,
          "internalType": "string[]",
          "name": "choices",
          "type": "string[]"
        }
      ],
      "name": "ProposalCreated",
      "type": "event"
    },
    {
      "anonymous": false,
      "inputs": [
        {
          "indexed": false,
          "internalType": "uint256",
          "name": "proposalId",
          "type": "uint256"
        },
        {
          "indexed": false,
          "internalType": "enum GovernanceDAO.Status",
          "name": "newStatus",
          "type": "uint8"
        }
      ],
      "name": "ProposalStatusUpdated",
      "type": "event"
    },
    {
      "anonymous": false,
      "inputs": [
        {
          "indexed": false,
          "internalType": "address",
          "name": "creator",
          "type": "address"
        },
        {
          "indexed": false,
          "internalType": "uint256",
          "name": "proposalId",
          "type": "uint256"
        },
        {
          "indexed": false,
          "internalType": "uint256",
          "name": "sessionId",
          "type": "uint256"
        },
        {
          "indexed": false,
          "internalType": "string",
          "name": "title",
          "type": "string"
        },
        {
          "indexed": false,
          "internalType": "string",
          "name": "description",
          "type": "string"
        },
        {
          "indexed": false,
          "internalType": "string",
          "name": "status",
          "type": "string"
        },
        {
          "indexed": false,
          "internalType": "string[]",
          "name": "choices",
          "type": "string[]"
        }
      ],
      "name": "ProposalSubmitted",
      "type": "event"
    },
    {
      "anonymous": false,
      "inputs": [
        {
          "indexed": false,
          "internalType": "bool",
          "name": "newValue",
          "type": "bool"
        },
        {
          "indexed": false,
          "internalType": "address",
          "name": "updatedBy",
          "type": "address"
        }
      ],
      "name": "RulesProposalConfigUpdated",
      "type": "event"
    },
    {
      "anonymous": false,
      "inputs": [
        {
          "indexed": false,
          "internalType": "bool",
          "name": "newValue",
          "type": "bool"
        },
        {
          "indexed": false,
          "internalType": "address",
          "name": "updatedBy",
          "type": "address"
        }
      ],
      "name": "RulesVoteConfigUpdated",
      "type": "event"
    },
    {
      "anonymous": false,
      "inputs": [
        {
          "indexed": false,
          "internalType": "uint256",
          "name": "sessionId",
          "type": "uint256"
        },
        {
          "indexed": false,
          "internalType": "uint256",
          "name": "proposalId",
          "type": "uint256"
        },
        {
          "indexed": false,
          "internalType": "uint256",
          "name": "referenceId",
          "type": "uint256"
        },
        {
          "indexed": false,
          "internalType": "string",
          "name": "otherStatus",
          "type": "string"
        }
      ],
      "name": "SessionClosed",
      "type": "event"
    },
    {
      "anonymous": false,
      "inputs": [
        {
          "indexed": false,
          "internalType": "uint256",
          "name": "sessionId",
          "type": "uint256"
        },
        {
          "indexed": false,
          "internalType": "uint256",
          "name": "sessionTime",
          "type": "uint256"
        }
      ],
      "name": "SessionCreated",
      "type": "event"
    },
    {
      "anonymous": false,
      "inputs": [
        {
          "indexed": false,
          "internalType": "uint256",
          "name": "oldVIPThreshold",
          "type": "uint256"
        },
        {
          "indexed": false,
          "internalType": "uint256",
          "name": "newVIPThreshold",
          "type": "uint256"
        },
        {
          "indexed": false,
          "internalType": "uint256",
          "name": "oldGoldThreshold",
          "type": "uint256"
        },
        {
          "indexed": false,
          "internalType": "uint256",
          "name": "newGoldThreshold",
          "type": "uint256"
        },
        {
          "indexed": false,
          "internalType": "uint256",
          "name": "oldSilverThreshold",
          "type": "uint256"
        },
        {
          "indexed": false,
          "internalType": "uint256",
          "name": "newSilverThreshold",
          "type": "uint256"
        },
        {
          "indexed": false,
          "internalType": "uint256",
          "name": "oldBronzeThreshold",
          "type": "uint256"
        },
        {
          "indexed": false,
          "internalType": "uint256",
          "name": "newBronzeThreshold",
          "type": "uint256"
        }
      ],
      "name": "TierThresholdsUpdated",
      "type": "event"
    },
    {
      "anonymous": false,
      "inputs": [
        {
          "indexed": false,
          "internalType": "uint256",
          "name": "proposalId",
          "type": "uint256"
        },
        {
          "indexed": false,
          "internalType": "address",
          "name": "voter",
          "type": "address"
        },
        {
          "indexed": false,
          "internalType": "uint256",
          "name": "choiceIndex",
          "type": "uint256"
        },
        {
          "indexed": false,
          "internalType": "uint256",
          "name": "weight",
          "type": "uint256"
        },
        {
          "indexed": false,
          "internalType": "enum GovernanceDAO.VoteMethod",
          "name": "method",
          "type": "uint8"
        }
      ],
      "name": "Voted",
      "type": "event"
    },
    {
      "inputs": [],
      "name": "MAX_CAPPED_PERCENTAGE",
      "outputs": [
        {
          "internalType": "uint256",
          "name": "",
          "type": "uint256"
        }
      ],
      "stateMutability": "view",
      "type": "function"
    },
    {
      "inputs": [],
      "name": "MAX_PROPOSALS_PER_SESSION",
      "outputs": [
        {
          "internalType": "uint256",
          "name": "",
          "type": "uint256"
        }
      ],
      "stateMutability": "view",
      "type": "function"
    },
    {
      "inputs": [],
      "name": "MIN_BRONZE_THRESHOLD",
      "outputs": [
        {
          "internalType": "uint256",
          "name": "",
          "type": "uint256"
        }
      ],
      "stateMutability": "view",
      "type": "function"
    },
    {
      "inputs": [],
      "name": "MIN_GOLD_THRESHOLD",
      "outputs": [
        {
          "internalType": "uint256",
          "name": "",
          "type": "uint256"
        }
      ],
      "stateMutability": "view",
      "type": "function"
    },
    {
      "inputs": [],
      "name": "MIN_SILVER_THRESHOLD",
      "outputs": [
        {
          "internalType": "uint256",
          "name": "",
          "type": "uint256"
        }
      ],
      "stateMutability": "view",
      "type": "function"
    },
    {
      "inputs": [],
      "name": "MIN_VIP_THRESHOLD",
      "outputs": [
        {
          "internalType": "uint256",
          "name": "",
          "type": "uint256"
        }
      ],
      "stateMutability": "view",
      "type": "function"
    },
    {
      "inputs": [],
      "name": "PERCENTAGE_BASE",
      "outputs": [
        {
          "internalType": "uint256",
          "name": "",
          "type": "uint256"
        }
      ],
      "stateMutability": "view",
      "type": "function"
    },
    {
      "inputs": [],
      "name": "VOTING_DURATION",
      "outputs": [
        {
          "internalType": "uint256",
          "name": "",
          "type": "uint256"
        }
      ],
      "stateMutability": "view",
      "type": "function"
    },
    {
      "inputs": [],
      "name": "activeProposalId",
      "outputs": [
        {
          "internalType": "uint256",
          "name": "",
          "type": "uint256"
        }
      ],
      "stateMutability": "view",
      "type": "function"
    },
    {
      "inputs": [
        {
          "internalType": "address",
          "name": "_admin",
          "type": "address"
        },
        {
          "internalType": "bool",
          "name": "_isAdminStatus",
          "type": "bool"
        }
      ],
      "name": "addOrRemoveAdmin",
      "outputs": [],
      "stateMutability": "nonpayable",
      "type": "function"
    },
    {
      "inputs": [
        {
          "internalType": "address",
          "name": "account",
          "type": "address"
        }
      ],
      "name": "calculateVotePercentage",
      "outputs": [
        {
          "internalType": "uint256",
          "name": "",
          "type": "uint256"
        }
      ],
      "stateMutability": "view",
      "type": "function"
    },
    {
      "inputs": [
        {
          "internalType": "uint256",
          "name": "_proposalId",
          "type": "uint256"
        }
      ],
      "name": "cancelProposal",
      "outputs": [],
      "stateMutability": "nonpayable",
      "type": "function"
    },
    {
      "inputs": [
        {
          "internalType": "address",
          "name": "account",
          "type": "address"
        }
      ],
      "name": "cappedPercentage",
      "outputs": [
        {
          "internalType": "uint256",
          "name": "",
          "type": "uint256"
        }
      ],
      "stateMutability": "view",
      "type": "function"
    },
    {
      "inputs": [
        {
          "internalType": "address",
          "name": "_user",
          "type": "address"
        },
        {
          "internalType": "bool",
          "name": "_isForProposal",
          "type": "bool"
        }
      ],
      "name": "checkEligibility",
      "outputs": [
        {
          "internalType": "bool",
          "name": "",
          "type": "bool"
        }
      ],
      "stateMutability": "view",
      "type": "function"
    },
    {
      "inputs": [],
      "name": "createSession",
      "outputs": [
        {
          "internalType": "uint256",
          "name": "",
          "type": "uint256"
        }
      ],
      "stateMutability": "nonpayable",
      "type": "function"
    },
    {
      "inputs": [],
      "name": "daoPaused",
      "outputs": [
        {
          "internalType": "bool",
          "name": "",
          "type": "bool"
        }
      ],
      "stateMutability": "view",
      "type": "function"
    },
    {
      "inputs": [
        {
          "internalType": "uint256",
          "name": "",
          "type": "uint256"
        },
        {
          "internalType": "uint256",
          "name": "",
          "type": "uint256"
        }
      ],
      "name": "finalizedVotes",
      "outputs": [
        {
          "internalType": "uint256",
          "name": "",
          "type": "uint256"
        }
      ],
      "stateMutability": "view",
      "type": "function"
    },
    {
      "inputs": [],
      "name": "getActiveProposal",
      "outputs": [
        {
          "components": [
            {
              "internalType": "uint256",
              "name": "id",
              "type": "uint256"
            },
            {
              "internalType": "string",
              "name": "title",
              "type": "string"
            },
            {
              "internalType": "string",
              "name": "description",
              "type": "string"
            },
            {
              "internalType": "string[]",
              "name": "choices",
              "type": "string[]"
            },
            {
              "internalType": "address",
              "name": "creator",
              "type": "address"
            },
            {
              "internalType": "enum GovernanceDAO.Status",
              "name": "status",
              "type": "uint8"
            },
            {
              "internalType": "uint256",
              "name": "startTime",
              "type": "uint256"
            },
            {
              "internalType": "uint256",
              "name": "endTime",
              "type": "uint256"
            },
            {
              "internalType": "uint256",
              "name": "sessionId",
              "type": "uint256"
            },
            {
              "internalType": "uint256",
              "name": "referenceId",
              "type": "uint256"
            }
          ],
          "internalType": "struct GovernanceDAO.Proposal",
          "name": "",
          "type": "tuple"
        }
      ],
      "stateMutability": "view",
      "type": "function"
    },
    {
      "inputs": [
        {
          "internalType": "uint256",
          "name": "_proposalId",
          "type": "uint256"
        }
      ],
      "name": "getFinalizedVotes",
      "outputs": [
        {
          "internalType": "uint256[]",
          "name": "",
          "type": "uint256[]"
        }
      ],
      "stateMutability": "view",
      "type": "function"
    },
    {
      "inputs": [
        {
          "internalType": "uint256",
          "name": "_proposalId",
          "type": "uint256"
        },
        {
          "internalType": "uint256",
          "name": "_choiceIndex",
          "type": "uint256"
        }
      ],
      "name": "getProposalVote",
      "outputs": [
        {
          "internalType": "uint256",
          "name": "",
          "type": "uint256"
        }
      ],
      "stateMutability": "view",
      "type": "function"
    },
    {
      "inputs": [
        {
          "internalType": "address",
          "name": "account",
          "type": "address"
        }
      ],
      "name": "getTier",
      "outputs": [
        {
          "internalType": "enum GovernanceDAO.Tier",
          "name": "tier",
          "type": "uint8"
        }
      ],
      "stateMutability": "view",
      "type": "function"
    },
    {
      "inputs": [],
      "name": "getTotalSupply",
      "outputs": [
        {
          "internalType": "uint256",
          "name": "",
          "type": "uint256"
        }
      ],
      "stateMutability": "view",
      "type": "function"
    },
    {
      "inputs": [
        {
          "internalType": "uint256",
          "name": "_proposalId",
          "type": "uint256"
        }
      ],
      "name": "getWinningChoice",
      "outputs": [
        {
          "internalType": "uint256",
          "name": "winningChoiceIndex",
          "type": "uint256"
        },
        {
          "internalType": "uint256",
          "name": "winningWeight",
          "type": "uint256"
        }
      ],
      "stateMutability": "view",
      "type": "function"
    },
    {
      "inputs": [
        {
          "internalType": "uint256",
          "name": "",
          "type": "uint256"
        },
        {
          "internalType": "address",
          "name": "",
          "type": "address"
        }
      ],
      "name": "hasCreatedProposalInSession",
      "outputs": [
        {
          "internalType": "bool",
          "name": "",
          "type": "bool"
        }
      ],
      "stateMutability": "view",
      "type": "function"
    },
    {
      "inputs": [
        {
          "internalType": "address",
          "name": "",
          "type": "address"
        }
      ],
      "name": "isAdmin",
      "outputs": [
        {
          "internalType": "bool",
          "name": "",
          "type": "bool"
        }
      ],
      "stateMutability": "view",
      "type": "function"
    },
    {
      "inputs": [
        {
          "internalType": "address",
          "name": "_user",
          "type": "address"
        },
        {
          "internalType": "enum GovernanceDAO.Tier",
          "name": "requiredTier",
          "type": "uint8"
        }
      ],
      "name": "noRulesPermission",
      "outputs": [
        {
          "internalType": "bool",
          "name": "",
          "type": "bool"
        }
      ],
      "stateMutability": "view",
      "type": "function"
    },
    {
      "inputs": [],
      "name": "owner",
      "outputs": [
        {
          "internalType": "address",
          "name": "",
          "type": "address"
        }
      ],
      "stateMutability": "view",
      "type": "function"
    },
    {
      "inputs": [
        {
          "internalType": "bool",
          "name": "_pause",
          "type": "bool"
        }
      ],
      "name": "pauseDAO",
      "outputs": [],
      "stateMutability": "nonpayable",
      "type": "function"
    },
    {
      "inputs": [],
      "name": "proposalCounter",
      "outputs": [
        {
          "internalType": "uint256",
          "name": "",
          "type": "uint256"
        }
      ],
      "stateMutability": "view",
      "type": "function"
    },
    {
      "inputs": [
        {
          "internalType": "uint256",
          "name": "",
          "type": "uint256"
        }
      ],
      "name": "proposalToSession",
      "outputs": [
        {
          "internalType": "uint256",
          "name": "",
          "type": "uint256"
        }
      ],
      "stateMutability": "view",
      "type": "function"
    },
    {
      "inputs": [
        {
          "internalType": "uint256",
          "name": "",
          "type": "uint256"
        },
        {
          "internalType": "address",
          "name": "",
          "type": "address"
        }
      ],
      "name": "proposalVoteDetails",
      "outputs": [
        {
          "internalType": "uint256",
          "name": "proposalId",
          "type": "uint256"
        },
        {
          "internalType": "uint256",
          "name": "choiceIndex",
          "type": "uint256"
        },
        {
          "internalType": "address",
          "name": "voter",
          "type": "address"
        },
        {
          "internalType": "uint256",
          "name": "weight",
          "type": "uint256"
        },
        {
          "internalType": "enum GovernanceDAO.VoteMethod",
          "name": "method",
          "type": "uint8"
        }
      ],
      "stateMutability": "view",
      "type": "function"
    },
    {
      "inputs": [
        {
          "internalType": "uint256",
          "name": "",
          "type": "uint256"
        },
        {
          "internalType": "uint256",
          "name": "",
          "type": "uint256"
        }
      ],
      "name": "proposalVoters",
      "outputs": [
        {
          "internalType": "address",
          "name": "",
          "type": "address"
        }
      ],
      "stateMutability": "view",
      "type": "function"
    },
    {
      "inputs": [
        {
          "internalType": "uint256",
          "name": "",
          "type": "uint256"
        }
      ],
      "name": "proposals",
      "outputs": [
        {
          "internalType": "uint256",
          "name": "id",
          "type": "uint256"
        },
        {
          "internalType": "string",
          "name": "title",
          "type": "string"
        },
        {
          "internalType": "string",
          "name": "description",
          "type": "string"
        },
        {
          "internalType": "address",
          "name": "creator",
          "type": "address"
        },
        {
          "internalType": "enum GovernanceDAO.Status",
          "name": "status",
          "type": "uint8"
        },
        {
          "internalType": "uint256",
          "name": "startTime",
          "type": "uint256"
        },
        {
          "internalType": "uint256",
          "name": "endTime",
          "type": "uint256"
        },
        {
          "internalType": "uint256",
          "name": "sessionId",
          "type": "uint256"
        },
        {
          "internalType": "uint256",
          "name": "referenceId",
          "type": "uint256"
        }
      ],
      "stateMutability": "view",
      "type": "function"
    },
    {
      "inputs": [],
      "name": "renounceOwnership",
      "outputs": [],
      "stateMutability": "nonpayable",
      "type": "function"
    },
    {
      "inputs": [
        {
          "internalType": "uint256",
          "name": "_proposalId",
          "type": "uint256"
        },
        {
          "internalType": "string",
          "name": "_newTitle",
          "type": "string"
        },
        {
          "internalType": "string",
          "name": "_newDescription",
          "type": "string"
        },
        {
          "internalType": "string[]",
          "name": "_newChoices",
          "type": "string[]"
        }
      ],
      "name": "selectProposal",
      "outputs": [],
      "stateMutability": "nonpayable",
      "type": "function"
    },
    {
      "inputs": [],
      "name": "sessionCounter",
      "outputs": [
        {
          "internalType": "uint256",
          "name": "",
          "type": "uint256"
        }
      ],
      "stateMutability": "view",
      "type": "function"
    },
    {
      "inputs": [
        {
          "internalType": "uint256",
          "name": "",
          "type": "uint256"
        }
      ],
      "name": "sessionSubmittedCounts",
      "outputs": [
        {
          "internalType": "uint256",
          "name": "",
          "type": "uint256"
        }
      ],
      "stateMutability": "view",
      "type": "function"
    },
    {
      "inputs": [
        {
          "internalType": "uint256",
          "name": "",
          "type": "uint256"
        },
        {
          "internalType": "uint256",
          "name": "",
          "type": "uint256"
        }
      ],
      "name": "sessionSubmittedProposals",
      "outputs": [
        {
          "internalType": "uint256",
          "name": "",
          "type": "uint256"
        }
      ],
      "stateMutability": "view",
      "type": "function"
    },
    {
      "inputs": [
        {
          "internalType": "uint256",
          "name": "",
          "type": "uint256"
        }
      ],
      "name": "sessions",
      "outputs": [
        {
          "internalType": "uint256",
          "name": "sessionId",
          "type": "uint256"
        },
        {
          "internalType": "uint256",
          "name": "selectedProposalId",
          "type": "uint256"
        },
        {
          "internalType": "uint256",
          "name": "sessionTime",
          "type": "uint256"
        }
      ],
      "stateMutability": "view",
      "type": "function"
    },
    {
      "inputs": [
        {
          "internalType": "uint256",
          "name": "_percent",
          "type": "uint256"
        }
      ],
      "name": "setMaxPercentage",
      "outputs": [],
      "stateMutability": "nonpayable",
      "type": "function"
    },
    {
      "inputs": [
        {
          "internalType": "enum GovernanceDAO.VoteMethod",
          "name": "_method",
          "type": "uint8"
        }
      ],
      "name": "setVoteMethod",
      "outputs": [],
      "stateMutability": "nonpayable",
      "type": "function"
    },
    {
      "inputs": [
        {
          "internalType": "string",
          "name": "_title",
          "type": "string"
        },
        {
          "internalType": "string",
          "name": "_description",
          "type": "string"
        },
        {
          "internalType": "string[]",
          "name": "_choices",
          "type": "string[]"
        }
      ],
      "name": "submitProposal",
      "outputs": [],
      "stateMutability": "nonpayable",
      "type": "function"
    },
    {
      "inputs": [],
      "name": "tokenLock",
      "outputs": [
        {
          "internalType": "contract IERC20",
          "name": "",
          "type": "address"
        }
      ],
      "stateMutability": "view",
      "type": "function"
    },
    {
      "inputs": [
        {
          "internalType": "address",
          "name": "newOwner",
          "type": "address"
        }
      ],
      "name": "transferOwnership",
      "outputs": [],
      "stateMutability": "nonpayable",
      "type": "function"
    },
    {
      "inputs": [
        {
          "internalType": "uint256",
          "name": "_newLimit",
          "type": "uint256"
        }
      ],
      "name": "updateMaxProposalsPerSession",
      "outputs": [],
      "stateMutability": "nonpayable",
      "type": "function"
    },
    {
      "inputs": [
        {
          "internalType": "enum GovernanceDAO.Tier",
          "name": "_newProposalTier",
          "type": "uint8"
        }
      ],
      "name": "updateNoRulesProposalTier",
      "outputs": [],
      "stateMutability": "nonpayable",
      "type": "function"
    },
    {
      "inputs": [
        {
          "internalType": "enum GovernanceDAO.Tier",
          "name": "_newVoteTier",
          "type": "uint8"
        }
      ],
      "name": "updateNoRulesVoteTier",
      "outputs": [],
      "stateMutability": "nonpayable",
      "type": "function"
    },
    {
      "inputs": [
        {
          "internalType": "uint256",
          "name": "_proposalId",
          "type": "uint256"
        },
        {
          "internalType": "enum GovernanceDAO.Status",
          "name": "_status",
          "type": "uint8"
        }
      ],
      "name": "updateProposalStatus",
      "outputs": [],
      "stateMutability": "nonpayable",
      "type": "function"
    },
    {
      "inputs": [
        {
          "internalType": "bool",
          "name": "_newValue",
          "type": "bool"
        }
      ],
      "name": "updateRulesProposalConfig",
      "outputs": [],
      "stateMutability": "nonpayable",
      "type": "function"
    },
    {
      "inputs": [
        {
          "internalType": "bool",
          "name": "_newValue",
          "type": "bool"
        }
      ],
      "name": "updateRulesVoteConfig",
      "outputs": [],
      "stateMutability": "nonpayable",
      "type": "function"
    },
    {
      "inputs": [
        {
          "internalType": "uint256",
          "name": "_vip",
          "type": "uint256"
        },
        {
          "internalType": "uint256",
          "name": "_gold",
          "type": "uint256"
        },
        {
          "internalType": "uint256",
          "name": "_silver",
          "type": "uint256"
        },
        {
          "internalType": "uint256",
          "name": "_bronze",
          "type": "uint256"
        }
      ],
      "name": "updateTierThresholds",
      "outputs": [],
      "stateMutability": "nonpayable",
      "type": "function"
    },
    {
      "inputs": [
        {
          "internalType": "address",
          "name": "_newTokenLock",
          "type": "address"
        }
      ],
      "name": "updateTokenLock",
      "outputs": [],
      "stateMutability": "nonpayable",
      "type": "function"
    },
    {
      "inputs": [
        {
          "internalType": "address",
          "name": "_newUsdcStake",
          "type": "address"
        }
      ],
      "name": "updateUsdcStake",
      "outputs": [],
      "stateMutability": "nonpayable",
      "type": "function"
    },
    {
      "inputs": [
        {
          "internalType": "address",
          "name": "_newUsdtStake",
          "type": "address"
        }
      ],
      "name": "updateUsdtStake",
      "outputs": [],
      "stateMutability": "nonpayable",
      "type": "function"
    },
    {
      "inputs": [
        {
          "internalType": "uint256",
          "name": "_days",
          "type": "uint256"
        }
      ],
      "name": "updateVotingDuration",
      "outputs": [],
      "stateMutability": "nonpayable",
      "type": "function"
    },
    {
      "inputs": [],
      "name": "usdcStake",
      "outputs": [
        {
          "internalType": "contract STABLESTAKE",
          "name": "",
          "type": "address"
        }
      ],
      "stateMutability": "view",
      "type": "function"
    },
    {
      "inputs": [],
      "name": "usdtStake",
      "outputs": [
        {
          "internalType": "contract STABLESTAKE",
          "name": "",
          "type": "address"
        }
      ],
      "stateMutability": "view",
      "type": "function"
    },
    {
      "inputs": [
        {
          "internalType": "uint256",
          "name": "_proposalId",
          "type": "uint256"
        },
        {
          "internalType": "uint256",
          "name": "_choiceIndex",
          "type": "uint256"
        }
      ],
      "name": "vote",
      "outputs": [],
      "stateMutability": "nonpayable",
      "type": "function"
    },
    {
      "inputs": [],
      "name": "voteMethod",
      "outputs": [
        {
          "internalType": "enum GovernanceDAO.VoteMethod",
          "name": "",
          "type": "uint8"
        }
      ],
      "stateMutability": "view",
      "type": "function"
    },
    {
      "inputs": [
        {
          "internalType": "address",
          "name": "_user",
          "type": "address"
        }
      ],
      "name": "withRulesProposal",
      "outputs": [
        {
          "internalType": "bool",
          "name": "",
          "type": "bool"
        }
      ],
      "stateMutability": "view",
      "type": "function"
    },
    {
      "inputs": [],
      "name": "withRulesProposalConfig",
      "outputs": [
        {
          "internalType": "bool",
          "name": "",
          "type": "bool"
        }
      ],
      "stateMutability": "view",
      "type": "function"
    },
    {
      "inputs": [
        {
          "internalType": "address",
          "name": "_user",
          "type": "address"
        }
      ],
      "name": "withRulesVote",
      "outputs": [
        {
          "internalType": "bool",
          "name": "",
          "type": "bool"
        }
      ],
      "stateMutability": "view",
      "type": "function"
    },
    {
      "inputs": [],
      "name": "withRulesVoteConfig",
      "outputs": [
        {
          "internalType": "bool",
          "name": "",
          "type": "bool"
        }
      ],
      "stateMutability": "view",
      "type": "function"
    }
  ],
  "bytecode": "0x6080806040523461014357331561012d57600080546001600160a01b031980821633908117845560405193738c4708eebbe7f0b768d7bb6e900f894f7e7d6255936001600160a01b0316907f8be0079c531659141344cd1fd0a4f28419497f9722a3daafe3b4186f6b6457e09080a3600180556a01a784379d99db4200000060025569d3c21bcecceda10000006003556969e10de76676d080000060045569152d02c7e14af680000060055573b63683c2d9563c25f65793164a282ef82c0a03f6816006541617600655736ea6da32ebcdc3db24c52aa2ba2c12bbe14992998160075416176007556008541617600855617530600b55600a600c55610258600d5560ff19600e5416600e5561030163ffffffff196010541617601055600160115561403a9081620001498239f35b631e4fbdf760e01b815260006004820152602490fd5b600080fdfe6080604052600436101561001257600080fd5b60003560e01c80620c063014613187578063013cf08b146130c657806302a18f4a146130155780630c0512e914612ff75780630fab929a14612ec357806311330e4a14612ea557806316d5a2b814612e7c5780631abfbf0a14612e565780631cbf1b0214612d0b57806324d7806c14612ccc578063250808de14612ca9578063264dc58c14612c7d5780632f96e06014612beb57806332e0a30d14612c4a578063350cee5214612c1e578063364bfade14612beb5780633c45e24c14612b305780633e5a1a9214612a8a578063447a027f146129bd578063487ddf6f146128f05780634912762d146126a857806353b7047e1461267c57806359c48196146125eb5780635cc0f4b3146125c25780636e416fa3146124f6578063715018a61461249d5780637cacd33f146123e05780637e2ee7a6146123c257806383c4b7a31461237f57806387c139431461236157806389fa2c03146122e05780638da5cb5b146122b757806392e0ba291461226a57806394ab5382146121a25780639bab8686146120b6578063a438d20814612098578063a81160c01461207a578063a8a90aa714611f87578063ab89437c14611f42578063acbebb7414611f1c578063ada0bf9714611efe578063b384abef14611b6e578063b45aae5214611b3e578063b6416e0614611b1b578063b66469ed14611af5578063c4e41b2214611ada578063c5333d5a14611ab4578063c92c63d814611a33578063cc64e2af14611a15578063cca11e54146119f7578063cd852359146119d9578063d20c1f941461199d578063d41750ad1461197f578063d7335d031461186c578063d95de400146117e7578063df4179271461171a578063dfb7a9c4146116ef578063e0a8f6f514611564578063e0d7125014610ce5578063e311c9d114610437578063e718234d1461040e578063f2fde38b146103855763fcb2460d146102d057600080fd5b346103805760203660031901126103805760043560058110156103805733600052600960205260ff60406000205416801561036c575b61030f906134dd565b61ff00601054917fc74212c6676f4fc998e97d6d9f73423f9fee4aae82c08488646c56a2ace4b9b76040805161034b8160ff8860081c166133b7565b61035860208201856133b7565ba160081b169061ff00191617601055600080f35b506000546001600160a01b03163314610306565b600080fd5b346103805760203660031901126103805761039e6131aa565b6103a66134b1565b6001600160a01b039081169081156103f557600054826001600160601b0360a01b821617600055167f8be0079c531659141344cd1fd0a4f28419497f9722a3daafe3b4186f6b6457e0600080a3005b604051631e4fbdf760e01b815260006004820152602490fd5b34610380576000366003190112610380576006546040516001600160a01b039091168152602090f35b34610380576080366003190112610380576024356001600160401b038111610380576104679036906004016133c4565b6044356001600160401b038111610380576104869036906004016133c4565b906064356001600160401b038111610380576104a6903690600401613431565b33600052600960205260ff604060002054168015610cd1575b6104c8906134dd565b600435610bcc575b6104e7815160028110159081610bc0575b50613c6d565b6011546104f5600a54613539565b9283600a5583600052601660205260406000209482600052601460205260406000205460005b818110610b1d57505084865581516001600160401b03811161092a5761054460018801546131d6565b601f8111610ae8575b50806020601f8211600114610a7b57600091610a70575b508160011b916000199060031b1c19161760018701555b80516001600160401b03811161092a5761059860028801546131d6565b601f8111610a30575b50806020601f82116001146109c3576000916109b8575b508160011b916000199060031b1c19161760028701555b8351600160401b811161092a576003870154816003890155808210610940575b506020850190600388016000526020600020916000905b82821061080a577fdb4cc2b2f7d0255e43b18d389f5e4df01b1fa4da0d0ad126a3bbe2c45792a9378960206107d88d8c8c6107be8d6107b08e600487018054600560a01b9060ff60a01b193316906affffffffffffffffffffff60a81b16171790556107a260058801934285556008610681600d5442613548565b99600681019a8b558860078201550160043581558c600f558c60028b54604051926106ab84613210565b8b84528f8401908152604084019182528b6000528f601290526040600020935184555160018401555191015560043515156000146107dd577fbb3e55342d8c12a65878d07717c6af52ce7bdab9b47adf5d6e1d644d2b0e85fb8d896107536004355b6040519061071a82613247565b60088252602067105c98da1a5d995960c21b90830152604051948594855260208501526040840152608060608401526080830190613329565b0390a1546040519561076487613247565b600787526610dc99585d195960ca1b8d880152549954976040519d8e9d8e338152015260408d015260608c01526101408060808d01528b0190613329565b9089820360a08b0152613329565b9087820360c0890152613329565b9260e0860152610100850152838203610120850152613cf7565b0390a1005b7fbb3e55342d8c12a65878d07717c6af52ce7bdab9b47adf5d6e1d644d2b0e85fb8d89610753600061070d565b80518051906001600160401b03821161092a5761082786546131d6565b601f81116108ed575b50602090601f831160011461087d579282600194936020938695600092610872575b5050600019600383901b1c191690841b1787555b01940191019092610606565b015190508f80610852565b908660005260206000209160005b601f19851681106108d5575083602093600196938796938794601f198116106108bc575b505050811b018755610866565b015160001960f88460031b161c191690558f80806108af565b9192602060018192868501518155019401920161088b565b61091a908760005260206000206005601f8601811c82019260208710610920575b601f01901c0190613cbc565b8c610830565b919250829161090e565b634e487b7160e01b600052604160045260246000fd5b600388016000526020600020908282015b81830181106109615750506105ef565b8061096e600192546131d6565b8061097b575b5001610951565b601f811183146109915750600081555b8b610974565b6000908282526109af601f60208420920160051c8201858301613cbc565b8183555561098b565b9050820151886105b8565b91506002880160005260206000206000925b601f1983168410610a18576001935082601f198116106109ff575b5050811b0160028701556105cf565b84015160001960f88460031b161c1916905588806109f0565b848101518255602093840193600190920191016109d5565b610a6090600289016000526020600020601f840160051c81019160208510610a66575b601f0160051c0190613cbc565b876105a1565b9091508190610a53565b905083015188610564565b91506001880160005260206000206000925b601f1983168410610ad0576001935082601f19811610610ab7575b5050811b01600187015561057b565b85015160001960f88460031b161c191690558880610aa8565b85810151825560209384019360019092019101610a8d565b610b1790600189016000526020600020601f840160051c81019160208510610a6657601f0160051c0190613cbc565b8761054d565b846000526013602052604060002081600052602052604060002054908782141580610b80575b91610b5392610b58575b50613539565b61051b565b6000908152601660205260409020600401805460ff60a01b1916600760a01b17905589610b4d565b5081600052601660205260ff60046040600020015460a01c16916008831015610baa579115610b43565b634e487b7160e01b600052602160045260246000fd5b600491501115856104e1565b60048035600090815260166020526040902001546001600160a01b031615610c9457600435600052601660205260ff60046040600020015460a01c166008811015610baa57610c3e5760048035600090815260166020526040902001805460ff60a01b1916600160a01b1790556104d0565b60405162461bcd60e51b815260206004820152602860248201527f4f6e6c79207375626d69747465642070726f706f73616c732063616e206265206044820152671cd95b1958dd195960c21b6064820152608490fd5b60405162461bcd60e51b8152602060048201526015602482015274141c9bdc1bdcd85b081a5cc81b9bdd08195e1a5cdd605a1b6044820152606490fd5b506000546001600160a01b031633146104bf565b34610380576060366003190112610380576004356001600160401b03811161038057610d159036906004016133c4565b6024356001600160401b03811161038057610d349036906004016133c4565b6044356001600160401b03811161038057610d53903690600401613431565b90610d6660ff600e5460081c1615613bd3565b60105460ff8160181c1660001461154c5750610d89610d8433613711565b613c0f565b610d9f825160028110159081610bc05750613c6d565b601154918260005260126020526002604060002001548015159081611542575b506114f4575b826000526001604060002001546114a357826000526014602052604060002054600c5411156114545782600052601a60205260406000203360005260205260ff604060002054166113f357610e1b600a54613539565b9081600a5560405191610e2d8361322b565b808352856020840152836040840152816060840152336080840152600060a0840152600060c0840152600060e084015284610100840152600061012084015260005260166020526040600020918051835560208101518051906001600160401b03821161092a578190610ea360018701546131d6565b601f81116113be575b50602090601f831160011461134c57600092611341575b50508160011b916000199060031b1c19161760018401555b60408101518051906001600160401b03821161092a578190610f0060028701546131d6565b601f811161130c575b50602090601f831160011461129a5760009261128f575b50508160011b916000199060031b1c19161760028401555b6060810151805190600160401b821161092a576003850154826003870155808310611217575b5060200190600385016000526020600020916000905b8282106111025750505050600483019560018060a01b036080830151166001600160601b0360a01b88541617875560a0820151936008851015610baa5760086101206110f494610fe86107d8987f9a480728349091c3e14cb7702cd8719a6335465d64a581ea4950fcf1ad1a48ee9c613cd3565b60c0810151600585015560e0810151600685015561010081015160078501550151910155856000526014602052604060002054600a54906013602052604060002090600052602052604060002055856000526014602052604060002061104e8154613539565b9055600a5460005260156020528560406000205585600052601a6020526040600020336000526020526040600020600160ff198254161790556110e6600a54956110d86040519361109e85613247565b600985526814dd589b5a5d1d195960ba1b6020860152604051998a99338b5260208b015260408a015260e060608a015260e0890190613329565b908782036080890152613329565b9085820360a0870152613329565b9083820360c0850152613cf7565b80518051906001600160401b03821161092a5761111f86546131d6565b601f81116111e5575b50602090601f831160011461117557928260019493602093869560009261116a575b5050600019600383901b1c191690841b1787555b01940191019092610f74565b015190508f8061114a565b908660005260206000209160005b601f19851681106111cd575083602093600196938796938794601f198116106111b4575b505050811b01875561115e565b015160001960f88460031b161c191690558f80806111a7565b91926020600181928685015181550194019201611183565b611211908760005260206000206005601f8601811c8201926020871061092057601f01901c0190613cbc565b8c611128565b600386016000526020600020908382015b8183018110611238575050610f5e565b80611245600192546131d6565b80611252575b5001611228565b601f811183146112685750600081555b8c61124b565b600090828252611286601f60208420920160051c8201858301613cbc565b81835555611262565b015190508880610f20565b9250600286016000526020600020906000935b601f19841685106112f1576001945083601f198116106112d8575b505050811b016002840155610f38565b015160001960f88460031b161c191690558880806112c8565b818101518355602094850194600190930192909101906112ad565b61133b90600288016000526020600020601f850160051c81019160208610610a6657601f0160051c0190613cbc565b89610f09565b015190508880610ec3565b9250600186016000526020600020906000935b601f19841685106113a3576001945083601f1981161061138a575b505050811b016001840155610edb565b015160001960f88460031b161c1916905588808061137a565b8181015183556020948501946001909301929091019061135f565b6113ed90600188016000526020600020601f850160051c81019160208610610a6657601f0160051c0190613cbc565b89610eac565b60405162461bcd60e51b815260206004820152603360248201527f596f75206861766520616c7265616479206372656174656420612070726f706f60448201527239b0b61034b7103a3434b99039b2b9b9b4b7b760691b6064820152608490fd5b60405162461bcd60e51b815260206004820152602160248201527f53657373696f6e206861732072656163686564206d61782070726f706f73616c6044820152607360f81b6064820152608490fd5b60405162461bcd60e51b815260206004820152602360248201527f546865726520697320616c726561647920616e206163746976652070726f706f6044820152621cd85b60ea1b6064820152608490fd5b916114fe90613539565b918260115582611510600d5442613548565b906000526012602052600260406000200155601460205260006040812055601260205260006001604082200155610dc5565b9050421185610dbf565b610d8460ff61155f9260081c163361380f565b610d89565b34610380576020806003193601126103805760043590336000526009815260ff6040600020541680156116db575b61159b906134dd565b81600052601681526040600020600481019060ff825460a01c166008811015610baa5760050361169d57917f5be67b1762c29673dceae3c1de04ecbf702ab0755c93f0fcc8aec5252df5a2b493918360086040950191825480611677575b5084600f541461166d575b805460ff60a01b1916600360a11b179055426006919091015560115461162990613539565b80601155611639600d5442613548565b90600052601283526002856000200155601482526000848120556012825260006001858220015554908351928352820152a1005b6000600f55611604565b600090815260168552869020600401805460ff60a01b1916600360a01b179055876115f9565b60405162461bcd60e51b815260048101849052601660248201527550726f706f73616c206973206e6f742061637469766560501b6044820152606490fd5b506000546001600160a01b03163314611592565b3461038057602036600319011261038057602061171261170d6131aa565b613bb5565b604051908152f35b34610380576020366003190112610380577f508230d9e989b49c651e1c7be29de727f16d9c1027f7660466911e442c3121fb60a06117566131aa565b33600052600960205260ff6040600020541680156117d0575b611778906134dd565b600180831b0380911661178c811515613898565b60075491816001600160601b03851b84161760075560405192606084526009606085015268757364745374616b6560b81b60808501521660208301526040820152a1005b50611778600180841b03600054163314905061176f565b34610380576020806003193601126103805760043580600052601682526003604060002001549160009060009260005b85811061182e575050604080945051928352820152f35b8160005260188352604060002081600052835260406000205484811161185e575b5061185990613539565b611817565b90945092508361185961184f565b3461038057600036600319011261038057611885613de0565b6040516020808252825181830152808301516118af61014091826040860152610160850190613329565b6118cb604086015191601f199283878303016060880152613329565b6060860151938286830301608087015284519182815281810182808560051b8401019701946000925b8584106119515789808a8a8e60018060a01b0360808201511660a085015261192460a082015160c0860190613369565b60c081015160e085015260e081015161010090818601528101519061012091828601520151908301520390f35b90919293949597858061196e838686600196030188528c51613329565b9a01940194019295949391906118f4565b34610380576000366003190112610380576020600554604051908152f35b34610380576040366003190112610380576119b66131aa565b602435906005821015610380576020916119cf9161380f565b6040519015158152f35b34610380576000366003190112610380576020600254604051908152f35b34610380576000366003190112610380576020600454604051908152f35b34610380576000366003190112610380576020601154604051908152f35b346103805760403660031901126103805760a0611a4e6131c0565b60043560005260176020526040600020600180841b03809216600052602052611ab260406000209182549260018101549160028201541660ff6004600384015493015416926040519586526020860152604085015260608401526080830190613376565bf35b3461038057600036600319011261038057602060ff60105460181c166040519015158152f35b34610380576000366003190112610380576020611712613a1c565b3461038057600036600319011261038057602060ff60105460101c166040519015158152f35b34610380576020366003190112610380576020611712611b396131aa565b613a85565b34610380576020366003190112610380576020611b61611b5c6131aa565b6138d6565b611ab260405180926133b7565b3461038057611b7c36613383565b90600e549160ff91611b93838560081c1615613bd3565b60029160019483865414611eec5783865584601054818160101c16600014611ed8575050611bc8611bc3336135f7565b613d4c565b6011546000526020906012825284604060002001544211611e9d578360005260168252604060002060068101544211611e695786600482015460a01c166008811015610baa57600503611e375760030154831015611e01576000848152601783526040808220338352845290208501546001600160a01b03908116611dcc5786600092166003811015610baa57869080611d885750509050611c6933613d98565b905b846000526018835260406000208460005283526040600020611c8e838254613548565b905586600e5416956040519060a082018281106001600160401b0382111761092a57604052868252848201928684526040830190338252606084019286845260038b1015610baa57600495608086019b8c528a600052601789526040600020336000528952604060002095518655518d86015584019151166001600160601b0360a01b825416179055516003820155019451926003841015610baa578660a096611d83957fe23e924bfb9c3da01f0c2cd4ee3f44f74a6991630bc64db5fd793e08c0b4aff09960ff198354169116179055600e5416926040519586523390860152604085015260608401526080830190613376565ba18055005b808a03611da25750509050611d9c33613a85565b90611c6b565b03611c6b579050611db233613bb5565b600b549081811115611dc5575090611c6b565b9050611d9c565b60405162461bcd60e51b815260048101849052600d60248201526c105b1c9958591e481d9bdd1959609a1b6044820152606490fd5b60405162461bcd60e51b815260048101839052600e60248201526d496e76616c69642063686f69636560901b6044820152606490fd5b60405162461bcd60e51b815260048101849052600a6024820152694e6f742061637469766560b01b6044820152606490fd5b60405162461bcd60e51b815260048101849052600c60248201526b159bdd1a5b99c8195b99195960a21b6044820152606490fd5b60405162461bcd60e51b815260048101839052601360248201527214d95cdcda5bdb881a185cc8195e1c1a5c9959606a1b6044820152606490fd5b611ee791611bc391163361380f565b611bc8565b604051633ee5aeb560e01b8152600490fd5b34610380576000366003190112610380576020600b54604051908152f35b3461038057600036600319011261038057602060ff600e5460081c166040519015158152f35b3461038057611f5036613383565b906000526019602052604060002090815481101561038057600091825260209182902001546040516001600160a01b039091168152f35b3461038057602080600319360112610380576004358060005260168252600360406000200154611fb68161341a565b90611fc46040519283613262565b808252611fd08161341a565b8285019390601f190136853760005b82811061202a5750505090604051928392818401908285525180915260408401929160005b82811061201357505050500390f35b835185528695509381019392810192600101612004565b816000526018865260406000208160005286526040600020549084518110156120645761205f91878260051b87010152613539565b611fdf565b634e487b7160e01b600052603260045260246000fd5b34610380576000366003190112610380576020600f54604051908152f35b34610380576000366003190112610380576020600d54604051908152f35b346103805760203660031901126103805760043560038110156103805733600052600960205260ff60406000205416801561218e575b6120f5906134dd565b600f5460005260166020526006604060002001544211156121235760ff8019600e5416911617600e55600080f35b60405162461bcd60e51b815260206004820152603d60248201527f43616e6e6f74206368616e676520766f7465206d6574686f64207768696c652060448201527f616e206163746976652070726f706f73616c206973206f6e676f696e670000006064820152608490fd5b506000546001600160a01b031633146120ec565b346103805760203660031901126103805760043533600052600960205260ff604060002054168015612256575b6121d8906134dd565b600b5490620f4240811161221c577f5b1f8430a1675242d4a0bdb976ee1c8740d114671db54660aba42fb46293e5dd9181604092600b5582519182526020820152a1005b60405162461bcd60e51b815260206004820152601260248201527143616e6e6f7420657863656564203130302560701b6044820152606490fd5b506000546001600160a01b031633146121cf565b34610380576040366003190112610380576122836131c0565b600435600052601a60205260406000209060018060a01b0316600052602052602060ff604060002054166040519015158152f35b34610380576000366003190112610380576000546040516001600160a01b039091168152602090f35b34610380576040366003190112610380577f235bc17e7930760029e9f4d860a2a8089976de5b381cf8380fc11c1d88a11133604061231c6131aa565b612324613399565b9061232d6134b1565b60018060a01b031690816000526009602052826000209015159060ff1981541660ff831617905582519182526020820152a1005b34610380576000366003190112610380576020604051620f42408152f35b3461038057602036600319011261038057600435600052601260205260606040600020805490600260018201549101549060405192835260208301526040820152f35b34610380576000366003190112610380576020600354604051908152f35b34610380576020366003190112610380577facd69d400b729d128dab03b65b380176a53b11673ad998449248787fa4b0c1036107d861241d6133a8565b33600052600960205260ff604060002054168015612489575b61243f906134dd565b60105462ff000082151561245d8160ff8560101c1615151415613555565b62ff000019909216601092831b9190911617905560408051911515825233602083015290918291820190565b506000546001600160a01b03163314612436565b34610380576000366003190112610380576124b66134b1565b600080546001600160a01b0319811682556001600160a01b03167f8be0079c531659141344cd1fd0a4f28419497f9722a3daafe3b4186f6b6457e08280a3005b346103805760203660031901126103805760043533600052600960205260ff6040600020541680156125ae575b61252c906134dd565b8015612569577f17d7947c7eb4c64ed8f949d7f78aa8962c23cef42a8aec030b173422dafc0ee26040600c548151908152836020820152a1600c55005b60405162461bcd60e51b815260206004820152601c60248201527f4c696d6974206d7573742062652067726561746572207468616e2030000000006044820152606490fd5b506000546001600160a01b03163314612523565b34610380576000366003190112610380576008546040516001600160a01b039091168152602090f35b34610380576020366003190112610380577f275c0d75243166186fa0f0ffc169c47d2db606a1f37f00a81ec2281df19a0f3760206126276133a8565b336000526009825260ff604060002054168015612668575b612648906134dd565b1515600e5461ff008260081b169061ff00191617600e55604051908152a1005b506000546001600160a01b0316331461263f565b346103805760203660031901126103805760043560005260156020526020604060002054604051908152f35b34610380576080366003190112610380576004356024356044359160643590336000526020936009855260ff6040600020541680156128dc575b6126eb906134dd565b6002549360035490600454916005549482811115612887578483111561282f57868511156127d55786156127805790817f4b5c816e0c966b9aead99d789f72ce40b827a43a02deb6eb7a144a5a4ae1b639996101009998979695949360025583600355856004558760055560405198895288015260408701526060860152608085015260a084015260c083015260e0820152a1005b60405162461bcd60e51b8152600481018a9052602760248201527f42726f6e7a65207468726573686f6c64206d75737420626520677265617465726044820152660207468616e20360cc1b6064820152608490fd5b60405162461bcd60e51b8152600481018a9052602c60248201527f53696c766572207468726573686f6c64206d757374206265206772656174657260448201526b207468616e2042726f6e7a6560a01b6064820152608490fd5b60405162461bcd60e51b8152600481018a9052602a60248201527f476f6c64207468726573686f6c64206d757374206265206772656174657220746044820152693430b71029b4b63b32b960b11b6064820152608490fd5b60405162461bcd60e51b8152600481018a9052602760248201527f564950207468726573686f6c64206d7573742062652067726561746572207468604482015266185b8811dbdb1960ca1b6064820152608490fd5b506000546001600160a01b031633146126e2565b34610380576020366003190112610380577f508230d9e989b49c651e1c7be29de727f16d9c1027f7660466911e442c3121fb60a061292c6131aa565b33600052600960205260ff6040600020541680156129a6575b61294e906134dd565b600180831b03809116612962811515613898565b60085491816001600160601b03851b84161760085560405192606084526009606085015268757364635374616b6560b81b60808501521660208301526040820152a1005b5061294e600180841b036000541633149050612945565b34610380576020366003190112610380577f508230d9e989b49c651e1c7be29de727f16d9c1027f7660466911e442c3121fb60a06129f96131aa565b33600052600960205260ff604060002054168015612a73575b612a1b906134dd565b600180831b03809116612a2f811515613898565b60065491816001600160601b03851b84161760065560405192606084526009606085015268746f6b656e4c6f636b60b81b60808501521660208301526040820152a1005b50612a1b600180841b036000541633149050612a12565b346103805760203660031901126103805760043560058110156103805733600052600960205260ff604060002054168015612b1c575b612ac9906134dd565b60ff601054917fc8b034f81789724b1d42fec8ab78c0dc8af75873a01c302294de2e51fcf08af460408051612b00818688166133b7565b612b0d60208201856133b7565ba160ff19909216911617601055005b506000546001600160a01b03163314612ac0565b34610380576020366003190112610380577ecf99437b8ebf224f0519ccf1f06df9fc3fe2eebe722fecd9aea5b8f15bace26107d8612b6c6133a8565b33600052600960205260ff604060002054168015612bd7575b612b8e906134dd565b60105463ff000000821515612bad8160ff8560181c1615151415613555565b60181b1663ff00000019919091161760105560408051911515825233602083015290918291820190565b506000546001600160a01b03163314612b85565b3461038057612bf936613383565b9060005260186020526040600020906000526020526020604060002054604051908152f35b346103805760403660031901126103805760206119cf612c3c6131aa565b612c44613399565b9061383a565b3461038057612c5836613383565b9060005260136020526040600020906000526020526020604060002054604051908152f35b346103805760203660031901126103805760043560005260146020526020604060002054604051908152f35b346103805760203660031901126103805760206119cf612cc76131aa565b6135f7565b34610380576020366003190112610380576001600160a01b03612ced6131aa565b166000526009602052602060ff604060002054166040519015158152f35b34610380576000366003190112610380573360005260206009815260ff604060002054168015612e42575b612d3f906134dd565b60115480612de8575b612d5190613539565b806011556301e133804201804211612dd25760407f315accd74fc751a34409a65dfa01d8f9e8f1993869804f95ccdf4bc31a3fd8d9918151612d9281613210565b84815260028682016000815284830190848252876000526012895285600020935184555160018401555191015581519084825285820152a1604051908152f35b634e487b7160e01b600052601160045260246000fd5b80600052601282526002604060002001544211612d48576064826040519062461bcd60e51b825280600483015260248201527f50726576696f75732073657373696f6e206973207374696c6c206163746976656044820152fd5b506000546001600160a01b03163314612d36565b3461038057600036600319011261038057602060ff600e5416611ab26040518092613376565b34610380576000366003190112610380576007546040516001600160a01b039091168152602090f35b34610380576000366003190112610380576020600c54604051908152f35b346103805760403660031901126103805760043560243560088110156103805733600052600960205260ff604060002054168015612fe3575b612f05906134dd565b816000526016602052604060002091600060028314908115612fd6575b8115612fc6575b5015612f8957612f7c82612f6360409460047f3646af1e723ad3312b3882e1313a9a027ac60be336dd8582ed727e1dd4cf9e789701613cd3565b82600f5414612f7f575b83519283526020830190613369565ba1005b6000600f55612f6d565b60405162461bcd60e51b8152602060048201526015602482015274496e76616c6964207374617475732075706461746560581b6044820152606490fd5b9050610baa576004821484612f29565b5050600382146000612f22565b506000546001600160a01b03163314612efc565b34610380576000366003190112610380576020600a54604051908152f35b346103805760203660031901126103805760043533600052600960205260ff6040600020541680156130b2575b61304b906134dd565b6001811061306d576201518090818102918183041490151715612dd257600d55005b60405162461bcd60e51b815260206004820152601960248201527f566f74696e67206475726174696f6e20746f6f2073686f7274000000000000006044820152606490fd5b506000546001600160a01b03163314613042565b34610380576020366003190112610380576004356000526016602052604060002080546130f560018301613283565b9161310260028201613283565b600482015491600581015460068201549061316e61314e60086007860154950154956131406040519a8b9a8b526101208060208d01528b0190613329565b9089820360408b0152613329565b6001600160a01b038716606089015295608088019060a01c60ff16613369565b60a086015260c085015260e08401526101008301520390f35b346103805760203660031901126103805760206119cf6131a56131aa565b613711565b600435906001600160a01b038216820361038057565b602435906001600160a01b038216820361038057565b90600182811c92168015613206575b60208310146131f057565b634e487b7160e01b600052602260045260246000fd5b91607f16916131e5565b606081019081106001600160401b0382111761092a57604052565b61014081019081106001600160401b0382111761092a57604052565b604081019081106001600160401b0382111761092a57604052565b90601f801991011681019081106001600160401b0382111761092a57604052565b9060405191826000825492613297846131d6565b90818452600194858116908160001461330657506001146132c3575b50506132c192500383613262565b565b9093915060005260209081600020936000915b8183106132ee5750506132c1935082010138806132b3565b855488840185015294850194879450918301916132d6565b9150506132c194506020925060ff191682840152151560051b82010138806132b3565b919082519283825260005b848110613355575050826000602080949584010152601f8019910116010190565b602081830181015184830182015201613334565b906008821015610baa5752565b906003821015610baa5752565b6040906003190112610380576004359060243590565b60243590811515820361038057565b60043590811515820361038057565b906005821015610baa5752565b81601f82011215610380578035906001600160401b03821161092a57604051926133f8601f8401601f191660200185613262565b8284526020838301011161038057816000926020809301838601378301015290565b6001600160401b03811161092a5760051b60200190565b9080601f83011215610380578135906134498261341a565b926134576040519485613262565b828452602092838086019160051b8301019280841161038057848301915b8483106134855750505050505090565b82356001600160401b0381116103805786916134a6848480948901016133c4565b815201920191613475565b6000546001600160a01b031633036134c557565b60405163118cdaa760e01b8152336004820152602490fd5b156134e457565b60405162461bcd60e51b815260206004820152602760248201527f4f6e6c79207468652061646d696e2063616e20706572666f726d20746869732060448201526630b1ba34b7b71760c91b6064820152608490fd5b6000198114612dd25760010190565b91908201809211612dd257565b1561355c57565b606460405162461bcd60e51b815260206004820152602060248201527f436f6e66696720616c72656164792073657420746f20746869732076616c75656044820152fd5b908160809103126103805760405190608082018281106001600160401b0382111761092a57604052805190600282101561038057606091835260208101516020840152604081015160408401520151606082015290565b60075460405163543a185d60e11b8082526001600160a01b0384811660048401819052608095919491939186908390602490829089165afa9485156136e35786926000966136ef575b5060249060085416936040519485938492835260048301525afa9384156136e3576000946136ad575b50506136766060916138d6565b910151159182159261369f575b508161368d575090565b90506005811015610baa576001111590565b606001511515915038613683565b606092945061367691816136d592903d106136dc575b6136cd8183613262565b8101906135a0565b9391613669565b503d6136c3565b6040513d6000823e3d90fd5b602491965061370a90843d86116136dc576136cd8183613262565b9590613640565b60075460405163543a185d60e11b8082526001600160a01b0384811660048401819052608095919491939186908390602490829089165afa9485156136e35786926000966137ed575b5060249060085416936040519485938492835260048301525afa9384156136e3576000946137c7575b50506137906060916138d6565b91015115918215926137b9575b50816137a7575090565b90506005811015610baa576003111590565b60600151151591503861379d565b606092945061379091816137e692903d106136dc576136cd8183613262565b9391613783565b602491965061380890843d86116136dc576136cd8183613262565b959061375a565b613818906138d6565b6005821015610baa576005811015610baa57101561383557600090565b600190565b901561386f576010549060ff8260181c1660001461385f5761385c9150613711565b90565b60ff61385c9260081c169061380f565b6010549060ff8260101c1660001461388b5761385c91506135f7565b60ff61385c92169061380f565b1561389f57565b60405162461bcd60e51b815260206004820152600f60248201526e496e76616c6964206164647265737360881b6044820152606490fd5b6006546040516370a0823160e01b81526001600160a01b03928316600482018190526000949385936020929116908284602481855afa938415613a115785946139de575b508290602460405180948193633233126160e21b835260048301525afa9182156139d357849261399f575b505061395091613548565b600254811061396157506004925050565b600354811061397257506003925050565b600454811061398357506002925050565b600554118061399457506001925050565b61399b5750565b9150565b90809250813d83116139cc575b6139b68183613262565b810103126139c8575161395038613945565b8280fd5b503d6139ac565b6040513d86823e3d90fd5b9093508281813d8311613a0a575b6139f68183613262565b81010312613a065751928261391a565b8480fd5b503d6139ec565b6040513d87823e3d90fd5b6006546040516318160ddd60e01b815290602090829060049082906001600160a01b03165afa9081156136e357600091613a54575090565b906020823d8211613a7d575b81613a6d60209383613262565b81010312613a7a57505190565b80fd5b3d9150613a60565b6006546040516370a0823160e01b81526001600160a01b039283166004820181905260209493909216908481602481855afa9283156136e3578591600094613b83575b50602460405180948193633233126160e21b835260048301525afa9384156136e357600094613b50575b505091613aff9192613548565b613b07613a1c565b15613b4a57620f424090818102918183041490151715612dd257613b29613a1c565b908115613b34570490565b634e487b7160e01b600052601260045260246000fd5b50600090565b81813d8311613b7c575b613b648183613262565b81010312613b7857519250613aff38613af2565b8380fd5b503d613b5a565b9182819592953d8311613bae575b613b9b8183613262565b81010312613a7a57508490519238613ac8565b503d613b91565b613bbe90613a85565b600b549081811115613bce575090565b905090565b15613bda57565b60405162461bcd60e51b815260206004820152600d60248201526c111053c81a5cc81c185d5cd959609a1b6044820152606490fd5b15613c1657565b60405162461bcd60e51b815260206004820152602960248201527f596f7520617265206e6f7420656c696769626c6520746f206372656174652061604482015268081c1c9bdc1bdcd85b60ba1b6064820152608490fd5b15613c7457565b60405162461bcd60e51b8152602060048201526014602482015273125b9d985b1a590818da1bda58d94818dbdd5b9d60621b6044820152606490fd5b6008821015610baa5752565b818110613cc7575050565b60008155600101613cbc565b906008811015610baa57815460ff60a01b191660a09190911b60ff60a01b16179055565b90815180825260208092019182818360051b85019501936000915b848310613d225750505050505090565b9091929394958480613d3c83856001950387528a51613329565b9801930193019194939290613d12565b15613d5357565b60405162461bcd60e51b815260206004820152601c60248201527f596f7520617265206e6f7420656c696769626c6520746f20766f7465000000006044820152606490fd5b613da1906138d6565b6005811015610baa5760048103613db85750600490565b60038103613dc65750600390565b60028103613dd45750600290565b60011461383557600090565b6040908151613dee8161322b565b6000908181526060936020908582840152858184015285808401528360808401528360a08401528360c08401528360e0840152610100908482850152846101208095015260115480865260128452600282872001548015159081613ffa575b50613f4257859395526012855260019687828520015484526016865281842093825196613e798861322b565b85548852613e888a8701613283565b81890152613e9860028701613283565b848901526003860190815492613eb9613eb08561341a565b96519687613262565b8386529182528082208186015b848410613f2757505050505085600895969798500152613f0160ff600484015460018060a01b038116608089015260a01c1660a08701613cb0565b600582015460c0860152600682015460e086015260078201549085015201549082015290565b8c838192613f3485613283565b815201920193019290613ec6565b508480979397526016875280852092815195613f5d8761322b565b84548752600198613f6f8a8701613283565b81890152613f7f60028701613283565b848901526003860190815492613f97613eb08561341a565b8386529182528082208186015b848410613fdf57505050505085600895969798500152613f0160ff600484015460018060a01b038116608089015260a01c1660a08701613cb0565b8c838192613fec85613283565b815201920193019290613fa4565b9050421138613e4d56fea2646970667358221220a4626d8a55e91f765e7b9adb583c435d05892570d8254aba8b4adc6671e8065664736f6c63430008140033",
  "linkReferences": {},
  "deployedLinkReferences": {}
}