{
  "_format": "hh-sol-artifact-1",
  "contractName": "StableStaking",
  "sourceName": "contracts/stable-staking-smart-contract.sol",
  "abi": [
    {
      "inputs": [
        {
          "internalType": "address",
          "name": "_stakingToken",
          "type": "address"
        },
        {
          "internalType": "address",
          "name": "_stakingPoolAndReward",
          "type": "address"
        },
        {
          "internalType": "address",
          "name": "_lockingToken",
          "type": "address"
        },
        {
          "internalType": "address",
          "name": "_lockingPool",
          "type": "address"
        },
        {
          "internalType": "address",
          "name": "_signer",
          "type": "address"
        }
      ],
      "stateMutability": "nonpayable",
      "type": "constructor"
    },
    {
      "inputs": [],
      "name": "ECDSAInvalidSignature",
      "type": "error"
    },
    {
      "inputs": [
        {
          "internalType": "uint256",
          "name": "length",
          "type": "uint256"
        }
      ],
      "name": "ECDSAInvalidSignatureLength",
      "type": "error"
    },
    {
      "inputs": [
        {
          "internalType": "bytes32",
          "name": "s",
          "type": "bytes32"
        }
      ],
      "name": "ECDSAInvalidSignatureS",
      "type": "error"
    },
    {
      "inputs": [],
      "name": "EnforcedPause",
      "type": "error"
    },
    {
      "inputs": [],
      "name": "ExpectedPause",
      "type": "error"
    },
    {
      "inputs": [
        {
          "internalType": "address",
          "name": "owner",
          "type": "address"
        }
      ],
      "name": "OwnableInvalidOwner",
      "type": "error"
    },
    {
      "inputs": [
        {
          "internalType": "address",
          "name": "account",
          "type": "address"
        }
      ],
      "name": "OwnableUnauthorizedAccount",
      "type": "error"
    },
    {
      "inputs": [],
      "name": "ReentrancyGuardReentrantCall",
      "type": "error"
    },
    {
      "inputs": [
        {
          "internalType": "address",
          "name": "token",
          "type": "address"
        }
      ],
      "name": "SafeERC20FailedOperation",
      "type": "error"
    },
    {
      "anonymous": false,
      "inputs": [
        {
          "indexed": false,
          "internalType": "enum StableStaking.Tier",
          "name": "tier",
          "type": "uint8"
        },
        {
          "indexed": false,
          "internalType": "uint256",
          "name": "newInterestPPM",
          "type": "uint256"
        }
      ],
      "name": "AdditionalInterestUpdated",
      "type": "event"
    },
    {
      "anonymous": false,
      "inputs": [
        {
          "indexed": false,
          "internalType": "address",
          "name": "admin",
          "type": "address"
        },
        {
          "indexed": false,
          "internalType": "bool",
          "name": "isAdmin",
          "type": "bool"
        }
      ],
      "name": "AdminUpdated",
      "type": "event"
    },
    {
      "anonymous": false,
      "inputs": [
        {
          "indexed": false,
          "internalType": "uint256",
          "name": "newBondingPeriod",
          "type": "uint256"
        }
      ],
      "name": "BondingPeriodUpdated",
      "type": "event"
    },
    {
      "anonymous": false,
      "inputs": [
        {
          "indexed": false,
          "internalType": "string",
          "name": "action",
          "type": "string"
        },
        {
          "indexed": false,
          "internalType": "address",
          "name": "account",
          "type": "address"
        }
      ],
      "name": "ContractStateChanged",
      "type": "event"
    },
    {
      "anonymous": false,
      "inputs": [
        {
          "indexed": false,
          "internalType": "address",
          "name": "staker",
          "type": "address"
        },
        {
          "indexed": false,
          "internalType": "uint256",
          "name": "stakeId",
          "type": "uint256"
        },
        {
          "indexed": false,
          "internalType": "uint256",
          "name": "requestedAt",
          "type": "uint256"
        },
        {
          "indexed": false,
          "internalType": "bool",
          "name": "isRequested",
          "type": "bool"
        }
      ],
      "name": "ForceStop",
      "type": "event"
    },
    {
      "anonymous": false,
      "inputs": [
        {
          "indexed": false,
          "internalType": "uint256",
          "name": "newMinStake",
          "type": "uint256"
        }
      ],
      "name": "InstitutionalMinStakeUpdated",
      "type": "event"
    },
    {
      "anonymous": false,
      "inputs": [
        {
          "indexed": false,
          "internalType": "address",
          "name": "user",
          "type": "address"
        },
        {
          "indexed": false,
          "internalType": "uint256",
          "name": "stakeId",
          "type": "uint256"
        },
        {
          "indexed": false,
          "internalType": "uint256[]",
          "name": "months",
          "type": "uint256[]"
        },
        {
          "indexed": false,
          "internalType": "uint256",
          "name": "totalAmount",
          "type": "uint256"
        },
        {
          "indexed": false,
          "internalType": "uint256",
          "name": "timeStamp",
          "type": "uint256"
        }
      ],
      "name": "InterestWithdrawn",
      "type": "event"
    },
    {
      "anonymous": false,
      "inputs": [
        {
          "indexed": false,
          "internalType": "bool",
          "name": "oldValue",
          "type": "bool"
        },
        {
          "indexed": false,
          "internalType": "bool",
          "name": "newValue",
          "type": "bool"
        }
      ],
      "name": "LockModeUpdated",
      "type": "event"
    },
    {
      "anonymous": false,
      "inputs": [
        {
          "indexed": false,
          "internalType": "address",
          "name": "oldAddress",
          "type": "address"
        },
        {
          "indexed": false,
          "internalType": "address",
          "name": "newAddress",
          "type": "address"
        }
      ],
      "name": "LockingTokenUpdated",
      "type": "event"
    },
    {
      "anonymous": false,
      "inputs": [
        {
          "indexed": false,
          "internalType": "enum StableStaking.Tier",
          "name": "tier",
          "type": "uint8"
        },
        {
          "indexed": false,
          "internalType": "uint256",
          "name": "newMaxStake",
          "type": "uint256"
        }
      ],
      "name": "MaxStakeUpdated",
      "type": "event"
    },
    {
      "anonymous": false,
      "inputs": [
        {
          "indexed": true,
          "internalType": "address",
          "name": "previousOwner",
          "type": "address"
        },
        {
          "indexed": true,
          "internalType": "address",
          "name": "newOwner",
          "type": "address"
        }
      ],
      "name": "OwnershipTransferred",
      "type": "event"
    },
    {
      "anonymous": false,
      "inputs": [
        {
          "indexed": false,
          "internalType": "address",
          "name": "account",
          "type": "address"
        }
      ],
      "name": "Paused",
      "type": "event"
    },
    {
      "anonymous": false,
      "inputs": [
        {
          "indexed": false,
          "internalType": "uint256",
          "name": "newMinStake",
          "type": "uint256"
        }
      ],
      "name": "PersonalMinStakeUpdated",
      "type": "event"
    },
    {
      "anonymous": false,
      "inputs": [
        {
          "indexed": false,
          "internalType": "address",
          "name": "wallet",
          "type": "address"
        },
        {
          "indexed": false,
          "internalType": "uint256",
          "name": "stakeId",
          "type": "uint256"
        },
        {
          "indexed": false,
          "internalType": "uint256",
          "name": "stakedAmount",
          "type": "uint256"
        },
        {
          "indexed": false,
          "internalType": "uint256",
          "name": "period",
          "type": "uint256"
        },
        {
          "indexed": false,
          "internalType": "bool",
          "name": "tokenLocked",
          "type": "bool"
        },
        {
          "indexed": false,
          "internalType": "uint256",
          "name": "baseInterest",
          "type": "uint256"
        },
        {
          "indexed": false,
          "internalType": "uint256",
          "name": "additionalInterest",
          "type": "uint256"
        },
        {
          "indexed": false,
          "internalType": "uint256",
          "name": "stakingDate",
          "type": "uint256"
        },
        {
          "indexed": false,
          "internalType": "uint256",
          "name": "stakingEndDate",
          "type": "uint256"
        },
        {
          "indexed": false,
          "internalType": "uint256",
          "name": "monthlyInterest",
          "type": "uint256"
        },
        {
          "indexed": false,
          "internalType": "uint256",
          "name": "periodLimit",
          "type": "uint256"
        },
        {
          "indexed": false,
          "internalType": "enum StableStaking.Tier",
          "name": "tier",
          "type": "uint8"
        }
      ],
      "name": "Staked",
      "type": "event"
    },
    {
      "anonymous": false,
      "inputs": [
        {
          "indexed": false,
          "internalType": "uint256",
          "name": "periodDuration",
          "type": "uint256"
        },
        {
          "indexed": false,
          "internalType": "uint256",
          "name": "periodApr",
          "type": "uint256"
        },
        {
          "indexed": false,
          "internalType": "uint256",
          "name": "limiter",
          "type": "uint256"
        },
        {
          "indexed": false,
          "internalType": "bool",
          "name": "exist",
          "type": "bool"
        },
        {
          "indexed": false,
          "internalType": "string",
          "name": "method",
          "type": "string"
        }
      ],
      "name": "StakingPeriodEvent",
      "type": "event"
    },
    {
      "anonymous": false,
      "inputs": [
        {
          "indexed": false,
          "internalType": "address",
          "name": "oldAddress",
          "type": "address"
        },
        {
          "indexed": false,
          "internalType": "address",
          "name": "newAddress",
          "type": "address"
        }
      ],
      "name": "StakingTokenUpdated",
      "type": "event"
    },
    {
      "anonymous": false,
      "inputs": [
        {
          "indexed": false,
          "internalType": "enum StableStaking.Tier",
          "name": "tier",
          "type": "uint8"
        },
        {
          "indexed": false,
          "internalType": "uint256",
          "name": "newThreshold",
          "type": "uint256"
        }
      ],
      "name": "ThresholdUpdated",
      "type": "event"
    },
    {
      "anonymous": false,
      "inputs": [
        {
          "indexed": false,
          "internalType": "address",
          "name": "account",
          "type": "address"
        }
      ],
      "name": "Unpaused",
      "type": "event"
    },
    {
      "anonymous": false,
      "inputs": [
        {
          "indexed": false,
          "internalType": "address",
          "name": "staker",
          "type": "address"
        },
        {
          "indexed": false,
          "internalType": "uint256",
          "name": "stakeId",
          "type": "uint256"
        },
        {
          "indexed": false,
          "internalType": "uint256",
          "name": "requestedAt",
          "type": "uint256"
        },
        {
          "indexed": false,
          "internalType": "bool",
          "name": "isRequested",
          "type": "bool"
        }
      ],
      "name": "WithdrawPrincipalRequested",
      "type": "event"
    },
    {
      "anonymous": false,
      "inputs": [
        {
          "indexed": false,
          "internalType": "uint256",
          "name": "newWithdrawalPeriod",
          "type": "uint256"
        }
      ],
      "name": "WithdrawalPeriodUpdated",
      "type": "event"
    },
    {
      "anonymous": false,
      "inputs": [
        {
          "indexed": false,
          "internalType": "address",
          "name": "user",
          "type": "address"
        },
        {
          "indexed": false,
          "internalType": "uint256",
          "name": "amount",
          "type": "uint256"
        }
      ],
      "name": "Withdrawn",
      "type": "event"
    },
    {
      "anonymous": false,
      "inputs": [
        {
          "indexed": false,
          "internalType": "address",
          "name": "user",
          "type": "address"
        },
        {
          "indexed": false,
          "internalType": "uint256",
          "name": "stakeId",
          "type": "uint256"
        },
        {
          "indexed": false,
          "internalType": "uint256",
          "name": "stakedAmount",
          "type": "uint256"
        },
        {
          "indexed": false,
          "internalType": "uint256",
          "name": "lockedAmount",
          "type": "uint256"
        },
        {
          "indexed": false,
          "internalType": "uint256",
          "name": "timeStamp",
          "type": "uint256"
        }
      ],
      "name": "WithdrawnPrincipal",
      "type": "event"
    },
    {
      "anonymous": false,
      "inputs": [
        {
          "indexed": false,
          "internalType": "address",
          "name": "newlockedToken",
          "type": "address"
        }
      ],
      "name": "lockedTokenUpdated",
      "type": "event"
    },
    {
      "anonymous": false,
      "inputs": [
        {
          "indexed": false,
          "internalType": "address",
          "name": "newstakingPoolAndReward",
          "type": "address"
        }
      ],
      "name": "stakingPoolAndRewardUpdated",
      "type": "event"
    },
    {
      "anonymous": false,
      "inputs": [
        {
          "indexed": false,
          "internalType": "uint256",
          "name": "newMaxstakingPoolAndReward",
          "type": "uint256"
        }
      ],
      "name": "totalMaxStakingPoolUpdated",
      "type": "event"
    },
    {
      "inputs": [],
      "name": "MIN_BRONZE_THRESHOLD",
      "outputs": [
        {
          "internalType": "uint256",
          "name": "",
          "type": "uint256"
        }
      ],
      "stateMutability": "view",
      "type": "function"
    },
    {
      "inputs": [],
      "name": "MIN_GOLD_THRESHOLD",
      "outputs": [
        {
          "internalType": "uint256",
          "name": "",
          "type": "uint256"
        }
      ],
      "stateMutability": "view",
      "type": "function"
    },
    {
      "inputs": [],
      "name": "MIN_NOTIER_THRESHOLD",
      "outputs": [
        {
          "internalType": "uint256",
          "name": "",
          "type": "uint256"
        }
      ],
      "stateMutability": "view",
      "type": "function"
    },
    {
      "inputs": [],
      "name": "MIN_SILVER_THRESHOLD",
      "outputs": [
        {
          "internalType": "uint256",
          "name": "",
          "type": "uint256"
        }
      ],
      "stateMutability": "view",
      "type": "function"
    },
    {
      "inputs": [],
      "name": "MIN_VIP_THRESHOLD",
      "outputs": [
        {
          "internalType": "uint256",
          "name": "",
          "type": "uint256"
        }
      ],
      "stateMutability": "view",
      "type": "function"
    },
    {
      "inputs": [
        {
          "internalType": "address",
          "name": "_admin",
          "type": "address"
        },
        {
          "internalType": "bool",
          "name": "_true",
          "type": "bool"
        }
      ],
      "name": "addOrRemoveAdmin",
      "outputs": [],
      "stateMutability": "nonpayable",
      "type": "function"
    },
    {
      "inputs": [
        {
          "internalType": "uint256",
          "name": "_period",
          "type": "uint256"
        },
        {
          "internalType": "uint256",
          "name": "_interestRate",
          "type": "uint256"
        },
        {
          "internalType": "uint256",
          "name": "_limiter",
          "type": "uint256"
        }
      ],
      "name": "addStakingPeriod",
      "outputs": [],
      "stateMutability": "nonpayable",
      "type": "function"
    },
    {
      "inputs": [
        {
          "internalType": "enum StableStaking.Tier",
          "name": "",
          "type": "uint8"
        }
      ],
      "name": "additionalInterestForTier",
      "outputs": [
        {
          "internalType": "uint256",
          "name": "",
          "type": "uint256"
        }
      ],
      "stateMutability": "view",
      "type": "function"
    },
    {
      "inputs": [],
      "name": "bondingPeriod",
      "outputs": [
        {
          "internalType": "uint256",
          "name": "",
          "type": "uint256"
        }
      ],
      "stateMutability": "view",
      "type": "function"
    },
    {
      "inputs": [
        {
          "internalType": "uint256",
          "name": "totalDays",
          "type": "uint256"
        },
        {
          "internalType": "uint256",
          "name": "totalDaysInMonth",
          "type": "uint256"
        },
        {
          "internalType": "uint256",
          "name": "totalStakingAmount",
          "type": "uint256"
        },
        {
          "internalType": "uint256",
          "name": "interestRate",
          "type": "uint256"
        }
      ],
      "name": "calculateStakingInterest",
      "outputs": [
        {
          "internalType": "uint256",
          "name": "",
          "type": "uint256"
        }
      ],
      "stateMutability": "pure",
      "type": "function"
    },
    {
      "inputs": [],
      "name": "currentStakeId",
      "outputs": [
        {
          "internalType": "uint256",
          "name": "",
          "type": "uint256"
        }
      ],
      "stateMutability": "view",
      "type": "function"
    },
    {
      "inputs": [
        {
          "internalType": "uint256",
          "name": "_period",
          "type": "uint256"
        }
      ],
      "name": "disableStakingPeriod",
      "outputs": [],
      "stateMutability": "nonpayable",
      "type": "function"
    },
    {
      "inputs": [
        {
          "internalType": "uint256",
          "name": "_period",
          "type": "uint256"
        },
        {
          "internalType": "uint256",
          "name": "_interestRate",
          "type": "uint256"
        }
      ],
      "name": "enableStakingPeriod",
      "outputs": [],
      "stateMutability": "nonpayable",
      "type": "function"
    },
    {
      "inputs": [
        {
          "internalType": "uint256",
          "name": "_stakeId",
          "type": "uint256"
        },
        {
          "internalType": "address",
          "name": "_staker",
          "type": "address"
        }
      ],
      "name": "forceStop",
      "outputs": [],
      "stateMutability": "nonpayable",
      "type": "function"
    },
    {
      "inputs": [],
      "name": "getAllTiers",
      "outputs": [
        {
          "components": [
            {
              "internalType": "string",
              "name": "tier_name",
              "type": "string"
            },
            {
              "internalType": "uint256",
              "name": "min_locked_for_tier",
              "type": "uint256"
            },
            {
              "internalType": "uint256",
              "name": "max_locked_for_tier",
              "type": "uint256"
            },
            {
              "internalType": "uint256",
              "name": "min_stakes",
              "type": "uint256"
            },
            {
              "internalType": "uint256",
              "name": "max_stakes",
              "type": "uint256"
            },
            {
              "internalType": "uint256",
              "name": "additional_interests",
              "type": "uint256"
            }
          ],
          "internalType": "struct StableStaking.TierInfo[5]",
          "name": "",
          "type": "tuple[5]"
        }
      ],
      "stateMutability": "view",
      "type": "function"
    },
    {
      "inputs": [
        {
          "internalType": "address",
          "name": "account",
          "type": "address"
        },
        {
          "internalType": "enum StableStaking.UserType",
          "name": "userType",
          "type": "uint8"
        }
      ],
      "name": "getGlobalUserTier",
      "outputs": [
        {
          "internalType": "enum StableStaking.Tier",
          "name": "tier",
          "type": "uint8"
        }
      ],
      "stateMutability": "view",
      "type": "function"
    },
    {
      "inputs": [
        {
          "internalType": "enum StableStaking.Tier",
          "name": "tier",
          "type": "uint8"
        }
      ],
      "name": "getTierMinimumLocked",
      "outputs": [
        {
          "internalType": "uint256",
          "name": "",
          "type": "uint256"
        }
      ],
      "stateMutability": "view",
      "type": "function"
    },
    {
      "inputs": [
        {
          "internalType": "address",
          "name": "_user",
          "type": "address"
        },
        {
          "internalType": "enum StableStaking.UserType",
          "name": "userType",
          "type": "uint8"
        }
      ],
      "name": "getUserStakeInfo",
      "outputs": [
        {
          "components": [
            {
              "internalType": "uint256",
              "name": "availableStakeBalance",
              "type": "uint256"
            },
            {
              "internalType": "uint256",
              "name": "availableLockedBalance",
              "type": "uint256"
            },
            {
              "internalType": "uint256",
              "name": "totalLockedTokens",
              "type": "uint256"
            },
            {
              "internalType": "uint256",
              "name": "eligibleAdditionalInterest",
              "type": "uint256"
            },
            {
              "internalType": "uint256",
              "name": "remainingStakingAllocation",
              "type": "uint256"
            },
            {
              "internalType": "uint256",
              "name": "remainingStakingTime",
              "type": "uint256"
            },
            {
              "internalType": "string",
              "name": "tierName",
              "type": "string"
            },
            {
              "internalType": "bool",
              "name": "lockMode",
              "type": "bool"
            }
          ],
          "internalType": "struct StableStaking.UserStakeInfo",
          "name": "",
          "type": "tuple"
        }
      ],
      "stateMutability": "view",
      "type": "function"
    },
    {
      "inputs": [
        {
          "internalType": "uint256",
          "name": "_lockedAmount",
          "type": "uint256"
        }
      ],
      "name": "getUserTier",
      "outputs": [
        {
          "internalType": "enum StableStaking.Tier",
          "name": "",
          "type": "uint8"
        }
      ],
      "stateMutability": "view",
      "type": "function"
    },
    {
      "inputs": [],
      "name": "institutionalMinStake",
      "outputs": [
        {
          "internalType": "uint256",
          "name": "",
          "type": "uint256"
        }
      ],
      "stateMutability": "view",
      "type": "function"
    },
    {
      "inputs": [
        {
          "internalType": "address",
          "name": "",
          "type": "address"
        }
      ],
      "name": "isAdmin",
      "outputs": [
        {
          "internalType": "bool",
          "name": "",
          "type": "bool"
        }
      ],
      "stateMutability": "view",
      "type": "function"
    },
    {
      "inputs": [],
      "name": "lockMode",
      "outputs": [
        {
          "internalType": "bool",
          "name": "",
          "type": "bool"
        }
      ],
      "stateMutability": "view",
      "type": "function"
    },
    {
      "inputs": [],
      "name": "lockingPool",
      "outputs": [
        {
          "internalType": "address",
          "name": "",
          "type": "address"
        }
      ],
      "stateMutability": "view",
      "type": "function"
    },
    {
      "inputs": [],
      "name": "lockingToken",
      "outputs": [
        {
          "internalType": "contract IERC20",
          "name": "",
          "type": "address"
        }
      ],
      "stateMutability": "view",
      "type": "function"
    },
    {
      "inputs": [],
      "name": "maxStakeAttempts",
      "outputs": [
        {
          "internalType": "uint256",
          "name": "",
          "type": "uint256"
        }
      ],
      "stateMutability": "view",
      "type": "function"
    },
    {
      "inputs": [
        {
          "internalType": "enum StableStaking.Tier",
          "name": "",
          "type": "uint8"
        }
      ],
      "name": "maxStakeForTier",
      "outputs": [
        {
          "internalType": "uint256",
          "name": "",
          "type": "uint256"
        }
      ],
      "stateMutability": "view",
      "type": "function"
    },
    {
      "inputs": [],
      "name": "owner",
      "outputs": [
        {
          "internalType": "address",
          "name": "",
          "type": "address"
        }
      ],
      "stateMutability": "view",
      "type": "function"
    },
    {
      "inputs": [],
      "name": "pause",
      "outputs": [],
      "stateMutability": "nonpayable",
      "type": "function"
    },
    {
      "inputs": [],
      "name": "paused",
      "outputs": [
        {
          "internalType": "bool",
          "name": "",
          "type": "bool"
        }
      ],
      "stateMutability": "view",
      "type": "function"
    },
    {
      "inputs": [],
      "name": "periodList",
      "outputs": [
        {
          "internalType": "uint256[]",
          "name": "_period",
          "type": "uint256[]"
        },
        {
          "internalType": "uint256[]",
          "name": "_interestRate",
          "type": "uint256[]"
        },
        {
          "internalType": "uint256[]",
          "name": "_totalActiveStaking",
          "type": "uint256[]"
        },
        {
          "internalType": "uint256[]",
          "name": "_totalActiveStakeAmount",
          "type": "uint256[]"
        },
        {
          "internalType": "uint256[]",
          "name": "_totalLockedAmount",
          "type": "uint256[]"
        },
        {
          "internalType": "bool[]",
          "name": "_isActive",
          "type": "bool[]"
        }
      ],
      "stateMutability": "view",
      "type": "function"
    },
    {
      "inputs": [],
      "name": "personalMinStake",
      "outputs": [
        {
          "internalType": "uint256",
          "name": "",
          "type": "uint256"
        }
      ],
      "stateMutability": "view",
      "type": "function"
    },
    {
      "inputs": [],
      "name": "poolMetrics",
      "outputs": [
        {
          "internalType": "uint256",
          "name": "totalPoolStaked",
          "type": "uint256"
        },
        {
          "internalType": "uint256",
          "name": "totalLocked",
          "type": "uint256"
        },
        {
          "internalType": "uint256",
          "name": "totalActiveStaked",
          "type": "uint256"
        },
        {
          "internalType": "uint256",
          "name": "totalWithdrawnStaked",
          "type": "uint256"
        },
        {
          "internalType": "uint256",
          "name": "totalDistributedInterest",
          "type": "uint256"
        }
      ],
      "stateMutability": "view",
      "type": "function"
    },
    {
      "inputs": [],
      "name": "renounceOwnership",
      "outputs": [],
      "stateMutability": "nonpayable",
      "type": "function"
    },
    {
      "inputs": [
        {
          "internalType": "uint256",
          "name": "_stakeId",
          "type": "uint256"
        },
        {
          "internalType": "uint256",
          "name": "exp",
          "type": "uint256"
        },
        {
          "internalType": "bytes",
          "name": "sig",
          "type": "bytes"
        }
      ],
      "name": "requestWithdrawPrincipal",
      "outputs": [],
      "stateMutability": "nonpayable",
      "type": "function"
    },
    {
      "inputs": [],
      "name": "signer",
      "outputs": [
        {
          "internalType": "address",
          "name": "",
          "type": "address"
        }
      ],
      "stateMutability": "view",
      "type": "function"
    },
    {
      "inputs": [
        {
          "internalType": "enum StableStaking.UserType",
          "name": "_userType",
          "type": "uint8"
        },
        {
          "internalType": "uint256",
          "name": "_period",
          "type": "uint256"
        },
        {
          "internalType": "uint256",
          "name": "_stakedAmount",
          "type": "uint256"
        },
        {
          "internalType": "bool",
          "name": "_isTokenLocked",
          "type": "bool"
        },
        {
          "internalType": "uint256",
          "name": "exp",
          "type": "uint256"
        },
        {
          "internalType": "bytes",
          "name": "sig",
          "type": "bytes"
        }
      ],
      "name": "stake",
      "outputs": [],
      "stateMutability": "nonpayable",
      "type": "function"
    },
    {
      "inputs": [
        {
          "internalType": "address",
          "name": "",
          "type": "address"
        },
        {
          "internalType": "uint256",
          "name": "",
          "type": "uint256"
        }
      ],
      "name": "stakes",
      "outputs": [
        {
          "components": [
            {
              "internalType": "uint256",
              "name": "stakedAmount",
              "type": "uint256"
            },
            {
              "internalType": "uint256",
              "name": "lockedAmount",
              "type": "uint256"
            }
          ],
          "internalType": "struct StableStaking.StakeAmounts",
          "name": "amounts",
          "type": "tuple"
        },
        {
          "components": [
            {
              "internalType": "uint256",
              "name": "stakingDate",
              "type": "uint256"
            },
            {
              "internalType": "uint256",
              "name": "stakingEndDate",
              "type": "uint256"
            },
            {
              "internalType": "uint256",
              "name": "principalWithdrawRequestTimestamp",
              "type": "uint256"
            },
            {
              "internalType": "uint256",
              "name": "principalWithdrawTimestamp",
              "type": "uint256"
            },
            {
              "internalType": "uint256",
              "name": "stakingPeriod",
              "type": "uint256"
            },
            {
              "internalType": "uint256",
              "name": "baseInterest",
              "type": "uint256"
            },
            {
              "internalType": "uint256",
              "name": "additionalInterest",
              "type": "uint256"
            },
            {
              "internalType": "uint256",
              "name": "monthlyInterest",
              "type": "uint256"
            },
            {
              "internalType": "uint256",
              "name": "interestLimiter",
              "type": "uint256"
            },
            {
              "internalType": "enum StableStaking.Tier",
              "name": "tier",
              "type": "uint8"
            },
            {
              "internalType": "bool",
              "name": "tokenLocked",
              "type": "bool"
            },
            {
              "internalType": "bool",
              "name": "closed",
              "type": "bool"
            },
            {
              "internalType": "bool",
              "name": "withdrawn",
              "type": "bool"
            }
          ],
          "internalType": "struct StableStaking.StakeMeta",
          "name": "meta",
          "type": "tuple"
        }
      ],
      "stateMutability": "view",
      "type": "function"
    },
    {
      "inputs": [
        {
          "internalType": "uint256",
          "name": "",
          "type": "uint256"
        }
      ],
      "name": "stakingPeriods",
      "outputs": [
        {
          "internalType": "uint256",
          "name": "period",
          "type": "uint256"
        },
        {
          "internalType": "uint256",
          "name": "interestRate",
          "type": "uint256"
        },
        {
          "internalType": "uint256",
          "name": "totalActiveStaking",
          "type": "uint256"
        },
        {
          "internalType": "uint256",
          "name": "totalActiveStakeAmount",
          "type": "uint256"
        },
        {
          "internalType": "uint256",
          "name": "totalLockedAmount",
          "type": "uint256"
        },
        {
          "internalType": "uint256",
          "name": "limiter",
          "type": "uint256"
        },
        {
          "internalType": "bool",
          "name": "exists",
          "type": "bool"
        }
      ],
      "stateMutability": "view",
      "type": "function"
    },
    {
      "inputs": [],
      "name": "stakingPoolAndReward",
      "outputs": [
        {
          "internalType": "address",
          "name": "",
          "type": "address"
        }
      ],
      "stateMutability": "view",
      "type": "function"
    },
    {
      "inputs": [],
      "name": "stakingToken",
      "outputs": [
        {
          "internalType": "contract IERC20",
          "name": "",
          "type": "address"
        }
      ],
      "stateMutability": "view",
      "type": "function"
    },
    {
      "inputs": [
        {
          "internalType": "uint256",
          "name": "",
          "type": "uint256"
        }
      ],
      "name": "tierCategories",
      "outputs": [
        {
          "internalType": "string",
          "name": "",
          "type": "string"
        }
      ],
      "stateMutability": "view",
      "type": "function"
    },
    {
      "inputs": [],
      "name": "tokenLock",
      "outputs": [
        {
          "internalType": "contract ITokenLock",
          "name": "",
          "type": "address"
        }
      ],
      "stateMutability": "view",
      "type": "function"
    },
    {
      "inputs": [
        {
          "internalType": "address",
          "name": "",
          "type": "address"
        }
      ],
      "name": "tokenLocked",
      "outputs": [
        {
          "internalType": "uint256",
          "name": "stakeId",
          "type": "uint256"
        },
        {
          "internalType": "uint256",
          "name": "lockedAmount",
          "type": "uint256"
        }
      ],
      "stateMutability": "view",
      "type": "function"
    },
    {
      "inputs": [],
      "name": "totalActiveStaked",
      "outputs": [
        {
          "internalType": "uint256",
          "name": "",
          "type": "uint256"
        }
      ],
      "stateMutability": "view",
      "type": "function"
    },
    {
      "inputs": [],
      "name": "totalLockedAmount",
      "outputs": [
        {
          "internalType": "uint256",
          "name": "",
          "type": "uint256"
        }
      ],
      "stateMutability": "view",
      "type": "function"
    },
    {
      "inputs": [],
      "name": "totalMaxStakingPool",
      "outputs": [
        {
          "internalType": "uint256",
          "name": "",
          "type": "uint256"
        }
      ],
      "stateMutability": "view",
      "type": "function"
    },
    {
      "inputs": [],
      "name": "totalRewardDistribution",
      "outputs": [
        {
          "internalType": "uint256",
          "name": "",
          "type": "uint256"
        }
      ],
      "stateMutability": "view",
      "type": "function"
    },
    {
      "inputs": [],
      "name": "totalStakedAmount",
      "outputs": [
        {
          "internalType": "uint256",
          "name": "",
          "type": "uint256"
        }
      ],
      "stateMutability": "view",
      "type": "function"
    },
    {
      "inputs": [
        {
          "internalType": "address",
          "name": "newOwner",
          "type": "address"
        }
      ],
      "name": "transferOwnership",
      "outputs": [],
      "stateMutability": "nonpayable",
      "type": "function"
    },
    {
      "inputs": [],
      "name": "unpause",
      "outputs": [],
      "stateMutability": "nonpayable",
      "type": "function"
    },
    {
      "inputs": [
        {
          "internalType": "enum StableStaking.Tier",
          "name": "_tier",
          "type": "uint8"
        },
        {
          "internalType": "uint256",
          "name": "_newInterestPPM",
          "type": "uint256"
        }
      ],
      "name": "updateAdditionalInterestForTier",
      "outputs": [],
      "stateMutability": "nonpayable",
      "type": "function"
    },
    {
      "inputs": [
        {
          "internalType": "uint256",
          "name": "_newBondingPeriod",
          "type": "uint256"
        }
      ],
      "name": "updateBondingPeriod",
      "outputs": [],
      "stateMutability": "nonpayable",
      "type": "function"
    },
    {
      "inputs": [
        {
          "internalType": "uint256",
          "name": "_newMinStake",
          "type": "uint256"
        }
      ],
      "name": "updateInstitutionalMinStake",
      "outputs": [],
      "stateMutability": "nonpayable",
      "type": "function"
    },
    {
      "inputs": [
        {
          "internalType": "bool",
          "name": "_status",
          "type": "bool"
        }
      ],
      "name": "updateLockMode",
      "outputs": [],
      "stateMutability": "nonpayable",
      "type": "function"
    },
    {
      "inputs": [
        {
          "internalType": "address",
          "name": "_newAddress",
          "type": "address"
        }
      ],
      "name": "updateLockingPool",
      "outputs": [],
      "stateMutability": "nonpayable",
      "type": "function"
    },
    {
      "inputs": [
        {
          "internalType": "address",
          "name": "_newAddress",
          "type": "address"
        }
      ],
      "name": "updateLockingToken",
      "outputs": [],
      "stateMutability": "nonpayable",
      "type": "function"
    },
    {
      "inputs": [
        {
          "internalType": "enum StableStaking.Tier",
          "name": "_tier",
          "type": "uint8"
        },
        {
          "internalType": "uint256",
          "name": "_newMaxStake",
          "type": "uint256"
        }
      ],
      "name": "updateMaxStakeForTier",
      "outputs": [],
      "stateMutability": "nonpayable",
      "type": "function"
    },
    {
      "inputs": [
        {
          "internalType": "uint256",
          "name": "_newMinStake",
          "type": "uint256"
        }
      ],
      "name": "updatePersonalMinStake",
      "outputs": [],
      "stateMutability": "nonpayable",
      "type": "function"
    },
    {
      "inputs": [
        {
          "internalType": "uint256",
          "name": "_period",
          "type": "uint256"
        },
        {
          "internalType": "uint256",
          "name": "_interestRate",
          "type": "uint256"
        },
        {
          "internalType": "uint256",
          "name": "_limiter",
          "type": "uint256"
        }
      ],
      "name": "updateStakingPeriod",
      "outputs": [],
      "stateMutability": "nonpayable",
      "type": "function"
    },
    {
      "inputs": [
        {
          "internalType": "address",
          "name": "_newAddress",
          "type": "address"
        }
      ],
      "name": "updateStakingPoolAndReward",
      "outputs": [],
      "stateMutability": "nonpayable",
      "type": "function"
    },
    {
      "inputs": [
        {
          "internalType": "address",
          "name": "_newAddress",
          "type": "address"
        }
      ],
      "name": "updateStakingToken",
      "outputs": [],
      "stateMutability": "nonpayable",
      "type": "function"
    },
    {
      "inputs": [
        {
          "internalType": "enum StableStaking.Tier",
          "name": "tier",
          "type": "uint8"
        },
        {
          "internalType": "uint256",
          "name": "value",
          "type": "uint256"
        }
      ],
      "name": "updateThreshold",
      "outputs": [],
      "stateMutability": "nonpayable",
      "type": "function"
    },
    {
      "inputs": [
        {
          "internalType": "uint256",
          "name": "_newMax",
          "type": "uint256"
        }
      ],
      "name": "updateTotalMaxStakingPool",
      "outputs": [],
      "stateMutability": "nonpayable",
      "type": "function"
    },
    {
      "inputs": [
        {
          "internalType": "uint256",
          "name": "_newWithdrawalPeriod",
          "type": "uint256"
        }
      ],
      "name": "updateWithdrawalPeriod",
      "outputs": [],
      "stateMutability": "nonpayable",
      "type": "function"
    },
    {
      "inputs": [
        {
          "internalType": "bytes",
          "name": "",
          "type": "bytes"
        }
      ],
      "name": "usedSig",
      "outputs": [
        {
          "internalType": "bool",
          "name": "",
          "type": "bool"
        }
      ],
      "stateMutability": "view",
      "type": "function"
    },
    {
      "inputs": [
        {
          "internalType": "address",
          "name": "",
          "type": "address"
        }
      ],
      "name": "users",
      "outputs": [
        {
          "internalType": "enum StableStaking.UserType",
          "name": "userType",
          "type": "uint8"
        },
        {
          "internalType": "uint256",
          "name": "totalStaked",
          "type": "uint256"
        },
        {
          "internalType": "uint256",
          "name": "totalLocked",
          "type": "uint256"
        },
        {
          "internalType": "uint256",
          "name": "stakeCount",
          "type": "uint256"
        }
      ],
      "stateMutability": "view",
      "type": "function"
    },
    {
      "inputs": [
        {
          "internalType": "uint256",
          "name": "_stakeId",
          "type": "uint256"
        },
        {
          "internalType": "uint256[]",
          "name": "_months",
          "type": "uint256[]"
        },
        {
          "internalType": "uint256[]",
          "name": "_interests",
          "type": "uint256[]"
        },
        {
          "internalType": "uint256",
          "name": "exp",
          "type": "uint256"
        },
        {
          "internalType": "bytes",
          "name": "sig",
          "type": "bytes"
        }
      ],
      "name": "withdrawInterest",
      "outputs": [],
      "stateMutability": "nonpayable",
      "type": "function"
    },
    {
      "inputs": [
        {
          "internalType": "uint256",
          "name": "_stakeId",
          "type": "uint256"
        },
        {
          "internalType": "uint256",
          "name": "exp",
          "type": "uint256"
        },
        {
          "internalType": "bytes",
          "name": "sig",
          "type": "bytes"
        }
      ],
      "name": "withdrawPrincipal",
      "outputs": [],
      "stateMutability": "nonpayable",
      "type": "function"
    },
    {
      "inputs": [],
      "name": "withdrawalPeriod",
      "outputs": [
        {
          "internalType": "uint256",
          "name": "",
          "type": "uint256"
        }
      ],
      "stateMutability": "view",
      "type": "function"
    },
    {
      "inputs": [
        {
          "internalType": "address",
          "name": "",
          "type": "address"
        }
      ],
      "name": "withdrawn",
      "outputs": [
        {
          "internalType": "uint256",
          "name": "lastWithdraw",
          "type": "uint256"
        }
      ],
      "stateMutability": "view",
      "type": "function"
    }
  ],
  "bytecode": "0x6080346200104657601f62006e2238819003918201601f19168301916001600160401b0383118484101762000cbd5780849260a09460405283398101031262001046576200004d816200108b565b906200005c602082016200108b565b906200006b604082016200108b565b6200008760806200007f606085016200108b565b93016200108b565b9233156200102d5760008054336001600160a01b0319821681178355916001600160a01b03909116907f8be0079c531659141344cd1fd0a4f28419497f9722a3daafe3b4186f6b6457e09080a360018055600360065560078055633b9aca00600855640ba43b740060095565048c27395000600a556040516001600160401b0360a082019081119082111762000cbd5760a08101604052620001286200106b565b60068152652737ba34b2b960d11b60208201528152620001476200106b565b600681526542726f6e7a6560d01b60208201526020820152620001696200106b565b600681526529b4b63b32b960d11b602082015260408201526200018b6200106b565b600481526311dbdb1960e21b60208201526060820152620001ab6200106b565b600381526205649560ec1b6020820152608082015260105460056010558060051062000f83575b506010600090815260008051602062006dc2833981519152915b6005821062000e515750506a01a784379d99db420000006011555069d3c21bcecceda10000006012556969e10de76676d080000060135569152d02c7e14af68000006014556000601555601854946001600160a01b0381161562000e0c576001600160a01b0382161562000dc7576001600160a01b0385161562000d9157600280546001600160a01b03199081166001600160a01b039384161790915560168054821693831693909317909255600380548316938216938417905560048054831690931790925560178054909116928216929092179091556001600160a81b031990921691161760185560007f97ea4a93fb5e400340102ffa4fa5d31ef170c1e583d2cb268c876db385f80bb08190556127107f2b59c9df127166d3570f589f0cb7377a6b175795e70ab275ebf42fa16c0a23f455613a987f914a2534c436de5a3f77164e6b9b90d20144139ce899b6a8d30a442e7b9ef53355614e207fbae8fb7bb9008c9bfa6625328b7613a2bedfb2f936a7718f51173039a77c107c8190557f1ae06646c6742a506302a1833f6c3f508643fd4c5dcb1e323706d5c3441af2985564012a05f2007f29ab76e7ca72530a8284597fb76b039d796325740b21528d71ade454c6f2dbe9556402540be4007f156774b33c8bc7cb83eda4cbc43b36c7c9490ff8913c488ccd5132cfc71344ea556405d21dba007f2c5f9a2e204d4db70ad0f9037679e33061b4c51a386497019bee969e16be28d755640ba43b74007f1ae1eab41a4db68d73559dd6c8b7ac16a4bc819634768486d35edbff05543abf5564e8d4a510007faf69f7ec271f94daa686978b3a96acf46914b99f1828a3f8265276d5eab630fa55338152601e602052604090205460ff16801562000d7c575b1562000d0b5760066000819052602260205260008051602062006d82833981519152541462000cd357620004a26200104b565b60068082526201117060208084019182526000604085018181526060860182815260808701838152600760a08901908152600160c08a01908152979094526022909452955160008051602062006d828339815191525592517ff8f21fb2982efe3a31ec241138d71e8537db6190870e16a264135221fd47ca735591517ff8f21fb2982efe3a31ec241138d71e8537db6190870e16a264135221fd47ca745592517ff8f21fb2982efe3a31ec241138d71e8537db6190870e16a264135221fd47ca755591517ff8f21fb2982efe3a31ec241138d71e8537db6190870e16a264135221fd47ca765590517ff8f21fb2982efe3a31ec241138d71e8537db6190870e16a264135221fd47ca7755517ff8f21fb2982efe3a31ec241138d71e8537db6190870e16a264135221fd47ca78805460ff191691151560ff169190911790556005546801000000000000000081101562000cbd57600181018060055581101562000ca75760069060056000526020600020015560008051602062006de283398151915260e060405160068152620111706020820152600660408201526001606082015260a06080820152600360a08201526218591960ea1b60c0820152a133600052601e60205260ff60406000205416801562000d67575b1562000d0b5760096000819052602260205260008051602062006e02833981519152541462000cd357620006ac6200104b565b60098082526201117060208084019182526000604085018181526060860182815260808701838152600a60a08901908152600160c08a01908152979094526022909452955160008051602062006e028339815191525592517f53c23bc3b4240c59c5ba52fce84c88a6eeda0f4d96b02e31c8a38c8cd3ba5f745591517f53c23bc3b4240c59c5ba52fce84c88a6eeda0f4d96b02e31c8a38c8cd3ba5f755592517f53c23bc3b4240c59c5ba52fce84c88a6eeda0f4d96b02e31c8a38c8cd3ba5f765591517f53c23bc3b4240c59c5ba52fce84c88a6eeda0f4d96b02e31c8a38c8cd3ba5f775590517f53c23bc3b4240c59c5ba52fce84c88a6eeda0f4d96b02e31c8a38c8cd3ba5f7855517f53c23bc3b4240c59c5ba52fce84c88a6eeda0f4d96b02e31c8a38c8cd3ba5f79805460ff191691151560ff169190911790556005546801000000000000000081101562000cbd57600181018060055581101562000ca75760099060056000526020600020015560008051602062006de283398151915260e060405160098152620111706020820152600960408201526001606082015260a06080820152600360a08201526218591960ea1b60c0820152a133600052601e60205260ff60406000205416801562000d52575b1562000d0b57600c600081905260226020527eec94cd6076f5d010620194cc66952562bc3ba027026bdd156000479a7754b1541462000cd357620008c66200104b565b600c8082526201117060208084019182526000604085018181526060860182815260808701838152600d60a08901908152600160c08a0190815297909452602290945295517eec94cd6076f5d010620194cc66952562bc3ba027026bdd156000479a7754b15592517eec94cd6076f5d010620194cc66952562bc3ba027026bdd156000479a7754b25591517eec94cd6076f5d010620194cc66952562bc3ba027026bdd156000479a7754b35592517eec94cd6076f5d010620194cc66952562bc3ba027026bdd156000479a7754b45591517eec94cd6076f5d010620194cc66952562bc3ba027026bdd156000479a7754b55590517eec94cd6076f5d010620194cc66952562bc3ba027026bdd156000479a7754b655517eec94cd6076f5d010620194cc66952562bc3ba027026bdd156000479a7754b7805460ff191691151560ff169190911790556005546801000000000000000081101562000cbd57600181018060055581101562000ca757600c9060056000526020600020015560008051602062006de283398151915260e0604051600c8152620111706020820152600c60408201526001606082015260a06080820152600360a08201526218591960ea1b60c0820152a133600052601e60205260ff60406000205416801562000d3d575b1562000d0b5760126000819052602260205260008051602062006da2833981519152541462000cd35762000ada6200104b565b60128082526201117060208084019182526000604085018181526060860182815260808701838152601360a08901908152600160c08a01908152979094526022909452955160008051602062006da28339815191525592517f02c9923117b6c8db1adc93f5d34fbe29142947517fb7558ac797d6caea3c526f5591517f02c9923117b6c8db1adc93f5d34fbe29142947517fb7558ac797d6caea3c52705592517f02c9923117b6c8db1adc93f5d34fbe29142947517fb7558ac797d6caea3c52715591517f02c9923117b6c8db1adc93f5d34fbe29142947517fb7558ac797d6caea3c52725590517f02c9923117b6c8db1adc93f5d34fbe29142947517fb7558ac797d6caea3c527355517f02c9923117b6c8db1adc93f5d34fbe29142947517fb7558ac797d6caea3c5274805460ff191691151560ff169190911790556005546801000000000000000081101562000cbd57600181018060055581101562000ca75760129060056000526020600020015560008051602062006de283398151915260e060405160128152620111706020820152601260408201526001606082015260a06080820152600360a08201526218591960ea1b60c0820152a1604051615c8b9081620010f78239f35b634e487b7160e01b600052603260045260246000fd5b634e487b7160e01b600052604160045260246000fd5b60405162461bcd60e51b815260206004820152601060248201526f2832b934b7b21034b99032bc34b9ba1760811b6044820152606490fd5b60405162461bcd60e51b815260206004820152600a60248201526941646d696e206f6e6c7960b01b6044820152606490fd5b506000546001600160a01b0316331462000aa7565b506000546001600160a01b0316331462000883565b506000546001600160a01b0316331462000679565b506000546001600160a01b031633146200046f565b60405162461bcd60e51b815260206004820152600e60248201526d24b73b30b634b21039b4b3b732b960911b6044820152606490fd5b60405162461bcd60e51b815260206004820152601460248201527f496e76616c6964207374616b696e6720706f6f6c0000000000000000000000006044820152606490fd5b60405162461bcd60e51b815260206004820152601560248201527f496e76616c6964207374616b696e6720746f6b656e00000000000000000000006044820152606490fd5b80518051906001600160401b03821162000cbd5762000e718554620010a0565b601f811162000f41575b50602090601f831160011462000ecc57928260019493602093869560009262000ec0575b5050600019600383901b1c191690841b1786555b01930191019091620001ec565b01519050388062000e9f565b908560005260206000209160005b601f198516811062000f28575083602093600196938796938794601f1981161062000f0e575b505050811b01865562000eb3565b015160001960f88460031b161c1916905538808062000f00565b9192602060018192868501518155019401920162000eda565b62000f7190866000526020600020601f850160051c8101916020861062000f78575b601f0160051c0190620010dd565b3862000e7b565b909150819062000f63565b601060005260008051602062006dc2833981519152907f1b6847dc741a1b0cd08d278845f9d819d87b734759afb55fe2de5cb82a9ae6775b818301811062000fcd575050620001d2565b8062000fdc60019254620010a0565b8062000feb575b500162000fbb565b601f81118314620010035750600081555b3862000fe3565b60009082825262001023601f60208420920160051c8201858301620010dd565b8183555562000ffc565b604051631e4fbdf760e01b815260006004820152602490fd5b600080fd5b6040519060e082016001600160401b0381118382101762000cbd57604052565b60408051919082016001600160401b0381118382101762000cbd57604052565b51906001600160a01b03821682036200104657565b90600182811c92168015620010d2575b6020831014620010bc57565b634e487b7160e01b600052602260045260246000fd5b91607f1691620010b0565b818110620010e9575050565b60008155600101620010dd56fe6080604052600436101561001257600080fd5b60003560e01c80630186e9251461047757806305a9f27414610472578063104ddf881461046d5780631069601f14610468578063238ac9331461046357806324d08a311461045e57806324d7806c1461045957806328f85daa146104545780633019bfd21461044f57806330fecfe91461044a57806339f1c84f146104455780633ca19d26146104405780633f4ba83a1461043b578063472540f9146104365780634a4bc9b714610431578063567e98f91461042c578063584b62a1146104275780635a536e39146104225780635c975abb1461041d5780635e5cedae146104185780636471af8314610413578063662a64d71461040e5780636ef61092146104095780636f0776ab14610404578063715018a6146103ff57806372f702f3146103fa57806378eeb34f146103f55780637e2ee7a6146103f057806383ad068c146103eb5780638456cb59146103e657806385d1e2b8146103e157806385fe753d146103dc5780638927921d146103d757806389fa2c03146103d25780638af92c93146103cd5780638b916973146103c85780638da5cb5b146103c357806397276519146103be578063996e81d2146103b95780639973699c146103b45780639b0fd43b146103af578063a5689926146103aa578063a5dc9713146103a5578063a68ea0b0146103a0578063a87430ba1461039b578063ac96058f14610396578063b4614d3114610391578063b769b10d1461038c578063b80e91e314610387578063b942f22614610382578063b97e1f781461037d578063bca7093d14610378578063c31c6fb914610373578063c418f3be1461036e578063c8cc498414610369578063ca1a56d614610364578063cc812b2e1461035f578063cca11e541461035a578063cd85235914610355578063cec346f614610350578063d03c19281461034b578063d41750ad14610346578063d42a1bb314610341578063e49d12321461033c578063e718234d14610337578063f2fde38b14610332578063f6131f881461032d578063fb73653214610328578063fbd01a98146103235763fcecc4df1461031e57600080fd5b6138be565b613884565b613866565b61383b565b6137b3565b61378a565b61376c565b61374e565b613730565b613523565b613477565b613459565b61343b565b613310565b6132f2565b6132af565b613289565b61326b565b61324d565b61322f565b613211565b61318d565b6130d2565b61304e565b612fba565b612f51565b612c16565b612b6d565b612a44565b6129e1565b61276b565b6126a5565b6122cf565b612274565b612190565b61211e565b612092565b612074565b611c6f565b611b8a565b611ab6565b6119ca565b6119ac565b611971565b61192a565b6118cf565b6118a6565b61186c565b611754565b611593565b6113d8565b611398565b6112dc565b6111d3565b611062565b610ef9565b610dfa565b610d0a565b610be6565b610a97565b610a5e565b6109db565b61089a565b61078f565b610675565b61064c565b6105af565b6104c3565b6104a5565b346104a05760003660031901126104a0576003546040516001600160a01b039091168152602090f35b600080fd5b346104a05760003660031901126104a0576020600c54604051908152f35b346104a05760403660031901126104a057600435600080516020615c36833981519152602435600092808452602260205261050381604086205414613f44565b808452602260205281600160408620600681018260ff19825416179055015561057d600561053b836000526022602052604060002090565b0154604051938493849160e093918352602083015260408201526000606082015260a06080820152600660a082015265656e61626c6560d01b60c08201520190565b0390a180f35b600435906001600160a01b03821682036104a057565b602435906001600160a01b03821682036104a057565b346104a05760203660031901126104a0577f56ed4188dac481fe0aa73a79d3c610e13c11a3f1d7d6a58486d4c2a51b6501f060206001600160a01b03610623816105f7610583565b169161060483151561399d565b33600052601e845260ff6040600020541690811561063e575b5061392a565b601680546001600160a01b03191682179055604051908152a1005b90506000541633143861061d565b346104a05760003660031901126104a0576018546040516001600160a01b039091168152602090f35b346104a05760203660031901126104a05761068e610583565b33600052601e60205260ff60406000205416801561077b575b6106b09061392a565b6001600160a01b0390808216801561073657600380546001600160a01b039283166001600160a01b0319808316821790935560048054909316179091557f93ea60c240a338503c872d60a198f0b7b5664dfde6fd3402ddaf75e986bcaa459316165b604080516001600160a01b039283168152929091166020830152819081015b0390a1005b60405162461bcd60e51b815260206004820152601d60248201527f496e76616c6964206c6f636b696e6720746f6b656e20616464726573730000006044820152606490fd5b506000546001600160a01b031633146106a7565b346104a05760203660031901126104a0576001600160a01b036107b0610583565b16600052601e602052602060ff604060002054166040519015158152f35b90815180825260208080930193019160005b8281106107ee575050505090565b8351855293810193928101926001016107e0565b9361084261085e946108346108256108509599969960c08a5260c08a01906107ce565b6020998982038b8b01526107ce565b9087820360408901526107ce565b9085820360608701526107ce565b9083820360808501526107ce565b9060a081830391015281808451928381520193019160005b828110610884575050505090565b8351151585529381019392810192600101610876565b346104a05760003660031901126104a0576108b3613f87565b6108bb613f87565b6108c3613f87565b916108cc613f87565b6108d4613f87565b6108dc613f87565b9160009586600554905b8181106109155750508685528686528681528682528683529583526040519586956109119587610802565b0390f35b61092b61092182610ac9565b90549060031b1c90565b61093f816000526022602052604060002090565b908154610957575b505061095290613fb4565b6108e6565b996109ce6109bd60066109d394610952969e610973868f613fc3565b528d61098486600184015492613fc3565b526002810154610994868b613fc3565b5260038101546109a4868c613fc3565b5260048101546109b4868d613fc3565b52015460ff1690565b6109c7838b613fc3565b9015159052565b613fb4565b989038610947565b346104a05760003660031901126104a0576020600a54604051908152f35b6004359060058210156104a057565b634e487b7160e01b600052602160045260246000fd5b60051115610a2857565b610a08565b6005811015610a28576000526021602052604060002090565b6005811015610a285760005260208052604060002090565b346104a05760203660031901126104a057610a776109f9565b6005811015610a2857600052602080526020604060002054604051908152f35b346104a05760003660031901126104a057602060405160048152f35b634e487b7160e01b600052603260045260246000fd5b600554811015610b005760056000527f036b6384b5eca791c62761152d0c79bb0604c104a5fb6f4eb0703f3154bb3db00190600090565b610ab3565b634e487b7160e01b600052604160045260246000fd5b604081019081106001600160401b03821117610b3657604052565b610b05565b6001600160401b038111610b3657604052565b60a081019081106001600160401b03821117610b3657604052565b90601f801991011681019081106001600160401b03821117610b3657604052565b60005b838110610b9d5750506000910152565b8181015183820152602001610b8d565b90602091610bc681518092818552858086019101610b8a565b601f01601f1916010190565b906020610be3928181520190610bad565b90565b346104a0576020806003193601126104a057600435906010548210156104a057600091601083527f1b6847dc741a1b0cd08d278845f9d819d87b734759afb55fe2de5cb82a9ae6720160405192809282549160019083821c94828516948515610d00575b8487108614610cec578689526020890195908115610cc95750600114610c87575b61091188610c7b818a0382610b69565b60405191829182610bd2565b610c9b919650949394600052602060002090565b838610610cb85750505091019050610c7b82610911388080610c6b565b805485870152948201948101610c9b565b60ff19168652505050505090151560051b019050610c7b82610911388080610c6b565b634e487b7160e01b83526022600452602483fd5b95607f1695610c4a565b346104a057600080600319360112610df757338152601e60205260ff6040822054168015610de4575b610d3c9061392a565b805460ff8160a01c1615610dd25760ff60a01b191681556040513381527f5db9ee0a495bf2e6ff9c91a7834c1ba4fdd244a5e8aa4e537bd38aeae4b073aa90602090a16040805181815260089181019190915267155b9c185d5cd95960c21b60608201523360208201527f5cd6ed9d06148b618fc97718f936e3ba1cba4645046d1ea2b147f4178f6dc7ee90806080810161057d565b604051638dfc202b60e01b8152600490fd5b5080546001600160a01b03163314610d33565b80fd5b346104a05760403660031901126104a057610e136109f9565b60243533600052601e60205260ff604060002054168015610ee5575b610e389061392a565b61271081101580610ed8575b15610e85578181610e757f69cd209021d9d421cbd8bfb6307f1c2a7762644768a670f831c88ba714d8a5a094610a2d565b5561073160405192839283613984565b60405162461bcd60e51b815260206004820152602560248201527f496e746572657374206d757374206265206265747765656e20312520616e6420604482015264189818129760d91b6064820152608490fd5b50620f4240811115610e44565b506000546001600160a01b03163314610e2f565b346104a05760403660031901126104a057610f126109f9565b60243533600052601e60205260ff60406000205416801561104e575b610f379061392a565b610f4082610a1e565b60048203610f7057600080516020615c1683398151915291610f6182601155565b61073160405192839283613984565b610f7982610a1e565b60038203610f9f57600080516020615c1683398151915291610f9a82601255565b610f61565b610fa882610a1e565b60028203610fc957600080516020615c1683398151915291610f9a82601355565b610fd282610a1e565b60018203610ff357600080516020615c1683398151915291610f9a82601455565b610ffc82610a1e565b8161101a57600080516020615c1683398151915291610f9a82601555565b60405162461bcd60e51b815260206004820152600c60248201526b24b73b30b634b2103a34b2b960a11b6044820152606490fd5b506000546001600160a01b03163314610f2e565b346104a05760003660031901126104a0576020600b54604051908152f35b604051906101a082018281106001600160401b03821117610b3657604052565b6040519061010082018281106001600160401b03821117610b3657604052565b6040519060e082018281106001600160401b03821117610b3657604052565b604051906110ec82610b1b565b565b604051906110ec82610b4e565b6005821015610a285752565b906005821015610a285752565b6101c06110ec92949360206101e08401968051855201516020840152805160408401526020810151606084015260408101516080840152606081015160a0840152608081015160c084015260a081015160e084015260c08101519061010091828501526111ca60e0820151926101209384870152820151926101409384870152820151926111a86101609485880190611107565b820151926111bd610180948588019015159052565b82015115156101a0860152565b01511515910152565b346104a0576040806003193601126104a0576001600160a01b036111f5610583565b16600052602560205280600020602435600052602052806000209061091181519161121f83610b1b565b83548352600184015460208401526112d260ff600b61123c611080565b9660028101548852600381015460208901526004810154858901526005810154606089015260068101546080890152600781015460a0890152600881015460c0890152600981015460e0890152600a81015461010089015201546112a682821661012089016110fb565b600881901c82161515610140880152601081901c8216151561016088015260181c161515610180860152565b5192839283611114565b346104a05760203660031901126104a05760043533600052601e60205260ff604060002054168015611384575b6113129061392a565b8015611349576020817f74994217d5a30ee9240e0d62df28a25a0c15bfdac2073f7c4e202a22c106743b92600955604051908152a1005b60405162461bcd60e51b81526020600482015260136024820152720496e73742e206d696e207374616b65203e203606c1b6044820152606490fd5b506000546001600160a01b03163314611309565b346104a05760003660031901126104a057602060ff60005460a01c166040519015158152f35b60609060031901126104a057600435906024359060443590565b346104a0576113e6366113be565b90600092338452601e60205260ff60408520541680156114f2575b61140a9061392a565b808452602260205261142181604086205414613f44565b61271082106114a25761057d8361144983600080516020615c36833981519152961015613e56565b836001611460856000526022602052604060002090565b0155604051938493849160e093918352602083015260408201526001606082015260a06080820152600660a08201526575706461746560d01b60c08201520190565b60405162461bcd60e51b815260206004820152602260248201527f496e7465726573742072617465206d757374206265206174206c656173742031604482015261129760f11b6064820152608490fd5b5083546001600160a01b03163314611401565b6020908181018282529160c080830194936000915b6005831061152b5750505050505090565b9091929394958480600192601f19898203018652895190611553825187835287830190610bad565b91838101518483015260408082015190830152606080820151908301526080808201519083015260a080910151910152980193019301919493929061151a565b346104a057600080600319360112610df7576115ad613bf3565b506115b6613bf3565b6115be6110ee565b906115c7613c80565b82526115d1613ca2565b91602092838201526115e1613cc4565b93604094858301526115f1613ce6565b60609081840152611600613d06565b91608092838501526116106110ee565b9080825260145487830152601354888301526012548383015260115484830152805b60ff8116600581101561172957908161164e6117089389613d36565b51611659828b613d36565b51526116658186613d36565b518a611671838c613d36565b510152600480821015611715576116a261169c61169661169086613d47565b60ff1690565b88613d36565b51613d59565b8c6116ad848d613d36565b5101525b810361170d576009545b866116c6838c613d36565b5101526116d281610a1e565b6116db81610a46565b54876116e7838c613d36565b51015260a06117006116f883610a2d565b54928b613d36565b510152613d25565b611632565b6008546116bb565b848c611721848d613d36565b5101526116b1565b8951806109118a82611505565b6004359081151582036104a057565b6064359081151582036104a057565b346104a05760203660031901126104a05761176d611736565b33600052601e60205260ff604060002054168015611858575b61178f9061392a565b60ff60185460a01c1690811515811515146117fe5760408051921515835281151560208401526117fc927f9ff47e99b03ff1cd41774dd605cb8fc609bb165027c9be89c94438447d0665469190a16018805460ff60a01b191691151560a01b60ff60a01b16919091179055565b005b60405162461bcd60e51b815260206004820152602c60248201527f4e657720737461747573206d757374206469666665722066726f6d207468652060448201526b31bab93932b73a1037b7329760a11b6064820152608490fd5b506000546001600160a01b03163314611786565b346104a05760203660031901126104a0576001600160a01b0361188d610583565b16600052601f6020526020604060002054604051908152f35b346104a05760003660031901126104a0576016546040516001600160a01b039091168152602090f35b346104a057600080600319360112610df7576118e96138fe565b80546001600160a01b03198116825581906001600160a01b03167f8be0079c531659141344cd1fd0a4f28419497f9722a3daafe3b4186f6b6457e08280a380f35b346104a05760003660031901126104a0576002546040516001600160a01b039091168152602090f35b6024359060028210156104a057565b6004359060028210156104a057565b346104a05760403660031901126104a057602061199d61198f610583565b611997611953565b90613ab1565b6119aa6040518092611107565bf35b346104a05760003660031901126104a0576020601254604051908152f35b346104a05760203660031901126104a0576119e3610583565b33600052601e60205260ff604060002054168015611aa2575b611a059061392a565b6001600160a01b03908082168015611a5d57600280546001600160a01b03929092166001600160a01b031983161790557f3a1f764da7f3bb44edabd2e0aa7de3aac2e4efd5dd4ce025e4493d60765951309216610712565b60405162461bcd60e51b815260206004820152601d60248201527f496e76616c6964207374616b696e6720746f6b656e20616464726573730000006044820152606490fd5b506000546001600160a01b031633146119fc565b346104a057600080600319360112610df757338152601e60205260ff6040822054168015611b77575b611ae89061392a565b611af0613963565b805460ff60a01b1916600160a01b1781556040513381527f62e78cea01bee320cd4e420270b5ea74000d11b0c9f74754ebdbfc544b05a25890602090a17f5cd6ed9d06148b618fc97718f936e3ba1cba4645046d1ea2b147f4178f6dc7ee608060405160408152600660408201526514185d5cd95960d21b6060820152336020820152a180f35b5080546001600160a01b03163314611adf565b346104a05760003660031901126104a0576017546040516001600160a01b039091168152602090f35b9080601f830112156104a0578135906001600160401b038211610b36578160051b60405193602093611be785840187610b69565b855283808601928201019283116104a0578301905b828210611c0a575050505090565b81358152908301908301611bfc565b81601f820112156104a0578035906001600160401b038211610b365760405192611c4d601f8401601f191660200185610b69565b828452602083830101116104a057816000926020809301838601378301015290565b346104a05760a03660031901126104a05760046001600160401b0381356024358281116104a057611ca39036908501611bb3565b906044358381116104a057611cbb9036908601611bb3565b926084359081116104a057611cd39036908601611c19565b90611cdc6140a5565b611ce983518551146158a8565b611cf5835115156158f4565b60405193611d9f611d92611d588560209889810190611d2e81611d208c8a606435918d33308a615937565b03601f198101835282610b69565b519020611d53611d4e611d4a611d4385612b47565b5460ff1690565b1590565b615981565b6140c8565b601854909590611d8d90611d7c906001600160a01b03165b6001600160a01b031690565b6001600160a01b03978816146159be565b612b47565b805460ff19166001179055565b336000908152602560205260409020611dc49083905b90600052602052604060002090565b336000908152601f60205260408120909690929091600191600280860192600a8101929185880191908101906009018c875b611f71575b50506002546001600160a01b03169550611e16945050505050565b6016546040516370a0823160e01b81526001600160a01b039091168982018181529099968316969084908390819003602001818a5afa968715611f4f57611e6d8a611e9d998795600091611f54575b50101561574c565b60408051636eb1769f60e11b81526001600160a01b038d1693810193845230602085015298899384928392910190565b03915afa908115611f4f577f5c97052360ff5eeacd5c494f4136773cd1c74e877e5aaf55f70bccba0522a19298611ee9898094611f1699611ef097600092611f22575b505010156157a2565b339161553b565b611f04611eff86600e54613aa4565b600e55565b42905560405193849342923386615afe565b0390a16117fc60018055565b611f419250803d10611f48575b611f398183610b69565b810190613a60565b3880611ee0565b503d611f2f565b613a6f565b611f6b9150863d8811611f4857611f398183610b69565b38611e65565b8c805182101561206e5781611f8591613fc3565b51809e8c611f938489613fc3565b5192839187548b54611fa491614620565b821115611fb0906159fb565b611fbb831515615a3f565b8654831115611fc990615a7e565b611fdd908990600052602052604060002090565b6000918252602052604090205415611ff490615abe565b611ffd91613aa4565b9e6120066110df565b918252428b8301526120228d8790600052602052604060002090565b600091825260205260409020815181556020909101516001909101556120528b8890600052602052604060002090565b805461205d90613a91565b905561206890613fb4565b87611df6565b50611dfb565b346104a05760003660031901126104a0576020600854604051908152f35b346104a05760403660031901126104a0576120ab610583565b60243590811515918281036104a0577f235bc17e7930760029e9f4d860a2a8089976de5b381cf8380fc11c1d88a11133926121116040936120ea6138fe565b60018060a01b03169283600052601e602052846000209060ff801983541691151516179055565b82519182526020820152a1005b346104a05760203660031901126104a057600435600052602260205260e060406000208054906001810154906002810154600382015460048301549160ff600660058601549501541694604051968752602087015260408601526060850152608084015260a0830152151560c0820152f35b346104a05760403660031901126104a0576121a96109f9565b60243590600091338352601e60205260ff6040842054168015612261575b6121d09061392a565b801561221d576005821015610a2857817f452344fbd1d25acb8a49bbb8e7f860d48cdd953c93cce2dd582305798fd4413b9284526020805281604085205561057d60405192839283613984565b606460405162461bcd60e51b815260206004820152602060248201527f4d6178207374616b65206d7573742062652067726561746572207468616e20306044820152fd5b5082546001600160a01b031633146121c7565b346104a05760003660031901126104a0576000546040516001600160a01b039091168152602090f35b60606003198201126104a0576004359160243591604435906001600160401b0382116104a057610be391600401611c19565b346104a0576122dd3661229d565b6122e89291926140a5565b6122f44284101561564c565b60409161238b611d9261235e8486519760209861234481611d208c8201948a3330889290606894926001600160601b0319809260601b16855260601b166014840152602883015260488201520190565b519020611d53612359611d4a611d4385612b47565b614029565b601854909490611d8d9061237a906001600160a01b0316611d70565b6001600160a01b0396871614614067565b3360009081526025602052604090206123a5908290611db5565b936123b28554151561568c565b6123f1600b86016123d860ff82546123ce828260101c166156cd565b60181c161561570e565b426005880155805463ff00000019166301000000179055565b6002546001600160a01b03166016549091848316916001600160a01b031686516370a0823160e01b8082526001600160a01b038316600483015294838280602481010381885afa918215611f4f57600092612686575b506124568a548093101561574c565b8851636eb1769f60e11b8082526001600160a01b0385166004830152306024830152959093908590859060449082905afa8015611f4f5783611ee9916124a696600091612669575b5010156157a2565b60018701948554612501575b87548654885133815260208101889052604081019290925260608201524260808201527f1d65af52435024a065e62826797c47678b6414a5ae82344be949d048063a2294908060a08101611f16565b336000908152602660205260409020859054036124b25733600090815260236020526040902093979294936002019061253b825433614b33565b60035460175489519a8b526001600160a01b0390811660048c018190529a9282168116979116919084826024818b5afa918215611f4f576125bc9886928d9260009561264a575b506125918754809610156157fa565b8c519081526001600160a01b0390921660048301523060248301529098899190829081906044820190565b03915afa918215611f4f577f1d65af52435024a065e62826797c47678b6414a5ae82344be949d048063a22949a611ee98361260895611f169b6000998a9261262d575b50501015615850565b33600090815260266020526040902082815560010182905555949091829190386124b2565b6126439250803d10611f4857611f398183610b69565b38806125ff565b612662919550843d8611611f4857611f398183610b69565b9338612582565b6126809150883d8a11611f4857611f398183610b69565b3861249e565b61269e919250843d8611611f4857611f398183610b69565b9038612447565b346104a05760203660031901126104a05760043533600052601e60205260ff604060002054168015612757575b6126db9061392a565b8015612712576020817f56024ab8c253971e7e06a0e0fa72b18210a81144ecb6d49519459af0841ff62292600a55604051908152a1005b60405162461bcd60e51b815260206004820152601760248201527f4d617820706f6f6c2063616e6e6f74206265207a65726f0000000000000000006044820152606490fd5b506000546001600160a01b031633146126d2565b346104a05760403660031901126104a0576004357fc3fb07ee6837c37dc1fa9f2f81abb66ce51de88406d90bd601f562c9417bf4946127a8610599565b600092338452601e60205260ff60408520541680156129ce575b6127cb9061392a565b6127d36140a5565b6001600160a01b03821660009081526025602052604090206127f6908290611db5565b612802815415156155c2565b61283a600b820161282361281e611d4a835460ff9060101c1690565b615602565b426004840155805462ff0000191662010000179055565b61284f61284a8254601954613d76565b601955565b601b5480156129c45761286461286991613d59565b601b55565b6001600160a01b0383166000908152602360205260409020815461289260018301918254613d76565b905560038101805480156129bc576128a990613d59565b905b556001600160a01b038416600090815260266020526040902054831461297a575b506128e26128dd8254600b54613d76565b600b55565b6128f56128f0600d5461563f565b600d55565b61294260036129396006840193600261291986546000526022602052604060002090565b01612924815461563f565b90555493546000526022602052604060002090565b01918254613d76565b9055604080516001600160a01b039390931683526020830191909152429082015260016060820152608090a161297760018055565b80f35b61298d6002612992920154601a54613d76565b601a55565b60018101546129b4600461293960068501546000526022602052604060002090565b9055386128cc565b5086906128ab565b5061286985612864565b5083546001600160a01b031633146127c2565b346104a05760203660031901126104a0577f986dedec011c0ee3d6c7c2f1cf3f3932f3b2ddb2fed8aaef283a76b97c10136560206001600160a01b03612a29816105f7610583565b601780546001600160a01b03191682179055604051908152a1005b346104a05760c03660031901126104a057612a5d611962565b602435604435612a6b611745565b6084359160a4356001600160401b0381116104a057612a8e903690600401611c19565b93612a97613963565b612a9f6140a5565b428410612b0d57612b0495612af3612acd87604051602081019061234481611d208c8c8c8c8c33308b613fd7565b601854612ae2906001600160a01b0316611d70565b6001600160a01b0390911614614067565b612aff611d9287612b47565b61431c565b6117fc60018055565b60405162461bcd60e51b815260206004820152601260248201527129b4b3b730ba3ab9329032bc3834b932b21760711b6044820152606490fd5b6020612b60918160405193828580945193849201610b8a565b8101602481520301902090565b346104a05760203660031901126104a0576004356001600160401b0381116104a05760ff612ba4611d8d6020933690600401611c19565b54166040519015158152f35b6020815281516020820152602082015160408201526040820151606082015260608201516080820152608082015160a082015260a082015160c082015260c082015160e0612c0b610100928383860152610120850190610bad565b930151151591015290565b346104a05760403660031901126104a057612c2f610583565b612c37611953565b90612c40615b35565b50600354612c56906001600160a01b0316611d70565b6040516370a0823160e01b8082526001600160a01b03841660048301529391602091908290829060249082905afa908115611f4f57600091612f2a575b50612ca681612ca186613b8c565b613aa4565b93612cb084612f47565b8315948580612f1e575b15612f155750612cd3612cce601254613a91565b613a1d565b90612cdd82610a46565b546001600160a01b038216600090815260236020526040902081906001015410612eea57506000945b6001600160a01b0382166000908152602360205260409020600101546004600052602080527faf69f7ec271f94daa686978b3a96acf46914b99f1828a3f8265276d5eab630fa5411612e99576000965b6002548690612d6d906001600160a01b0316611d70565b6040519a8b526001600160a01b03851660048c01528a9060249082905afa968715611f4f5761091199600098612e67575b50612df66003612def612dfc93612e3e9b9c612db989613b8c565b96612dcd612dc68c610a2d565b5499612f47565b15612e4a57506001600160a01b03909716600090815260236020526040902090565b0154613d68565b94615b85565b94612e0d60185460ff9060a01c1690565b96612e166110a0565b998a5289015260408801526060870152608086015260a085015260c0840152151560e0830152565b60405191829182612bb0565b9050966001600160a01b0316600090815260236020526040902090565b612e3e98506003612def612dfc93612e8e612df6948c8d3d10611f4857611f398183610b69565b9b5093505050612d9e565b7faf69f7ec271f94daa686978b3a96acf46914b99f1828a3f8265276d5eab630fa546001600160a01b0383166000908152602360205260409020612ee491906001905b015490613d76565b96612d56565b6001600160a01b0382166000908152602360205260409020612f0f9190600190612edc565b94612d06565b612cd390613a1d565b50601154811015612cba565b612f419150823d8411611f4857611f398183610b69565b38612c93565b60021115610a2857565b346104a05760203660031901126104a0576001600160a01b03612f72610583565b166000526023602052604060002060ff815416906001810154906003600282015491015490604051926002851015610a28576080948452602084015260408301526060820152f35b346104a05760203660031901126104a057600435600080516020615c3683398151915260e06000928084526022602052612ff981604086205414613f44565b80845260226020526005604085206006810160ff1981541690550154604051918252846020830152604082015283606082015260a06080820152600760a08201526664697361626c6560c81b60c0820152a180f35b346104a05760203660031901126104a0577f4157b30b99fc9ed1b54c707f60552f93b22a74b0859af295ae63994b387006ee602060043533600052601e825260ff6040600020541680156130be575b6130a69061392a565b6130b18115156139dc565b80600755604051908152a1005b506000546001600160a01b0316331461309d565b346104a05760203660031901126104a05760043533600052601e60205260ff604060002054168015613179575b6131089061392a565b801561313f576020817f0f0fc09e6eea3fcdbe3a446dccb57b373f13099cdcbd7db8123e629167e1a74b92600855604051908152a1005b60405162461bcd60e51b81526020600482015260126024820152710506572736f6e616c207374616b65203e20360741b6044820152606490fd5b506000546001600160a01b031633146130ff565b346104a05760203660031901126104a0577f7412027f2d81b758163c26c866f9ce4ab666a843e33bec6153fbc5032edd1bcc602060043533600052601e825260ff6040600020541680156131fd575b6131e59061392a565b6131f08115156139dc565b80600655604051908152a1005b506000546001600160a01b031633146131dc565b346104a05760003660031901126104a0576020600954604051908152f35b346104a05760003660031901126104a0576020600f54604051908152f35b346104a05760003660031901126104a0576020600754604051908152f35b346104a05760003660031901126104a0576020600654604051908152f35b346104a05760003660031901126104a057602060ff60185460a01c166040519015158152f35b346104a05760203660031901126104a0576001600160a01b036132d0610583565b1660005260266020526040806000206001815491015482519182526020820152f35b346104a05760003660031901126104a0576020601554604051908152f35b346104a057600080516020615c3683398151915261332d366113be565b929161057d600094338652601e60205260ff6040872054168015613428575b6133559061392a565b828652602260205261336d8360408820541415613dd9565b61337b612710851015613e18565b61338783821015613e56565b6133e261339382613a91565b61339b6110c0565b9085825286602083015288604083015288606083015288608083015260a08201526133c960c0820160019052565b6133dd856000526022602052604060002090565b613ea2565b6133eb83613ef7565b604051938493849160e093918352602083015260408201526001606082015260a06080820152600360a08201526218591960ea1b60c08201520190565b5085546001600160a01b0316331461334c565b346104a05760003660031901126104a0576020601354604051908152f35b346104a05760003660031901126104a0576020601154604051908152f35b346104a05760803660031901126104a0576004356024358082116134e657600c620f42406134a9606435604435613d9b565b0404906134b68284613d9b565b81156134e1576109119382036134d95750505b6040519081529081906020820190565b0490506134c9565b613dae565b60405162461bcd60e51b8152602060048201526015602482015274496e76616c6964206d617820746f74616c4461797360581b6044820152606490fd5b346104a0577f2be3911d886d970782ad921a540c17ef9df7517ec8a5df3c8daee950da46a7c9611f16612acd6135bb611d92611d8d6135613661229d565b809392969161356e6140a5565b61357a4282101561564c565b60405161234481611d2060208201948c3330889290606894926001600160601b0319809260601b16855260601b166014840152602883015260488201520190565b3360009081526025602052604090206135d5908290611db5565b6135e18154151561568c565b6135fd600b820161282361281e611d4a835460ff9060101c1690565b61360d61284a8254601954613d76565b601b5461362790600090801561372a576128649150613d59565b336000908152602360205260409020815461364760018301918254613d76565b90556003810180546000908015613723576136629150613d59565b905b553360009081526026602052604090205483146136e6575b5061368d6128dd8254600b54613d76565b61369b6128f0600d5461563f565b6136bf60036129396006840193600261291986546000526022602052604060002090565b90556040805133815260208101929092524290820152600160608201529081906080820190565b61298d60026136f9920154601a54613d76565b600181015461371b600461293960068501546000526022602052604060002090565b90553861367c565b5090613664565b50612864565b346104a05760003660031901126104a0576020601454604051908152f35b346104a05760203660031901126104a057602061199d600435613a1d565b346104a05760003660031901126104a0576020600d54604051908152f35b346104a05760003660031901126104a0576004546040516001600160a01b039091168152602090f35b346104a05760203660031901126104a0576137cc610583565b6137d46138fe565b6001600160a01b03908116801561382257600080546001600160a01b03198116831782559092167f8be0079c531659141344cd1fd0a4f28419497f9722a3daafe3b4186f6b6457e08380a380f35b604051631e4fbdf760e01b815260006004820152602490fd5b346104a05760203660031901126104a057602061385e6138596109f9565b614fdb565b604051908152f35b346104a05760003660031901126104a0576020600e54604051908152f35b346104a05760203660031901126104a05761389d6109f9565b6005811015610a285760005260216020526020604060002054604051908152f35b346104a05760003660031901126104a05760a0601954601a54601b54601c5490601d54926040519485526020850152604084015260608301526080820152f35b6000546001600160a01b0316330361391257565b60405163118cdaa760e01b8152336004820152602490fd5b1561393157565b60405162461bcd60e51b815260206004820152600a60248201526941646d696e206f6e6c7960b01b6044820152606490fd5b60ff60005460a01c1661397257565b60405163d93c066560e01b8152600490fd5b60209093929193613999816040810196611107565b0152565b156139a457565b60405162461bcd60e51b815260206004820152601060248201526f24b73b30b634b21030b2323932b9b99760811b6044820152606490fd5b156139e357565b60405162461bcd60e51b81526020600482015260126024820152710506572696f64206d757374206265203e20360741b6044820152606490fd5b601154811015613a5a57601254811015613a5457601354811015613a4e576014541115613a4957600090565b600190565b50600290565b50600390565b50600490565b908160209103126104a0575190565b6040513d6000823e3d90fd5b634e487b7160e01b600052601160045260246000fd5b9060018201809211613a9f57565b613a7b565b91908201809211613a9f57565b60035460009190613aca906001600160a01b0316611d70565b6040516370a0823160e01b81526001600160a01b03831660048201529190602090839060249082905afa918215611f4f57613b0f9392613b68575b50612ca190613b8c565b90613b1981612f47565b1580613b5c575b613b5057601154811015613a5a57601254811015613a5457601354811015613a4e576014541115613a4957600090565b50612cce601254613a91565b50601154811015613b20565b612ca1919250613b859060203d8111611f4857611f398183610b69565b9190613b05565b6004546000916001600160a01b039182169182613bac5750505050600090565b60246020926040519485938492633233126160e21b84521660048301525afa918215611f4f5791613bdb575090565b610be3915060203d8111611f4857611f398183610b69565b60408051613c0081610b4e565b809160005b60a09081811015613c5657825160c081018181106001600160401b03821117610b36576020936000918652816060808552818786015281888601528401528160808401528201528185015201613c05565b5050505090565b60405190602082018281106001600160401b03821117610b365760405260008252565b60405190613c8d82610b1b565b60068252652737aa34b2b960d11b6020830152565b60405190613caf82610b1b565b600682526542726f6e7a6560d01b6020830152565b60405190613cd182610b1b565b600682526529b4b63b32b960d11b6020830152565b60405190613cf382610b1b565b600482526311dbdb1960e21b6020830152565b60405190613d1382610b1b565b600382526205649560ec1b6020830152565b60ff1660ff8114613a9f5760010190565b906005811015610b005760051b0190565b60ff60019116019060ff8211613a9f57565b600019810191908211613a9f57565b6004039060048211613a9f57565b91908203918211613a9f57565b906201518091828102928184041490151715613a9f57565b81810292918115918404141715613a9f57565b634e487b7160e01b600052601260045260246000fd5b613dd4600c92620f424092613d9b565b040490565b15613de057565b60405162461bcd60e51b815260206004820152601060248201526f2832b934b7b21034b99032bc34b9ba1760811b6044820152606490fd5b15613e1f57565b60405162461bcd60e51b815260206004820152600f60248201526e24b73a32b932b9ba101f1e9018929760891b6044820152606490fd5b15613e5d57565b60405162461bcd60e51b815260206004820152601a60248201527f4c696d69746572206d757374206265203e3d20706572696f642e0000000000006044820152606490fd5b600660c06110ec93805184556020810151600185015560408101516002850155606081015160038501556080810151600485015560a081015160058501550151151591019060ff801983541691151516179055565b60055468010000000000000000811015610b36576001810180600555811015610b005760056000527f036b6384b5eca791c62761152d0c79bb0604c104a5fb6f4eb0703f3154bb3db00155565b15613f4b57565b60405162461bcd60e51b81526020600482015260146024820152732832b934b7b21034b9903737ba1032bc34b9ba1760611b6044820152606490fd5b604051906104c082018281106001600160401b03821117610b3657604052602582526104a0366020840137565b6000198114613a9f5760010190565b8051821015610b005760209160051b010190565b959391969492966001600160601b0319809260601b16875260601b1660148601526002861015610a2857608a9560f81b602886015260298501526049840152151560f81b6069830152606a8201520190565b1561403057565b60405162461bcd60e51b815260206004820152600f60248201526e29b4b3b730ba3ab932903ab9b2b21760891b6044820152606490fd5b1561406e57565b60405162461bcd60e51b815260206004820152600f60248201526e24b73b30b634b21039b4b3b732b91760891b6044820152606490fd5b6002600154146140b6576002600155565b604051633ee5aeb560e01b8152600490fd5b610be3916140d5916140de565b909291926141a8565b815191906041830361410f5761410892506020820151906060604084015193015160001a9061411a565b9192909190565b505060009160029190565b91907f7fffffffffffffffffffffffffffffff5d576e7357a4501ddfe92f46681b20a0841161419257926020929160ff608095604051948552168484015260408301526060820152600092839182805260015afa15611f4f5780516001600160a01b0381161561418957918190565b50809160019190565b50505060009160039190565b60041115610a2857565b6141b18161419e565b806141ba575050565b6141c38161419e565b600181036141dd5760405163f645eedf60e01b8152600490fd5b6141e68161419e565b600281036142075760405163fce698f760e01b815260048101839052602490fd5b8061421360039261419e565b1461421b5750565b6040516335e2f38360e21b81526004810191909152602490fd5b604051906101c082018281106001600160401b03821117610b3657604052816101a0600091828152826020820152826040820152826060820152826080820152606060a08201528260c08201528260e082015282610100820152826101208201528261014082015282610160820152826101808201520152565b6002821015610a285752565b97936110ec9b97936101609a96929e9d9b97936101808b019f60018060a01b03168b5260208b015260408a015260608901521515608088015260a087015260c086015260e08501526101008401526101208301526101408201520190611107565b9492909161432c828285896152a7565b61433533613b8c565b9261433e614235565b9261434988856142af565b60208401958287526040850190848252606086019861436a848b9015159052565b608087015260a086015261437e8342614620565b60c08601908152600083156145e757506003546143a3906001600160a01b0316611d70565b6040516370a0823160e01b81523360048201529790602090899060249082905afa908115611f4f577f68a6d318648ad7c402dd61d5f419cc4ce0b425c637ad34df3a0adfa2823a082c9b61441061454e9361458a9b6000916145c9575b505b6101408b0193818552613aa4565b906101608a0191825261442281612f47565b15806145bc575b156145aa575061444a614440612cce601254613a91565b6101808a016110fb565b60016144618b516000526022602052604060002090565b01549760e081019889526144b96101808201986144b360016144a961448f8d5161448a81610a1e565b610a2d565b549b61010087019c8d526000526022602052604060002090565b01548a5190613aa4565b90613dc4565b9561012082019687526144cd835133614ba2565b6144db865184519033615503565b6144f06144eb8451600c54613aa4565b600c55565b825133600090815260236020526040902061451090600201918254613aa4565b905561452261298d8451601a54613aa4565b61452c8233614d1e565b926101a083019384528161459f575b5061458f575b5051925198519951151590565b955193519051925193600561456d8b6000526022602052604060002090565b015495519661457b88610a1e565b6040519a8b9a4295338d6142bb565b0390a1565b6145999033614f2a565b38614541565b90505115153861453b565b6144406145b79151613a1d565b61444a565b5080516011541115614429565b6145e1915060203d8111611f4857611f398183610b69565b38614400565b61458a977f68a6d318648ad7c402dd61d5f419cc4ce0b425c637ad34df3a0adfa2823a082c9b61441061454e93614402565b156104a057565b9190620151808084049062010bd99160008382019384129112908015821691151617613a9f5761478f61478a6110ec9461465c6147989561480c565b9061469761467561466c846148d9565b62023ab1900590565b9261469161468a614685866148ea565b61482b565b6004900590565b906147f3565b9061477161476c61476561475f61474561473d6146df6146da6146cd6146c46146bf8c614848565b6148fd565b62164b09900590565b9961469161468a8c61490f565b614865565b61473861470d6146f96146f184614921565b61098f900590565b9261469161470685614932565b6050900590565b9961473861473361472d614724600b870596614882565b61469187614944565b9d6147a9565b614955565b6148bd565b958798613aa4565b9461475961475287613d59565b600c900490565b90613aa4565b93613d59565b600c900690565b613a91565b9161477c8383614a6a565b8091116147a1575b5061499f565b613d83565b90850690613aa4565b92831015614619565b925038614784565b906030198201918213600116613a9f57565b90600d198201918213600116613a9f57565b600119810191908213600116613a9f57565b9062253d8b198201918213600116613a9f57565b81810392916000138015828513169184121617613a9f57565b9062253d8c9160008382019384129112908015821691151617613a9f57565b9060038201916000600384129112908015821691151617613a9f57565b9060018201916000600184129112908015821691151617613a9f57565b90601f8201916000601f84129112908015821691151617613a9f57565b9060028201916000600284129112908015821691151617613a9f57565b906113249160008382019384129112908015821691151617613a9f57565b91909160008382019384129112908015821691151617613a9f57565b908160021b916004830503613a9f57565b9062023ab19180830292830503613a9f57565b90610fa09180830292830503613a9f57565b906105b59180830292830503613a9f57565b9081605002916050830503613a9f57565b9061098f9180830292830503613a9f57565b9081600c0291600c830503613a9f57565b9081606402916064830503613a9f57565b90600c820291808305600c1490151715613a9f57565b9061016f9180830292830503613a9f57565b9081600302916003830503613a9f57565b9190916107b281106104a057617d4a198201918213600116613a9f576112c09182820192831260008312908015821691151617613a9f5761468a614a60614a5986614a17614a10614a53614a4d614a2261469199614a1761468a610be39f614a659f614a17614a10614a1d936147bb565b600c900590565b906148bd565b61490f565b614a17614a10614a48614a34896147cd565b614691614a43614a108c6147bb565b614966565b61497c565b9861489f565b926147bb565b6064900590565b61498e565b6147df565b90600181148015614afc575b8015614af2575b8015614ae8575b8015614ade575b8015614ad4575b8015614aca575b15614aa5575050601f90565b600214614ab25750601e90565b614abb90614b06565b15614ac557601d90565b601c90565b50600c8114614a99565b50600a8114614a92565b5060088114614a8b565b5060078114614a84565b5060058114614a7d565b5060038114614a76565b60038116159081614b26575b8115614b1c575090565b6101909150061590565b6064810615159150614b12565b6004546001600160a01b0390811680614b4d575b50505050565b803b156104a05760009283606492604051968795869463457faf1d60e11b865216600485015260248401528160448401525af18015611f4f57614b93575b808080614b47565b614b9c90610b3b565b38614b8b565b6004546001600160a01b0390811680614bbb5750505050565b803b156104a05760009283606492604051968795869463457faf1d60e11b86521660048501526024840152600160448401525af18015611f4f57614b9357808080614b47565b906005811015610a285760ff80198354169116179055565b90614cec61018060096110ec94845181556020850151600182015560408501516002820155606085015160038201556080850151600482015560a0850151600582015560c0850151600682015560e0850151600782015561010085015160088201550192614c95610120820151614c8f81610a1e565b85614c01565b614cbc614ca6610140830151151590565b855461ff00191690151560081b61ff0016178555565b614ce5614ccd610160830151151590565b855462ff0000191690151560101b62ff000016178555565b0151151590565b815463ff000000191690151560181b63ff00000016179055565b906002811015610a285760ff80198354169116179055565b90600f54614d2b90613fb4565b91614d3583600f55565b6001600160a01b03811660009081526025602052604090208390600091825260205260409020604083019283519261014092838301948551614d756110df565b828152602001819052908255600182015560c0830151906020840194855160e08601519161010092838801519361012090818a015190614dbf866000526022602052604060002090565b600501549161018097888d0151958d614dd788610a1e565b60600151151598614de6611080565b9c8d4281526020015260408d016000905260608d016000905260808d015260a08c015260c08b015260e08a0152880152860190614e22916110fb565b9015159084015261016083016000905282016000905260020190614e4591614c19565b8451600b5490614e5491613aa4565b600b55600d54614e6390613fb4565b600d556001600160a01b031660009081526023602052604090209051614e8881612f47565b614e929082614d06565b83516001820190815490614ea591613aa4565b90556003018054614eb590613fb4565b905551614ecc906000526022602052604060002090565b90600282018054614edc90613fb4565b905582516003830190815490614ef191613aa4565b9055519060040190815490614f0591613aa4565b90555160195490614f1591613aa4565b601955601b54614f2490613fb4565b601b5590565b90614fa76110ec92600060018060a01b0382168152602560205260408120602660205260408220548252602052600360408220015460c0850151119050600014614fb8576101606101a0840151935b015160405193614f8885610b1b565b8452602084015260018060a01b03166000526026602052604060002090565b906020600191805184550151910155565b6001600160a01b0381166000908152602660205260409020610160905493614f79565b614fe481610a1e565b6004811461503957614ff581610a1e565b600381146150325761500681610a1e565b6002811461502b578061501a600192610a1e565b146150255760155490565b60145490565b5060135490565b5060125490565b5060115490565b1561504757565b60405162461bcd60e51b815260206004820152600e60248201526d125b9d985b1a59081c195c9a5bd960921b6044820152606490fd5b1561508457565b60405162461bcd60e51b8152602060048201526016602482015275141bdbdb08195e18d959591cc81b585e081b1a5b5a5d60521b6044820152606490fd5b156150c957565b60405162461bcd60e51b81526020600482015260146024820152730a6e8c2d6ca40c6deeadce840deeccae440dac2f60631b6044820152606490fd5b1561510c57565b60405162461bcd60e51b815260206004820152601b60248201527f496e737469747574696f6e616c207374616b6520746f6f206c6f7700000000006044820152606490fd5b1561515857565b60405162461bcd60e51b815260206004820152601160248201527045786365656473206d6178207374616b6560781b6044820152606490fd5b1561519857565b60405162461bcd60e51b815260206004820152601b60248201527f496e737469747574696f6e733a206d696e203132206d6f6e74687300000000006044820152606490fd5b156151e457565b60405162461bcd60e51b8152602060048201526016602482015275506572736f6e616c207374616b6520746f6f206c6f7760501b6044820152606490fd5b1561522957565b60405162461bcd60e51b8152602060048201526013602482015272151bdad95b881b1bd8dac81c995c5d5a5c9959606a1b6044820152606490fd5b1561526b57565b60405162461bcd60e51b8152602060048201526014602482015273416d6f756e742062656c6f77206d696e696d756d60601b6044820152606490fd5b9190916152d36152ce60066152c6866000526022602052604060002090565b015460ff1690565b615040565b6152ec6152e283600b54613aa4565b600a54101561507d565b3360009081526023602052604090206153169060049061530f9060030154613a91565b11156150c2565b61531f33613b8c565b600354909490615337906001600160a01b0316611d70565b6040516370a0823160e01b8082523360048301526020979295909290919088826024818a5afa908115611f4f57615376926000926154e4575b50613aa4565b9561538085612f47565b84159081806154d8575b156154cf5761539d612cce601254613a91565b956153a787610a46565b54926153b282612f47565b1561548b5750506153e66153ed926153ce6008548210156151dd565b33600090815260236020526040902060010154613aa4565b1115615151565b60185460a01c60ff16615403575b505050505050565b61540d8692615222565b60405190815233600482015292839060249082905afa918215611f4f5761545194600093615466575b505061544190614fdb565b119081159161545c575b50615264565b3880808080806153fb565b905015153861544b565b615441929350908161548392903d10611f4857611f398183610b69565b919038615436565b80615497600192612f47565b146154a5575b5050506153ed565b6154c0600c926153e66154c7956153ce600954821015615105565b1015615191565b38808061549d565b61539d88613a1d565b5060115488101561538a565b6154fc9192508a3d8c11611f4857611f398183610b69565b9038615370565b919061552160018060a01b039182600254168584601654169161553b565b8161552b57505050565b6110ec9281600354169160175416915b9260209160009160405190848201926323b872dd60e01b845260018060a01b039687809216602485015216604483015260648201526064815261557d81610b4e565b519082865af115613a6f576000513d6155b957508082163b155b61559f575050565b604051635274afe760e01b81529116600482015260249150fd5b60011415615597565b156155c957565b60405162461bcd60e51b815260206004820152601160248201527014dd185ada5b99c81b9bdd08199bdd5b99607a1b6044820152606490fd5b1561560957565b60405162461bcd60e51b815260206004820152600e60248201526d105b1c9958591e4818db1bdcd95960921b6044820152606490fd5b8015613a9f576000190190565b1561565357565b60405162461bcd60e51b815260206004820152601160248201527014da59db985d1d5c9948195e1c1a5c9959607a1b6044820152606490fd5b1561569357565b60405162461bcd60e51b815260206004820152601260248201527129ba30b5b4b733903737ba103337bab7321760711b6044820152606490fd5b156156d457565b60405162461bcd60e51b815260206004820152601260248201527114dd185ada5b99c81b9bdd0818db1bdcd95960721b6044820152606490fd5b1561571557565b60405162461bcd60e51b815260206004820152600f60248201526e105b1c9958591e4818db185a5b5959608a1b6044820152606490fd5b1561575357565b60405162461bcd60e51b815260206004820152602160248201527f496e73756666696369656e74207374616b696e6720706f6f6c2062616c616e636044820152606560f81b6064820152608490fd5b156157a957565b60405162461bcd60e51b815260206004820152602360248201527f496e73756666696369656e74207374616b696e6720706f6f6c20616c6c6f77616044820152626e636560e81b6064820152608490fd5b1561580157565b60405162461bcd60e51b815260206004820152602160248201527f496e73756666696369656e74206c6f636b696e6720706f6f6c2062616c616e636044820152606560f81b6064820152608490fd5b1561585757565b60405162461bcd60e51b815260206004820152602360248201527f496e73756666696369656e74206c6f636b696e6720706f6f6c20616c6c6f77616044820152626e636560e81b6064820152608490fd5b156158af57565b60405162461bcd60e51b815260206004820152601860248201527f4d69736d617463686564206172726179206c656e6774687300000000000000006044820152606490fd5b156158fb57565b60405162461bcd60e51b8152602060048201526014602482015273135a5b880c481b5bdb9d1a081c995c5d5a5c995960621b6044820152606490fd5b969594919361597c9361596e9260a096600180891b038092168b521660208a0152604089015260c0606089015260c08801906107ce565b9086820360808801526107ce565b930152565b1561598857565b60405162461bcd60e51b815260206004820152600e60248201526d14da59db985d1d5c99481d5cd95960921b6044820152606490fd5b156159c557565b60405162461bcd60e51b815260206004820152600e60248201526d24b73b30b634b21039b4b3b732b960911b6044820152606490fd5b15615a0257565b60405162461bcd60e51b815260206004820152601560248201527426b7b73a341032bc31b2b2b239903634b6b4ba32b960591b6044820152606490fd5b15615a4657565b60405162461bcd60e51b815260206004820152601060248201526f496e74657265737420746f6f206c6f7760801b6044820152606490fd5b15615a8557565b60405162461bcd60e51b8152602060048201526011602482015270092dce8cae4cae6e840e8dede40d0d2ced607b1b6044820152606490fd5b15615ac557565b60405162461bcd60e51b815260206004820152601160248201527020b63932b0b23c903bb4ba34323930bbb760791b6044820152606490fd5b9192608093615b2b929796959760018060a01b03168452602084015260a0604084015260a08301906107ce565b9460608201520152565b6040519061010082018281106001600160401b03821117610b36576040528160e06000918281528260208201528260408201528260608201528260808201528260a0820152606060c08201520152565b60405160a081018181106001600160401b03821117610b3657604052615ba9613c80565b8152615bb3613ca2565b6020820152615bc0613cc4565b6040820152615bcd613ce6565b6060820152615bda613d06565b60808201526005821015610a285760ff82169060058210615c0057505050610be3613c5d565b615c0c615c1193610a1e565b613d36565b519056fe80cea518455a986085f4564d8b3cee03f8e3ce2b7ce1bf395799c809067eb8d854035209dfce44ffdbe0900519a6c184a53b1d27aa4ca819580614dc904dd309a26469706673582212202a96df88dee2967205915d7de2c8b4bfb17ead179d93b6723e24c7bfb69aa40464736f6c63430008140033f8f21fb2982efe3a31ec241138d71e8537db6190870e16a264135221fd47ca7202c9923117b6c8db1adc93f5d34fbe29142947517fb7558ac797d6caea3c526e1b6847dc741a1b0cd08d278845f9d819d87b734759afb55fe2de5cb82a9ae67254035209dfce44ffdbe0900519a6c184a53b1d27aa4ca819580614dc904dd30953c23bc3b4240c59c5ba52fce84c88a6eeda0f4d96b02e31c8a38c8cd3ba5f73",
  "linkReferences": {},
  "deployedLinkReferences": {}
}