{
  "_format": "hh-sol-artifact-1",
  "contractName": "CERTIFICATE",
  "sourceName": "contracts/nft-minting-smart-contract.sol",
  "abi": [
    {
      "inputs": [],
      "stateMutability": "nonpayable",
      "type": "constructor"
    },
    {
      "inputs": [
        {
          "internalType": "address",
          "name": "sender",
          "type": "address"
        },
        {
          "internalType": "uint256",
          "name": "tokenId",
          "type": "uint256"
        },
        {
          "internalType": "address",
          "name": "owner",
          "type": "address"
        }
      ],
      "name": "ERC721IncorrectOwner",
      "type": "error"
    },
    {
      "inputs": [
        {
          "internalType": "address",
          "name": "operator",
          "type": "address"
        },
        {
          "internalType": "uint256",
          "name": "tokenId",
          "type": "uint256"
        }
      ],
      "name": "ERC721InsufficientApproval",
      "type": "error"
    },
    {
      "inputs": [
        {
          "internalType": "address",
          "name": "approver",
          "type": "address"
        }
      ],
      "name": "ERC721InvalidApprover",
      "type": "error"
    },
    {
      "inputs": [
        {
          "internalType": "address",
          "name": "operator",
          "type": "address"
        }
      ],
      "name": "ERC721InvalidOperator",
      "type": "error"
    },
    {
      "inputs": [
        {
          "internalType": "address",
          "name": "owner",
          "type": "address"
        }
      ],
      "name": "ERC721InvalidOwner",
      "type": "error"
    },
    {
      "inputs": [
        {
          "internalType": "address",
          "name": "receiver",
          "type": "address"
        }
      ],
      "name": "ERC721InvalidReceiver",
      "type": "error"
    },
    {
      "inputs": [
        {
          "internalType": "address",
          "name": "sender",
          "type": "address"
        }
      ],
      "name": "ERC721InvalidSender",
      "type": "error"
    },
    {
      "inputs": [
        {
          "internalType": "uint256",
          "name": "tokenId",
          "type": "uint256"
        }
      ],
      "name": "ERC721NonexistentToken",
      "type": "error"
    },
    {
      "inputs": [
        {
          "internalType": "address",
          "name": "owner",
          "type": "address"
        }
      ],
      "name": "OwnableInvalidOwner",
      "type": "error"
    },
    {
      "inputs": [
        {
          "internalType": "address",
          "name": "account",
          "type": "address"
        }
      ],
      "name": "OwnableUnauthorizedAccount",
      "type": "error"
    },
    {
      "inputs": [],
      "name": "ReentrancyGuardReentrantCall",
      "type": "error"
    },
    {
      "inputs": [
        {
          "internalType": "uint256",
          "name": "value",
          "type": "uint256"
        },
        {
          "internalType": "uint256",
          "name": "length",
          "type": "uint256"
        }
      ],
      "name": "StringsInsufficientHexLength",
      "type": "error"
    },
    {
      "anonymous": false,
      "inputs": [
        {
          "indexed": false,
          "internalType": "address",
          "name": "admin",
          "type": "address"
        },
        {
          "indexed": false,
          "internalType": "bool",
          "name": "isAdmin",
          "type": "bool"
        }
      ],
      "name": "AdminUpdated",
      "type": "event"
    },
    {
      "anonymous": false,
      "inputs": [
        {
          "indexed": false,
          "internalType": "address",
          "name": "allowedAddress",
          "type": "address"
        },
        {
          "indexed": false,
          "internalType": "bool",
          "name": "isAllowed",
          "type": "bool"
        }
      ],
      "name": "AllowedAddressUpdated",
      "type": "event"
    },
    {
      "anonymous": false,
      "inputs": [
        {
          "indexed": true,
          "internalType": "address",
          "name": "owner",
          "type": "address"
        },
        {
          "indexed": true,
          "internalType": "address",
          "name": "approved",
          "type": "address"
        },
        {
          "indexed": true,
          "internalType": "uint256",
          "name": "tokenId",
          "type": "uint256"
        }
      ],
      "name": "Approval",
      "type": "event"
    },
    {
      "anonymous": false,
      "inputs": [
        {
          "indexed": true,
          "internalType": "address",
          "name": "owner",
          "type": "address"
        },
        {
          "indexed": true,
          "internalType": "address",
          "name": "operator",
          "type": "address"
        },
        {
          "indexed": false,
          "internalType": "bool",
          "name": "approved",
          "type": "bool"
        }
      ],
      "name": "ApprovalForAll",
      "type": "event"
    },
    {
      "anonymous": false,
      "inputs": [
        {
          "indexed": false,
          "internalType": "string",
          "name": "parameterType",
          "type": "string"
        },
        {
          "indexed": false,
          "internalType": "uint256",
          "name": "previousValue",
          "type": "uint256"
        },
        {
          "indexed": false,
          "internalType": "uint256",
          "name": "newValue",
          "type": "uint256"
        }
      ],
      "name": "MintParameterUpdated",
      "type": "event"
    },
    {
      "anonymous": false,
      "inputs": [
        {
          "indexed": true,
          "internalType": "address",
          "name": "previousOwner",
          "type": "address"
        },
        {
          "indexed": true,
          "internalType": "address",
          "name": "newOwner",
          "type": "address"
        }
      ],
      "name": "OwnershipTransferred",
      "type": "event"
    },
    {
      "anonymous": false,
      "inputs": [
        {
          "indexed": false,
          "internalType": "address",
          "name": "account",
          "type": "address"
        }
      ],
      "name": "Paused",
      "type": "event"
    },
    {
      "anonymous": false,
      "inputs": [
        {
          "indexed": false,
          "internalType": "address",
          "name": "previousValue",
          "type": "address"
        },
        {
          "indexed": false,
          "internalType": "address",
          "name": "newValue",
          "type": "address"
        }
      ],
      "name": "PaymentPoolAddressUpdated",
      "type": "event"
    },
    {
      "anonymous": false,
      "inputs": [
        {
          "indexed": false,
          "internalType": "address",
          "name": "previousValue",
          "type": "address"
        },
        {
          "indexed": false,
          "internalType": "address",
          "name": "newValue",
          "type": "address"
        }
      ],
      "name": "PaymentTokenAddressUpdated",
      "type": "event"
    },
    {
      "anonymous": false,
      "inputs": [
        {
          "indexed": false,
          "internalType": "address",
          "name": "previousValue",
          "type": "address"
        },
        {
          "indexed": false,
          "internalType": "address",
          "name": "newValue",
          "type": "address"
        }
      ],
      "name": "RedeemUpdated",
      "type": "event"
    },
    {
      "anonymous": false,
      "inputs": [
        {
          "indexed": false,
          "internalType": "address",
          "name": "previousValue",
          "type": "address"
        },
        {
          "indexed": false,
          "internalType": "address",
          "name": "newValue",
          "type": "address"
        }
      ],
      "name": "StakingUpdated",
      "type": "event"
    },
    {
      "anonymous": false,
      "inputs": [
        {
          "indexed": true,
          "internalType": "address",
          "name": "from",
          "type": "address"
        },
        {
          "indexed": true,
          "internalType": "address",
          "name": "to",
          "type": "address"
        },
        {
          "indexed": true,
          "internalType": "uint256",
          "name": "tokenId",
          "type": "uint256"
        }
      ],
      "name": "Transfer",
      "type": "event"
    },
    {
      "anonymous": false,
      "inputs": [
        {
          "indexed": false,
          "internalType": "bool",
          "name": "previousValue",
          "type": "bool"
        },
        {
          "indexed": false,
          "internalType": "bool",
          "name": "newValue",
          "type": "bool"
        }
      ],
      "name": "TransferRestrictionUpdated",
      "type": "event"
    },
    {
      "anonymous": false,
      "inputs": [
        {
          "indexed": false,
          "internalType": "address",
          "name": "account",
          "type": "address"
        }
      ],
      "name": "Unpaused",
      "type": "event"
    },
    {
      "inputs": [
        {
          "internalType": "address",
          "name": "_admin",
          "type": "address"
        },
        {
          "internalType": "bool",
          "name": "_true",
          "type": "bool"
        }
      ],
      "name": "addOrRemoveAdmin",
      "outputs": [],
      "stateMutability": "nonpayable",
      "type": "function"
    },
    {
      "inputs": [
        {
          "internalType": "address",
          "name": "",
          "type": "address"
        }
      ],
      "name": "allowedAddresses",
      "outputs": [
        {
          "internalType": "bool",
          "name": "",
          "type": "bool"
        }
      ],
      "stateMutability": "view",
      "type": "function"
    },
    {
      "inputs": [
        {
          "internalType": "address",
          "name": "to",
          "type": "address"
        },
        {
          "internalType": "uint256",
          "name": "tokenId",
          "type": "uint256"
        }
      ],
      "name": "approve",
      "outputs": [],
      "stateMutability": "nonpayable",
      "type": "function"
    },
    {
      "inputs": [
        {
          "internalType": "address",
          "name": "owner",
          "type": "address"
        }
      ],
      "name": "balanceOf",
      "outputs": [
        {
          "internalType": "uint256",
          "name": "",
          "type": "uint256"
        }
      ],
      "stateMutability": "view",
      "type": "function"
    },
    {
      "inputs": [
        {
          "internalType": "uint256",
          "name": "tokenId",
          "type": "uint256"
        }
      ],
      "name": "getApproved",
      "outputs": [
        {
          "internalType": "address",
          "name": "",
          "type": "address"
        }
      ],
      "stateMutability": "view",
      "type": "function"
    },
    {
      "inputs": [
        {
          "internalType": "uint256",
          "name": "tokenId",
          "type": "uint256"
        }
      ],
      "name": "getSvg",
      "outputs": [
        {
          "internalType": "string",
          "name": "",
          "type": "string"
        }
      ],
      "stateMutability": "view",
      "type": "function"
    },
    {
      "inputs": [
        {
          "internalType": "address",
          "name": "",
          "type": "address"
        }
      ],
      "name": "isAdmin",
      "outputs": [
        {
          "internalType": "bool",
          "name": "",
          "type": "bool"
        }
      ],
      "stateMutability": "view",
      "type": "function"
    },
    {
      "inputs": [
        {
          "internalType": "address",
          "name": "owner",
          "type": "address"
        },
        {
          "internalType": "address",
          "name": "operator",
          "type": "address"
        }
      ],
      "name": "isApprovedForAll",
      "outputs": [
        {
          "internalType": "bool",
          "name": "",
          "type": "bool"
        }
      ],
      "stateMutability": "view",
      "type": "function"
    },
    {
      "inputs": [],
      "name": "isTransferRestricted",
      "outputs": [
        {
          "internalType": "bool",
          "name": "",
          "type": "bool"
        }
      ],
      "stateMutability": "view",
      "type": "function"
    },
    {
      "inputs": [],
      "name": "maxOwnership",
      "outputs": [
        {
          "internalType": "uint256",
          "name": "",
          "type": "uint256"
        }
      ],
      "stateMutability": "view",
      "type": "function"
    },
    {
      "inputs": [],
      "name": "maxToMint",
      "outputs": [
        {
          "internalType": "uint256",
          "name": "",
          "type": "uint256"
        }
      ],
      "stateMutability": "view",
      "type": "function"
    },
    {
      "inputs": [],
      "name": "minToMint",
      "outputs": [
        {
          "internalType": "uint256",
          "name": "",
          "type": "uint256"
        }
      ],
      "stateMutability": "view",
      "type": "function"
    },
    {
      "inputs": [
        {
          "internalType": "uint256",
          "name": "value",
          "type": "uint256"
        },
        {
          "internalType": "address",
          "name": "_address",
          "type": "address"
        },
        {
          "internalType": "uint256",
          "name": "_exp",
          "type": "uint256"
        },
        {
          "internalType": "bytes",
          "name": "_sig",
          "type": "bytes"
        }
      ],
      "name": "mint",
      "outputs": [],
      "stateMutability": "nonpayable",
      "type": "function"
    },
    {
      "inputs": [],
      "name": "name",
      "outputs": [
        {
          "internalType": "string",
          "name": "",
          "type": "string"
        }
      ],
      "stateMutability": "view",
      "type": "function"
    },
    {
      "inputs": [],
      "name": "owner",
      "outputs": [
        {
          "internalType": "address",
          "name": "",
          "type": "address"
        }
      ],
      "stateMutability": "view",
      "type": "function"
    },
    {
      "inputs": [
        {
          "internalType": "uint256",
          "name": "tokenId",
          "type": "uint256"
        }
      ],
      "name": "ownerOf",
      "outputs": [
        {
          "internalType": "address",
          "name": "",
          "type": "address"
        }
      ],
      "stateMutability": "view",
      "type": "function"
    },
    {
      "inputs": [
        {
          "internalType": "address",
          "name": "",
          "type": "address"
        }
      ],
      "name": "ownershipCount",
      "outputs": [
        {
          "internalType": "uint256",
          "name": "",
          "type": "uint256"
        }
      ],
      "stateMutability": "view",
      "type": "function"
    },
    {
      "inputs": [],
      "name": "pause",
      "outputs": [],
      "stateMutability": "nonpayable",
      "type": "function"
    },
    {
      "inputs": [],
      "name": "paused",
      "outputs": [
        {
          "internalType": "bool",
          "name": "",
          "type": "bool"
        }
      ],
      "stateMutability": "view",
      "type": "function"
    },
    {
      "inputs": [],
      "name": "paymentPool",
      "outputs": [
        {
          "internalType": "address",
          "name": "",
          "type": "address"
        }
      ],
      "stateMutability": "view",
      "type": "function"
    },
    {
      "inputs": [],
      "name": "paymentToken",
      "outputs": [
        {
          "internalType": "address",
          "name": "",
          "type": "address"
        }
      ],
      "stateMutability": "view",
      "type": "function"
    },
    {
      "inputs": [],
      "name": "redeem",
      "outputs": [
        {
          "internalType": "address",
          "name": "",
          "type": "address"
        }
      ],
      "stateMutability": "view",
      "type": "function"
    },
    {
      "inputs": [
        {
          "internalType": "address",
          "name": "addressToRemove",
          "type": "address"
        }
      ],
      "name": "removeAllowedAddress",
      "outputs": [],
      "stateMutability": "nonpayable",
      "type": "function"
    },
    {
      "inputs": [],
      "name": "renounceOwnership",
      "outputs": [],
      "stateMutability": "nonpayable",
      "type": "function"
    },
    {
      "inputs": [
        {
          "internalType": "address",
          "name": "from",
          "type": "address"
        },
        {
          "internalType": "address",
          "name": "to",
          "type": "address"
        },
        {
          "internalType": "uint256",
          "name": "tokenId",
          "type": "uint256"
        }
      ],
      "name": "safeTransferFrom",
      "outputs": [],
      "stateMutability": "nonpayable",
      "type": "function"
    },
    {
      "inputs": [
        {
          "internalType": "address",
          "name": "from",
          "type": "address"
        },
        {
          "internalType": "address",
          "name": "to",
          "type": "address"
        },
        {
          "internalType": "uint256",
          "name": "tokenId",
          "type": "uint256"
        },
        {
          "internalType": "bytes",
          "name": "data",
          "type": "bytes"
        }
      ],
      "name": "safeTransferFrom",
      "outputs": [],
      "stateMutability": "nonpayable",
      "type": "function"
    },
    {
      "inputs": [
        {
          "internalType": "address",
          "name": "allowedAddress",
          "type": "address"
        }
      ],
      "name": "setAllowedAddress",
      "outputs": [],
      "stateMutability": "nonpayable",
      "type": "function"
    },
    {
      "inputs": [
        {
          "internalType": "address",
          "name": "operator",
          "type": "address"
        },
        {
          "internalType": "bool",
          "name": "approved",
          "type": "bool"
        }
      ],
      "name": "setApprovalForAll",
      "outputs": [],
      "stateMutability": "nonpayable",
      "type": "function"
    },
    {
      "inputs": [],
      "name": "signer",
      "outputs": [
        {
          "internalType": "address",
          "name": "",
          "type": "address"
        }
      ],
      "stateMutability": "view",
      "type": "function"
    },
    {
      "inputs": [],
      "name": "staking",
      "outputs": [
        {
          "internalType": "address",
          "name": "",
          "type": "address"
        }
      ],
      "stateMutability": "view",
      "type": "function"
    },
    {
      "inputs": [
        {
          "internalType": "bytes4",
          "name": "interfaceId",
          "type": "bytes4"
        }
      ],
      "name": "supportsInterface",
      "outputs": [
        {
          "internalType": "bool",
          "name": "",
          "type": "bool"
        }
      ],
      "stateMutability": "view",
      "type": "function"
    },
    {
      "inputs": [],
      "name": "symbol",
      "outputs": [
        {
          "internalType": "string",
          "name": "",
          "type": "string"
        }
      ],
      "stateMutability": "view",
      "type": "function"
    },
    {
      "inputs": [
        {
          "internalType": "uint256",
          "name": "",
          "type": "uint256"
        }
      ],
      "name": "timeStamp",
      "outputs": [
        {
          "internalType": "uint256",
          "name": "",
          "type": "uint256"
        }
      ],
      "stateMutability": "view",
      "type": "function"
    },
    {
      "inputs": [],
      "name": "tokenCounter",
      "outputs": [
        {
          "internalType": "uint256",
          "name": "",
          "type": "uint256"
        }
      ],
      "stateMutability": "view",
      "type": "function"
    },
    {
      "inputs": [
        {
          "internalType": "uint256",
          "name": "tokenId",
          "type": "uint256"
        }
      ],
      "name": "tokenURI",
      "outputs": [
        {
          "internalType": "string",
          "name": "",
          "type": "string"
        }
      ],
      "stateMutability": "view",
      "type": "function"
    },
    {
      "inputs": [
        {
          "internalType": "uint256",
          "name": "",
          "type": "uint256"
        }
      ],
      "name": "tokenValue",
      "outputs": [
        {
          "internalType": "uint256",
          "name": "",
          "type": "uint256"
        }
      ],
      "stateMutability": "view",
      "type": "function"
    },
    {
      "inputs": [
        {
          "internalType": "address",
          "name": "to",
          "type": "address"
        },
        {
          "internalType": "uint256",
          "name": "tokenId",
          "type": "uint256"
        }
      ],
      "name": "transfer",
      "outputs": [],
      "stateMutability": "nonpayable",
      "type": "function"
    },
    {
      "inputs": [
        {
          "internalType": "address",
          "name": "from",
          "type": "address"
        },
        {
          "internalType": "address",
          "name": "to",
          "type": "address"
        },
        {
          "internalType": "uint256",
          "name": "tokenId",
          "type": "uint256"
        }
      ],
      "name": "transferFrom",
      "outputs": [],
      "stateMutability": "nonpayable",
      "type": "function"
    },
    {
      "inputs": [
        {
          "internalType": "address",
          "name": "newOwner",
          "type": "address"
        }
      ],
      "name": "transferOwnership",
      "outputs": [],
      "stateMutability": "nonpayable",
      "type": "function"
    },
    {
      "inputs": [],
      "name": "unpause",
      "outputs": [],
      "stateMutability": "nonpayable",
      "type": "function"
    },
    {
      "inputs": [
        {
          "internalType": "address",
          "name": "oldAddress",
          "type": "address"
        },
        {
          "internalType": "address",
          "name": "newAddress",
          "type": "address"
        }
      ],
      "name": "updateAllowedAddress",
      "outputs": [],
      "stateMutability": "nonpayable",
      "type": "function"
    },
    {
      "inputs": [
        {
          "internalType": "uint256",
          "name": "newValue",
          "type": "uint256"
        }
      ],
      "name": "updateMaxMintAmount",
      "outputs": [],
      "stateMutability": "nonpayable",
      "type": "function"
    },
    {
      "inputs": [
        {
          "internalType": "uint256",
          "name": "newValue",
          "type": "uint256"
        }
      ],
      "name": "updateMaxOwnership",
      "outputs": [],
      "stateMutability": "nonpayable",
      "type": "function"
    },
    {
      "inputs": [
        {
          "internalType": "uint256",
          "name": "newValue",
          "type": "uint256"
        }
      ],
      "name": "updateMinMintAmount",
      "outputs": [],
      "stateMutability": "nonpayable",
      "type": "function"
    },
    {
      "inputs": [
        {
          "internalType": "address",
          "name": "newPaymentPool",
          "type": "address"
        }
      ],
      "name": "updatePaymentPool",
      "outputs": [],
      "stateMutability": "nonpayable",
      "type": "function"
    },
    {
      "inputs": [
        {
          "internalType": "address",
          "name": "newPaymentToken",
          "type": "address"
        }
      ],
      "name": "updatePaymentToken",
      "outputs": [],
      "stateMutability": "nonpayable",
      "type": "function"
    },
    {
      "inputs": [
        {
          "internalType": "address",
          "name": "newRedeem",
          "type": "address"
        }
      ],
      "name": "updateRedeem",
      "outputs": [],
      "stateMutability": "nonpayable",
      "type": "function"
    },
    {
      "inputs": [
        {
          "internalType": "address",
          "name": "newStaking",
          "type": "address"
        }
      ],
      "name": "updateStaking",
      "outputs": [],
      "stateMutability": "nonpayable",
      "type": "function"
    },
    {
      "inputs": [
        {
          "internalType": "bool",
          "name": "isRestricted",
          "type": "bool"
        }
      ],
      "name": "updateTransferRestriction",
      "outputs": [],
      "stateMutability": "nonpayable",
      "type": "function"
    },
    {
      "inputs": [
        {
          "internalType": "bytes",
          "name": "",
          "type": "bytes"
        }
      ],
      "name": "usedSig",
      "outputs": [
        {
          "internalType": "bool",
          "name": "",
          "type": "bool"
        }
      ],
      "stateMutability": "view",
      "type": "function"
    }
  ],
  "bytecode": "0x60808060405234620006e8576009546000916200001c82620006ed565b80825292600192808416908115620006c6575060011462000688575b919250601f916001600160401b0391908190038301601f19908116820191838311818410176200055f57826040528185846000600a546200007981620006ed565b808452908b81169081156200066b57506001146200061a575b500301168301838110858211176200055f576040528051908482116200055f578190620000c1600054620006ed565b878111620005e6575b50602090878311600114620005815760009262000575575b5050600019600383901b1c191690861b176000555b81519283116200055f5782916200010f8654620006ed565b85811162000520575b50602091858411600114620004bb5750600092620004af575b5050600019600383901b1c191690831b1782555b3315620004965760068054336001600160a01b0319808316821790935573900c6f8aacd4aa70f1477be27ccbbd4bf9cc011e93916001600160a01b03167f8be0079c531659141344cd1fd0a4f28419497f9722a3daafe3b4186f6b6457e0600080a38360075583600855620001bc600954620006ed565b81811162000455575b507f4e4654204345525449464943415445000000000000000000000000000000001e600955600a54620001f890620006ed565b81811162000425575b5060086344504d4360e01b01600a55600b546200021e90620006ed565b818111620003e4575b50600e6644504d432e494f60c81b01600b55600c546200024790620006ed565b818111620003a3575b507f4e465420436f6e74726163742041646472657373000000000000000000000028600c55600d546200028390620006ed565b81811162000344575b5050604d600d55600d60005265504d432e494f60d01b8360206000207f44504d43204e4654204365727469666963617465206973737565642062792044815501556005600e5573143e5c4160eaef1c01251d23f2a04f0b3e9d6c1081600f541617600f5573b63683c2d9563c25f65793164a282ef82c0a03f6816010541617601055601154161760115568056bc75e2d63100000601455600060155561ffff196016541617601655604051614a989081620007448239f35b600d6000526200039b910160051c7fd7b6990105719101dabeb77144f2a3385c8033acd3af97e9423a695e81ad1eb5017fd7b6990105719101dabeb77144f2a3385c8033acd3af97e9423a695e81ad1eb76200072a565b38806200028c565b600c600052620003dd90820160051c7fdf6966c971051c3d54ec59162606531493a51404a002842f56009d7e5cf4a8c7908101906200072a565b3862000250565b600b6000526200041e90820160051c7f0175b7a638427703f0dbe7bb9bbf987a2551717b34e79f33b5b1008d1fa01db9908101906200072a565b3862000227565b600a6000526200044e90820160051c600080516020620051dc833981519152908101906200072a565b3862000201565b60096000526200048f90820160051c7f6e1540171b6c0c960b71a7020d9f60077f6af931a8bbf590da0223dacf75c7af908101906200072a565b38620001c5565b604051631e4fbdf760e01b815260006004820152602490fd5b01519050388062000131565b8694929192169184600052816000209260005b8181106200050757508411620004ed575b505050811b01825562000145565b015160001960f88460031b161c19169055388080620004df565b82840151855588969094019360209384019301620004ce565b6200054e908760005260206000208780870160051c8201926020881062000555575b0160051c01906200072a565b3862000118565b9250819262000542565b634e487b7160e01b600052604160045260246000fd5b015190503880620000e2565b90848994169160008052816000209260005b818110620005cd57508411620005b3575b505050811b01600055620000f7565b015160001960f88460031b161c19169055388080620005a4565b8284015185558b96909401936020938401930162000593565b62000613906000805260206000208980860160051c8201926020871062000555570160051c01906200072a565b38620000ca565b600a600090815260209250908b600080516020620051dc8339815191525b8284106200064d575050508201013862000092565b80548b85018601528997508c96508a9550928401928d910162000638565b90506020925060ff191682840152151560051b8201013862000092565b506009600052602080600020936000905b808210620006b05750929350839282010162000038565b8554848301840152948401949082019062000699565b60209250839495915060ff191682840152151560051b82010183925062000038565b600080fd5b90600182811c921680156200071f575b60208310146200070957565b634e487b7160e01b600052602260045260246000fd5b91607f1691620006fd565b81811062000736575050565b600081556001016200072a56fe6080604052600436101561001257600080fd5b60003560e01c806301ffc9a71461033757806306fdde0314610332578063081812fc1461032d578063095ea7b3146103285780630ba133c5146103235780631b8fc2f01461031e578063238ac9331461031957806323b872dd1461031457806324d7806c1461030f5780633013ce291461030a578063380a0df214610305578063395a221e146103005780633c95150a146102fb5780633c9d93b8146102f65780633f4ba83a146102f15780634120657a146102ec57806342842e0e146102e75780634ccf1b34146102e25780634cf088d9146102dd5780634d0e7eb1146102d857806351479d1f146102d357806359b0e66b146102ce5780635c975abb146102c95780636352211e146102c4578063636a720e146102bf5780636dd84ac1146102ba57806370a08231146102b5578063715018a6146102b05780638456cb59146102ab57806389fa2c03146102a65780638da5cb5b146102a157806391ae4bf21461029c57806395d89b4114610297578063a22cb46514610292578063a345f38d1461028d578063a5dc971314610288578063a9059cbb14610283578063b0dc78fa1461027e578063b803e75314610279578063b86fcee214610274578063b88d4fde1461026f578063be040fb01461026a578063c77b66c214610265578063c87b56dd14610260578063c8d046a01461025b578063cb91449114610256578063d082e38114610251578063d850bfda1461024c578063e985e9c5146102475763f2fde38b1461024257600080fd5b611df8565b611da7565b611c3d565b611c1f565b611bf3565b611bc7565b611b54565b6117fa565b6117d1565b611782565b6116dd565b6116b4565b611695565b611610565b6115c7565b611429565b61136c565b611290565b6111e7565b6111be565b611138565b611061565b611003565b610faa565b610e8e565b610e6b565b610e3b565b610e15565b610df7565b610d52565b610d18565b610cef565b610c4a565b610c22565b610be3565b610b13565b6109ed565b61094f565b610927565b6107f3565b6107ca565b61078b565b6106d9565b61067b565b6105d8565b6105ba565b6104bb565b610451565b61041d565b610353565b6001600160e01b031981160361034e57565b600080fd5b3461034e57602036600319011261034e5760206004356103728161033c565b63ffffffff60e01b166380ac58cd60e01b81149081156103b0575b811561039f575b506040519015158152f35b6301ffc9a760e01b14905038610394565b635b5e139f60e01b8114915061038d565b60005b8381106103d45750506000910152565b81810151838201526020016103c4565b906020916103fd815180928185528580860191016103c1565b601f01601f1916010190565b90602061041a9281815201906103e4565b90565b3461034e57600036600319011261034e5761044d610439611eec565b6040519182916020835260208301906103e4565b0390f35b3461034e57602036600319011261034e5760043561046e8161206b565b506000526004602052602060018060a01b0360406000205416604051908152f35b600435906001600160a01b038216820361034e57565b602435906001600160a01b038216820361034e57565b3461034e57604036600319011261034e576104d461048f565b602435906104e18261206b565b331515806105a7575b80610579575b6105615761055f926105409181906001600160a01b0385811691167f8c5be1e5ebec7d5bd14f71427d1e84f3dd0314c0f7b2291e5b200ac8c7c3b925600080a46000526004602052604060002090565b80546001600160a01b0319166001600160a01b03909216919091179055565b005b60405163a9fbf51f60e01b8152336004820152602490fd5b506001600160a01b038116600090815260056020908152604080832033845290915290205460ff16156104f0565b506001600160a01b0381163314156104ea565b3461034e57600036600319011261034e576020601554604051908152f35b3461034e57602036600319011261034e576105f161048f565b7f14fcc60af8440546881d552eb01644aa747a1106cb912daf1a3b52e9932ed1896040600092338452601d60205260ff82852054168015610667575b6106369061224d565b6001600160a01b031680845260176020908152828520805460ff19166001908117909155835192835290820152a180f35b506006546001600160a01b0316331461062d565b3461034e57600036600319011261034e57600f546040516001600160a01b039091168152602090f35b606090600319011261034e576001600160a01b0390600435828116810361034e5791602435908116810361034e579060443590565b3461034e5761073b6106ea366106a4565b9160ff6016546106ff828260081c1615612286565b16158015610777575b8015610763575b610718906127ad565b610720612743565b6012546001600160a01b039081163314610742575b506127f9565b6001600755005b8116600052601b602052604060002061075b8154612880565b905538610735565b506012546001600160a01b0316331461070f565b506013546001600160a01b03163314610708565b3461034e57602036600319011261034e576001600160a01b036107ac61048f565b16600052601d602052602060ff604060002054166040519015158152f35b3461034e57600036600319011261034e576010546040516001600160a01b039091168152602090f35b3461034e57602036600319011261034e5760043533600052601d60205260ff604060002054168015610913575b6108299061224d565b80158015610907575b1561089c57601554604080516060808252600d908201526c13585e135a5b9d105b5bdd5b9d609a1b60808201526020810192909252810182905261055f91907fe1b5fcc71e24bfffe610c0869e1fca9214a166fe0eaf8574c3f8fa7e5cb4f19f9060a090a1601555565b60405162461bcd60e51b815260206004820152603c60248201527f6d6178546f4d696e74206d757374206265207a65726f2028756e6c696d69746560448201527f6429206f722067726561746572207468616e206d696e546f4d696e74000000006064820152608490fd5b50601454811015610832565b506006546001600160a01b03163314610820565b3461034e57600036600319011261034e576020600e54604051908152f35b8015150361034e57565b3461034e57602036600319011261034e5760043561096c81610945565b33600052601d60205260ff6040600020541680156109d9575b61098e9061224d565b60ff601654917f35b05563db5dd3045c31a9b46a385d3e34a1b6ad51cc00c23562eccb5619002a604080519284861615158452151592836020820152a160ff19909216911617601655005b506006546001600160a01b03163314610985565b3461034e57602036600319011261034e57610a0661048f565b600090338252601d60205260ff6040832054168015610aff575b610a299061224d565b6001600160a01b03811682526017602052604082205460ff1615610abb576001600160a01b03811660009081526017602052604090207f14fcc60af8440546881d552eb01644aa747a1106cb912daf1a3b52e9932ed18991610ab591610a94905b805460ff19169055565b604080516001600160a01b0390921682526000602083015290918291820190565b0390a180f35b606460405162461bcd60e51b815260206004820152602060248201527f4164647265737320746f2072656d6f7665206973206e6f7420616c6c6f7765646044820152fd5b506006546001600160a01b03163314610a20565b3461034e57600080600319360112610be057338152601d60205260ff6040822054168015610bcc575b610b459061224d565b60165460ff8160081c1615610b8e5761ff0019166016556040513381527f5db9ee0a495bf2e6ff9c91a7834c1ba4fdd244a5e8aa4e537bd38aeae4b073aa908060208101610ab5565b60405162461bcd60e51b815260206004820152601660248201527510dbdb9d1c9858dd081a5cc81b9bdd081c185d5cd95960521b6044820152606490fd5b506006546001600160a01b03163314610b3c565b80fd5b3461034e57602036600319011261034e576001600160a01b03610c0461048f565b166000526017602052602060ff604060002054166040519015158152f35b3461034e5761055f610c33366106a4565b9060405192610c41846114e4565b60008452611fba565b3461034e57602036600319011261034e57610c6361048f565b33600052601d60205260ff604060002054168015610cdb575b610c859061224d565b601054604080516001600160a01b03808416825284811660208301529293917fd49edb3b9b6881a3efe94ab8e55232d478b98c4d57ee0d54bb0ffc5709a0ceba91a16001600160a01b0319909216911617601055005b506006546001600160a01b03163314610c7c565b3461034e57600036600319011261034e576013546040516001600160a01b039091168152602090f35b3461034e57602036600319011261034e576001600160a01b03610d3961048f565b16600052601b6020526020604060002054604051908152f35b3461034e57602036600319011261034e57610d6b61048f565b33600052601d60205260ff604060002054168015610de3575b610d8d9061224d565b601154604080516001600160a01b03808416825284811660208301529293917fb6747b767cffc49358a95f18269dc633a7aba1a1c9bbb4396dab4ee76db6ec3d91a16001600160a01b0319909216911617601155005b506006546001600160a01b03163314610d84565b3461034e57600036600319011261034e576020601454604051908152f35b3461034e57600036600319011261034e57602060ff60165460081c166040519015158152f35b3461034e57602036600319011261034e576020610e5960043561206b565b6040516001600160a01b039091168152f35b3461034e57600036600319011261034e57602060ff601654166040519015158152f35b3461034e57602036600319011261034e5760043533600052601d60205260ff604060002054168015610f96575b610ec49061224d565b6015548015908115610f8b575b5015610f3c57601454604080516060808252600d908201526c135a5b935a5b9d105b5bdd5b9d609a1b60808201526020810192909252810182905261055f91907fe1b5fcc71e24bfffe610c0869e1fca9214a166fe0eaf8574c3f8fa7e5cb4f19f9060a090a1601455565b60405162461bcd60e51b815260206004820152602160248201527f6d696e546f4d696e742063616e6e6f7420657863656564206d6178546f4d696e6044820152601d60fa1b6064820152608490fd5b905081111538610ed1565b506006546001600160a01b03163314610ebb565b3461034e57602036600319011261034e576001600160a01b03610fcb61048f565b168015610fea5760005260036020526020604060002054604051908152f35b6040516322718ad960e21b815260006004820152602490fd5b3461034e57600080600319360112610be05761101d611e86565b600680546001600160a01b0319811690915581906001600160a01b03167f8be0079c531659141344cd1fd0a4f28419497f9722a3daafe3b4186f6b6457e08280a380f35b3461034e57600080600319360112610be057338152601d60205260ff6040822054168015611124575b6110939061224d565b60165460ff8160081c166110df5761ff001916610100176016556040513381527f62e78cea01bee320cd4e420270b5ea74000d11b0c9f74754ebdbfc544b05a258908060208101610ab5565b60405162461bcd60e51b815260206004820152601a60248201527f436f6e747261637420697320616c7265616479207061757365640000000000006044820152606490fd5b506006546001600160a01b0316331461108a565b3461034e57604036600319011261034e577f235bc17e7930760029e9f4d860a2a8089976de5b381cf8380fc11c1d88a11133604061117461048f565b6024359061118182610945565b611189611e86565b6001600160a01b03166000818152601d602052839020805460ff191660ff8415151617905590825191825215156020820152a1005b3461034e57600036600319011261034e576006546040516001600160a01b039091168152602090f35b3461034e57602036600319011261034e577fe1b5fcc71e24bfffe610c0869e1fca9214a166fe0eaf8574c3f8fa7e5cb4f19f60a060043533600052601d60205260ff604060002054168015611279575b6112409061224d565b600e549080600e556040519160608352600c60608401526b04d61784f776e6572736869760a41b608084015260208301526040820152a1005b50611240600180841b036006541633149050611237565b3461034e57600080600319360112610be057604051908060018054916112b583611eb2565b8086529282811690811561134257506001146112e8575b61044d856112dc81870382611505565b60405191829182610409565b92508083527fb10e2d527612073b26eecdfd717e6a320cf44b4afac2b0732d9fcbe2b7fa0cf65b82841061132a5750505081016020016112dc8261044d6112cc565b8054602085870181019190915290930192810161130f565b86955061044d969350602092506112dc94915060ff191682840152151560051b82010192936112cc565b3461034e57604036600319011261034e5761138561048f565b60243561139181610945565b6001600160a01b03821691821561141057816113cf6113e09233600052600560205260406000209060018060a01b0316600052602052604060002090565b9060ff801983541691151516179055565b60405190151581527f17307eab39ab6107e8899845ad3d59bd9653f200f220920489ca2b5937696c3160203392a3005b604051630b61174360e31b815260048101849052602490fd5b3461034e57602036600319011261034e5761144261048f565b33600052601d60205260ff6040600020541680156114ba575b6114649061224d565b601354604080516001600160a01b03808416825284811660208301529293917fcfa056eb826b2a28817aa38ccb94f12ba8a1309598f7ea19bef6fd67fe04b61e91a16001600160a01b0319909216911617601355005b506006546001600160a01b0316331461145b565b634e487b7160e01b600052604160045260246000fd5b6020810190811067ffffffffffffffff82111761150057604052565b6114ce565b90601f8019910116810190811067ffffffffffffffff82111761150057604052565b67ffffffffffffffff811161150057601f01601f191660200190565b81601f8201121561034e5780359061155a82611527565b926115686040519485611505565b8284526020838301011161034e57816000926020809301838601378301015290565b9061159d602092828151948592016103c1565b0190565b60206115ba9181604051938285809451938492016103c1565b8101601c81520301902090565b3461034e57602036600319011261034e5760043567ffffffffffffffff811161034e5760ff6116046115ff6020933690600401611543565b6115a1565b54166040519015158152f35b3461034e57604036600319011261034e5761073b61162c61048f565b60ff601654611640828260081c1615612286565b1615801561168d575b801561166b575b611659906127ad565b611661612743565b60243590336127f9565b506001600160a01b03811660009081526017602052604090205460ff16611650565b503315611649565b3461034e57602036600319011261034e5761044d610439600435612b0c565b3461034e57600036600319011261034e576011546040516001600160a01b039091168152602090f35b3461034e57602036600319011261034e576116f661048f565b33600052601d60205260ff60406000205416801561176e575b6117189061224d565b601254604080516001600160a01b03808416825284811660208301529293917f80b277873189a3e8d545d472ed3fb21a351ee0436ea1d333219179d4653284ae91a16001600160a01b0319909216911617601255005b506006546001600160a01b0316331461170f565b3461034e57608036600319011261034e5761179b61048f565b6117a36104a5565b6064359167ffffffffffffffff831161034e576117c761055f933690600401611543565b9160443591611fba565b3461034e57600036600319011261034e576012546040516001600160a01b039091168152602090f35b3461034e57608036600319011261034e576004356118166104a5565b60643567ffffffffffffffff811161034e57611836903690600401611543565b60165461184a60ff600892831c1615612286565b611852612743565b61187461186f61186b611864856115a1565b5460ff1690565b1590565b6122c7565b60405160609390931b6bffffffffffffffffffffffff191660208085019182526044356034860152936118c29184916118ba81605481015b03601f198101835282611505565b519020612766565b600f546118f4906118e3906001600160a01b03165b6001600160a01b031690565b6001600160a01b039283161461230c565b601054611909906001600160a01b03166118d7565b61191f600e548015908115611b3b575b50612349565b6040516370a0823160e01b8152336004820152911691908481602481865afa908115611ae15761195b918791600091611b1e575b50101561239c565b6119696014548610156123e8565b61197f6015548015908115611b13575b50612434565b604051636eb1769f60e11b81523360048201523060248201528481604481865afa908115611ae157611a04936119c38888948194600091611ae6575b501015612480565b6011546040516323b872dd60e01b81523360048201526001600160a01b03909116602482015260448101929092529093849190829060009082906064820190565b03925af1908115611ae157611aa995611a64956115ff94611aa494611ab3575b5050611a3182543361250b565b336000908152601b60205260409020611a4a81546124f7565b9055611a71611a6483546000526018602052604060002090565b805460ff19166001179055565b611a8682546000526019602052604060002090565b5542611a9d8254600052601a602052604060002090565b55546124f7565b600855565b61055f6001600755565b81611ad292903d10611ada575b611aca8183611505565b8101906124cc565b503880611a24565b503d611ac0565b612117565b611b069150863d8811611b0c575b611afe8183611505565b81019061238d565b386119bb565b503d611af4565b905086111538611979565b611b359150873d8911611b0c57611afe8183611505565b38611953565b336000908152601b602052604090205410905038611919565b3461034e57602036600319011261034e5760043580600052601860205260ff6040600020541615611b8b5761043961044d91612b0c565b60405162461bcd60e51b8152602060048201526014602482015273151bdad95b88191bd95cc81b9bdd08195e1a5cdd60621b6044820152606490fd5b3461034e57602036600319011261034e57600435600052601a6020526020604060002054604051908152f35b3461034e57602036600319011261034e5760043560005260196020526020604060002054604051908152f35b3461034e57600036600319011261034e576020600854604051908152f35b3461034e5760408060031936011261034e57611c5761048f565b90611c606104a5565b90600092338452601d60205260ff82852054168015611d93575b611c839061224d565b6001600160a01b038116845260176020528184205460ff1615611d4f5791610ab59183611cc8610a8a611d2d9660018060a01b03166000526017602052604060002090565b6001600160a01b0383166000908152601760205260409020611ce990611a64565b81516001600160a01b039091168152600060208201527f14fcc60af8440546881d552eb01644aa747a1106cb912daf1a3b52e9932ed1899485919081906040820190565b0390a1516001600160a01b039091168152600160208201529081906040820190565b815162461bcd60e51b815260206004820152601a60248201527f4f6c642061646472657373206973206e6f7420616c6c6f7765640000000000006044820152606490fd5b506006546001600160a01b03163314611c7a565b3461034e57604036600319011261034e57602060ff611604611dc761048f565b611dcf6104a5565b6001600160a01b0391821660009081526005865260408082209290931681526020919091522090565b3461034e57602036600319011261034e57611e1161048f565b611e19611e86565b6001600160a01b03908116908115611e6d57600654826bffffffffffffffffffffffff60a01b821617600655167f8be0079c531659141344cd1fd0a4f28419497f9722a3daafe3b4186f6b6457e0600080a3005b604051631e4fbdf760e01b815260006004820152602490fd5b6006546001600160a01b03163303611e9a57565b60405163118cdaa760e01b8152336004820152602490fd5b90600182811c92168015611ee2575b6020831014611ecc57565b634e487b7160e01b600052602260045260246000fd5b91607f1691611ec1565b60405190600082815491611eff83611eb2565b80835292600190818116908115611f855750600114611f28575b50611f2692500383611505565b565b600080805291507f290decd9548b62a8d60345a988386fc84ba6bc95484008f6362f93160ef3e5635b848310611f6a5750611f26935050810160200138611f19565b81935090816020925483858a01015201910190918592611f51565b905060209250611f2694915060ff191682840152151560051b82010138611f19565b60405190611fb4826114e4565b60008252565b90611f2693929160ff601654611fd5828260081c1615612286565b16158015612057575b8015612043575b611fee906127ad565b611ff6612743565b6012546001600160a01b039081163314612022575b506120178383836127f9565b600160075533612153565b8116600052601b602052604060002061203b8154612880565b90553861200b565b506012546001600160a01b03163314611fe5565b506013546001600160a01b03163314611fde565b6000818152600260205260409020546001600160a01b031690811561208e575090565b60249060405190637e27328960e01b82526004820152fd5b9081602091031261034e575161041a8161033c565b61041a939260809260018060a01b0316825260006020830152604082015281606082015201906103e4565b6001600160a01b03918216815291166020820152604081019190915260806060820181905261041a929101906103e4565b6040513d6000823e3d90fd5b3d1561214e573d9061213482611527565b916121426040519384611505565b82523d6000602084013e565b606090565b92939193843b612165575b5050505050565b6020916121886040519485938493630a85bd0160e11b98898652600486016120e6565b038160006001600160a01b0388165af16000918161221d575b506121e057826121af612123565b80519190826121d957604051633250574960e11b81526001600160a01b0383166004820152602490fd5b6020915001fd5b6001600160e01b031916036121fa5750388080808061215e565b604051633250574960e11b81526001600160a01b03919091166004820152602490fd5b61223f91925060203d8111612246575b6122378183611505565b8101906120a6565b90386121a1565b503d61222d565b1561225457565b60405162461bcd60e51b815260206004820152600a60248201526941646d696e206f6e6c7960b01b6044820152606490fd5b1561228d57565b60405162461bcd60e51b815260206004820152601260248201527110dbdb9d1c9858dd081a5cc81c185d5cd95960721b6044820152606490fd5b156122ce57565b60405162461bcd60e51b815260206004820152601660248201527514da59db985d1d5c9948185b1c9958591e481d5cd95960521b6044820152606490fd5b1561231357565b60405162461bcd60e51b815260206004820152600e60248201526d24b73b30b634b21039b4b3b732b960911b6044820152606490fd5b1561235057565b60405162461bcd60e51b815260206004820152601560248201527413585e081bdddb995c9cda1a5c081c995858da1959605a1b6044820152606490fd5b9081602091031261034e575190565b156123a357565b60405162461bcd60e51b815260206004820152601a60248201527f496e73756666696369656e7420746f6b656e2062616c616e63650000000000006044820152606490fd5b156123ef57565b60405162461bcd60e51b815260206004820152601960248201527f496e73756666696369656e7420746f6b656e20616d6f756e74000000000000006044820152606490fd5b1561243b57565b60405162461bcd60e51b815260206004820152601f60248201527f45786365656473206d6178696d756d206d696e7461626c6520616d6f756e74006044820152606490fd5b1561248757565b60405162461bcd60e51b815260206004820152601c60248201527f496e73756666696369656e7420746f6b656e20616c6c6f77616e6365000000006044820152606490fd5b9081602091031261034e575161041a81610945565b634e487b7160e01b600052601160045260246000fd5b60001981146125065760010190565b6124e1565b6040918251612519816114e4565b600081526001600160a01b038381169190821561263b5761253a8486612653565b1661262357833b61254c575050505050565b6125766000926020928798969751948580948193630a85bd0160e11b998a845233600485016120bb565b03925af160009181612603575b506125c357505050612593612123565b80519290836125bc578151633250574960e11b81526001600160a01b0384166004820152602490fd5b6020849101fd5b9193916001600160e01b031916036125e1575050388080808061215e565b51633250574960e11b81526001600160a01b0391909116600482015260249150fd5b61261c91925060203d8111612246576122378183611505565b9038612583565b84516339e3563760e11b815260006004820152602490fd5b8551633250574960e11b815260006004820152602490fd5b6000828152600260205260408120546001600160a01b0390811693929184917fddf252ad1be2c89b69c2b068fc378daa952ba7f163c4a11628f55a4df523b3ef91906126d390846126fc575b851694856126d8575b86835260026020526040832080546001600160a01b0319166001600160a01b03909216919091179055565b80a490565b6001600160a01b0381166000908152600360205260409020600181540190556126a8565b612710876000526004602052604060002090565b80546001600160a01b03191690556001600160a01b0385166000908152600360205260409020805460001901905561269f565b600260075414612754576002600755565b604051633ee5aeb560e01b8152600490fd5b604182510361034e5760806000918360208095015160606040830151920151604051938452851a868401526040830152606082015282805260015afa15611ae15760005190565b156127b457565b60405162461bcd60e51b815260206004820152601c60248201527f546f6b656e207472616e736665722069732072657374726963746564000000006044820152606490fd5b906001600160a01b03908181161561286757612816848392612653565b16918261283657604051637e27328960e01b815260048101859052602490fd5b169182820361284457505050565b60649350604051926364283d7b60e01b8452600484015260248301526044820152fd5b604051633250574960e11b815260006004820152602490fd5b8015612506576000190190565b600d546000929161289d82611eb2565b9160019081811690811561290957506001146128b857505050565b9091929350600d6000527fd7b6990105719101dabeb77144f2a3385c8033acd3af97e9423a695e81ad1eb5906000915b8483106128f6575050500190565b81816020925485870152019201916128e8565b60ff191683525050811515909102019150565b600a546000929161292c82611eb2565b91600190818116908115612909575060011461294757505050565b9091929350600a6000527fc65a7bb8d6351c1cf70c95a316cc6a92839c986682d98bc35f958f4883f9d2a8906000915b848310612985575050500190565b8181602092548587015201920191612977565b600954600092916129a882611eb2565b9160019081811690811561290957506001146129c357505050565b909192935060096000527f6e1540171b6c0c960b71a7020d9f60077f6af931a8bbf590da0223dacf75c7af906000915b848310612a01575050500190565b81816020925485870152019201916129f3565b600c5460009291612a2482611eb2565b916001908181169081156129095750600114612a3f57505050565b9091929350600c6000527fdf6966c971051c3d54ec59162606531493a51404a002842f56009d7e5cf4a8c7906000915b848310612a7d575050500190565b8181602092548587015201920191612a6f565b600b5460009291612aa082611eb2565b916001908181169081156129095750600114612abb57505050565b9091929350600b6000527f0175b7a638427703f0dbe7bb9bbf987a2551717b34e79f33b5b1008d1fa01db9906000915b848310612af9575050500190565b8181602092548587015201920191612aeb565b604080517f3c7376672076657273696f6e3d22312e32222076696577426f783d223020302060208201527f34303020363030222077696474683d2233303022206865696768743d22343530918101919091527f2220786d6c6e733d22687474703a2f2f7777772e77332e6f72672f323030302f60608201527f7376672220786d6c6e733a786c696e6b3d22687474703a2f2f7777772e77332e60808201527f6f72672f313939392f786c696e6b2220786d6c6e733a62783d2268747470733a60a0820152751797b137bc3c96b9bb339731b7b6911f1e3232b3399f60511b60c08201527f3c6c696e6561724772616469656e742069643d225022206772616469656e745560d68201527f6e6974733d227573657253706163654f6e55736522202f3e000000000000000060f68201527f3c6c696e6561724772616469656e742069643d226731222078313d223230302261010e8201527f2079313d222d3136342e37222078323d22323030222079323d223736342e372261012e82015270103c3634b7359d343932b31e9111a8111f60791b61014e8201527f3c73746f702073746f702d636f6c6f723d222366663939333322206f6666736561015f820152693a1e911817191110179f60b11b61017f8201527f3c73746f70206f66667365743d22302e34222073746f702d636f6c6f723d222361018982015269333319999c9c9110179f60b11b6101a98201527f3c73746f70206f66667365743d22302e39222073746f702d636f6c6f723d22236101b3820152691818181833331110179f60b11b6101d3820152701e17b634b732b0b923b930b234b2b73a1f60791b6101dd8201527f3c7374796c653e2a7b666f6e742d66616d696c793a20417269616c2c2073616e6101ee8201526f3996b9b2b934b33e9e17b9ba3cb6329f60811b61020e8201526101fe8152601f199190612dc761021e82611505565b612dcf613381565b90612dd98361386b565b612de28461404e565b9060405193849360208501612df69161158a565b612dff9161158a565b612e089161158a565b612e119161158a565b038381018252612e219082611505565b612e29612fe0565b612e329161315d565b612e3a611eec565b90612e448361323e565b92612e4e90614931565b604051683d913730b6b2911d1160b91b602082015293849391929160298501612e769161158a565b6220282360e81b8152600301612e8b9161158a565b7314911610113232b9b1b934b83a34b7b7111d101160611b8152601401612eb19061288d565b601160f91b81526001016b16101134b6b0b3b2911d101160a11b8152600c017f646174613a696d6167652f7376672b786d6c3b6261736536342c0000000000008152601a01612f00908261158a565b6201116160ed1b8152600301711130b734b6b0ba34b7b72fbab936111d101160711b81526012017f646174613a696d6167652f7376672b786d6c3b6261736536342c0000000000008152601a01612f569161158a565b6201116160ed1b8152600301612f6b9161158a565b607d60f81b8152600101038281018252612f859082611505565b612f8d612fe0565b612f969161315d565b6040517f646174613a6170706c69636174696f6e2f6a736f6e3b6261736536342c000000602082015291908290603d8201612fd09161158a565b03908101825261041a9082611505565b604051906060820182811067ffffffffffffffff82111761150057604052604082527f6768696a6b6c6d6e6f707172737475767778797a303132333435363738392b2f6040837f4142434445464748494a4b4c4d4e4f505152535455565758595a61626364656660208201520152565b600281901b91906001600160fe1b0381160361250657565b600181901b91906001600160ff1b0381160361250657565b8181029291811591840414171561250657565b906002820180921161250657565b906001820180921161250657565b906005820180921161250657565b906004820180921161250657565b906003820180921161250657565b634e487b7160e01b600052601260045260246000fd5b81156130f9570490565b6130d9565b604051906060820182811067ffffffffffffffff82111761150057604052602a8252604082602036910137565b9061313582611527565b6131426040519182611505565b8281528092613153601f1991611527565b0190602036910137565b908151156132345761318961318461317f6131788551613093565b6003900490565b613050565b61312b565b91602083019181825183016020810191825193600084525b8282106131e257505050525160039006600181146131cf576002146131c4575090565b603d90600019015390565b50603d9081600019820153600119015390565b9091956004906003809401938451600190603f9082828260121c16880101518553828282600c1c16880101518386015382828260061c16880101516002860153168501015190820153019591906131a1565b505061041a611fa7565b806000917a184f03e93ff9f4daa797ed6e38ed64bf6a1f01000000000000000080821015613373575b506d04ee2d6d415b85acef810000000080831015613364575b50662386f26fc1000080831015613355575b506305f5e10080831015613346575b5061271080831015613337575b506064821015613327575b600a8092101561331d575b6001908160216132d582870161312b565b95860101905b6132e7575b5050505090565b600019019083906f181899199a1a9b1b9c1cb0b131b232b360811b8282061a835304918215613318579190826132db565b6132e0565b91600101916132c4565b91906064600291049101916132b9565b600491939204910191386132ae565b600891939204910191386132a1565b60109193920491019138613292565b60209193920491019138613280565b604093508104915038613267565b6040517f3c6c696e6561724772616469656e74206772616469656e74556e6974733d227560208201527f73657253706163654f6e557365222078313d223230302e34222079313d22353860408201527f2e303938222078323d223230302e34222079323d223133372e3438362220696460608201527f3d226772616469656e742d3122207370726561644d6574686f643d227061642260808201527f206772616469656e745472616e73666f726d3d226d617472697828312c20302c60a08201527f20302c20312c202d312e3738343331382c202d32322e33333030303829223e0060c08201527f3c73746f70206f66667365743d223022207374796c653d2273746f702d636f6c60df8201527f6f723a2072676261283235342c20302c20302c20312922202f3e00000000000060ff82015261041a816118ac6137306137ee61374361373061372b61361161358861355461352b6101198b01603a907f3c73746f70206f66667365743d223122207374796c653d2273746f702d636f6c81527f6f723a2072676261283135322c20302c20302c20312922202f3e00000000000060208201520190565b7f3c2f6c696e6561724772616469656e743e3c2f646566733e0000000000000000815260180190565b7f3c7374796c653e2e61207b66696c6c3a2075726c28236731297d3c2f7374796c815261329f60f11b602082015260220190565b7f3c7061746820636c6173733d22612220643d226d3620313163302d332e39203381527f2e312d3720372d376833373463332e392030203720332e31203720377635373860208201527f633020332e392d332e3120372d372037682d333734632d332e3920302d372d3360408201526a1718969b969bbd1110179f60a91b6060820152606b0190565b7f3c7465787420786d6c6e733d22687474703a2f2f7777772e77332e6f72672f3281527f3030302f73766722207374796c653d2266696c6c3a20726762283235352c203260208201527f35352c20323535293b20666f6e742d66616d696c793a202671756f743b41726960408201527f616c2671756f743b3b20666f6e742d73697a653a20373170783b20666f6e742d60608201527f7765696768743a203730303b2077686974652d73706163653a207072653b222060808201527f783d223230302220793d223130302e3237312220746578742d616e63686f723d60a08201527f226d6964646c652220646f6d696e616e742d626173656c696e653d226d69646460c0820152633632911f60e11b60e082015260e40190565b61291c565b661e17ba32bc3a1f60c91b815260070190565b600080516020614a438339815191528152600080516020614a2383398151915260208201527f73657269663b20666f6e742d73697a653a20323670783b20666f6e742d77656960408201527f6768743a203730303b2077686974652d73706163653a207072653b2220783d2260608201527f3230302220793d223136362e33332220746578742d616e63686f723d226d6964608082015264323632911f60d91b60a082015260a50190565b612998565b9081602091031261034e575160ff8116810361034e5790565b60208183031261034e5780519067ffffffffffffffff821161034e570181601f8201121561034e57805161383f81611527565b9261384d6040519485611505565b8184526020828401011161034e5761041a91602080850191016103c1565b601054613880906001600160a01b03166118d7565b6138898261323e565b60405163313ce56760e01b81529290916001600160a01b031690602084600481855afa938415611ae1576004946000926138e3928492613c76575b506138db60ff916000526019602052604060002090565b549116613cc5565b91604051948580926395d89b4160e01b82525afa918215611ae15761373061041a936020936118ac93613a3f97600093613c35575b50613a3f91613a3f613b9b613af0613a45613730613c28966040519e8f9d8e0160d6907f3c7465787420786d6c6e733d22687474703a2f2f7777772e77332e6f72672f3281527f3030302f7376672220793d223139362e3331352220783d22323030222073747960208201527f6c653d2266696c6c3a20726762283235352c203235352c20323535293b20666f60408201527f6e742d66616d696c793a20417269616c2c2073616e732d73657269663b20666f60608201527f6e742d73697a653a20323170783b2077686974652d73706163653a207072653b60808201527f2220746578742d616e63686f723d226d6964646c652220646f6d696e616e742d60a08201527503130b9b2b634b7329e9136b4b2323632911f24a21d160551b60c08201520190565b9061158a565b7f3c7265637420783d2236302220793d223235392e323832222077696474683d2281527f32383022206865696768743d2234312e38353222207374796c653d2266696c6c60208201527f3a20726762283231362c203231362c20323136293b207374726f6b653a20726760408201527f6228302c20302c2030293b222072783d2231352e313039222072793d2231352e60608201526618981c9110179f60c91b608082015260870190565b7f3c7265637420783d2236302220793d223331332e363031222077696474683d2281527f32383022206865696768743d2234312e38353222207374796c653d2266696c6c60208201527f3a20726762283231362c203231362c20323136293b207374726f6b653a20726760408201527f6228302c20302c2030293b222072783d2231352e313039222072793d2231352e60608201526618981c9110179f60c91b608082015260870190565b7f3c74657874207374796c653d22666f6e742d66616d696c793a20417269616c2c81527f2073616e732d73657269663b20666f6e742d73697a653a20313870783b20776860208201527f6974652d73706163653a207072653b2220783d2237382e3535382220793d223260408201526e01c1b171c1a1a111f2b30b63ab29d1608d1b6060820152606f0190565b600160fd1b815260010190565b91613a3f613b9b613af0613a45613730613c68613a3f98613c28989a3d8091833e613c608183611505565b81019061380c565b989650505050505091613918565b60ff919250613c9e6138db9160203d8111613ca6575b613c968183611505565b8101906137f3565b9291506138c4565b503d613c8c565b604d811161250657600a0a90565b81156130f9570690565b613cce81613cad565b613cd782613cad565b80156130f957613d6a92613d77613d57613d8593613d0f613d0a613cfb888b613080565b613d0487613cad565b90613cbb565b613068565b613d1885613cad565b111590613d4087613d3b613d2c828d613080565b613d3589613cad565b906130ef565b613cbb565b91613dc2575b613d5190890461323e565b93613fd9565b613a3f604051968794602086019061158a565b601760f91b815260010190565b03601f198101845283611505565b613d9f613d9a613d9583866130ef565b61323e565b613e20565b921015613db05761041a9150613f7f565b613dbc61041a926130af565b90613f31565b90613dcf613d51916130a1565b919050613d46565b634e487b7160e01b600052603260045260246000fd5b805115613dfa5760200190565b613dd7565b805160011015613dfa5760210190565b908151811015613dfa570160200190565b6000805b8251811015613f2b5780613e6b613e5e613e52613e44613e7e9588613e0f565b516001600160f81b03191690565b60071c600160f81b1690565b6001600160f81b03191690565b613e8457613e78906130a1565b916124f7565b90613e24565b6001600160f81b0319600360f91b81613eaf613ea3613e44868a613e0f565b60051c600760f81b1690565b1603613ebf5750613e7890613093565b600760f91b81613ee1613ed5613e44868a613e0f565b60041c600f60f81b1690565b1603613ef15750613e78906130cb565b600f60f91b90613f13613f07613e448589613e0f565b60031c601f60f81b1690565b1603613f2257613e78906130bd565b613e78906130a1565b50919050565b90613f3b8161312b565b91600090815b838110613f4f575050505090565b613f7a906001600160f81b0319613f668285613e0f565b5116841a613f748288613e0f565b536124f7565b613f41565b604051906040820182811067ffffffffffffffff8211176115005760405260059081835260203681850137600090815b838110613fbd575050505090565b613fd4906001600160f81b0319613f668285613e0f565b613faf565b9060609160005b818110613fed5750505090565b90919261404690600a9061403e61400583880661323e565b6040518093825161401e816020958680870191016103c1565b8201614032825180938680850191016103c1565b01038084520182611505565b9404916124f7565b919091613fe0565b600a61406d61406783600052601a602052604060002090565b54614909565b10156145e5576118ac6140ac614093613d9561406785600052601a602052604060002090565b604051600360fc1b602082015292839160218301613a3f565b905b600a6140cd6140c783600052601a602052604060002090565b5461491d565b10156145c5576118ac6140f3614093613d956140c785600052601a602052604060002090565b905b600a61411c61410e83600052601a602052604060002090565b5462015180610e1091060490565b10156145a6576118ac614142614093613d9561410e85600052601a602052604060002090565b600a61416761415b84600052601a602052604060002090565b54610e10603c91060490565b1015614586576118ac61418d614093613d9561415b86600052601a602052604060002090565b905b600a6141b06141a885600052601a602052604060002090565b54603c900690565b1015614569576141ea6118ac6141d9614093613d956141a888600052601a602052604060002090565b93600052601a602052604060002090565b546141f49061469e565b6141fd9061323e565b93604051958695602087016142119161158a565b602f60f81b81526001016142249161158a565b602f60f81b81526001016142379161158a565b600160fd1b815260010161424a9161158a565b601d60f91b815260010161425d9161158a565b601d60f91b81526001016142709161158a565b03601f199081810183526142849083611505565b61428d30614605565b604080517f3c74657874207374796c653d22666f6e742d66616d696c793a20417269616c2c60208201527f2073616e732d73657269663b20666f6e742d73697a653a20313870783b207768918101919091527f6974652d73706163653a207072653b2220783d2237382e3535382220793d223360608201526f0199c971c189a911f26b4b73a32b21d160851b6080820152928391906090830161432f9161158a565b661e17ba32bc3a1f60c91b8152600701600080516020614a438339815191528152600080516020614a2383398151915260208201527f73657269663b20666f6e742d73697a653a20313870783b2077686974652d737060408201527f6163653a207072653b2220783d223230302220793d223434362e33393922207460608201527332bc3a16b0b731b437b91e9136b4b2323632911f60611b60808201526094016143d990612a14565b661e17ba32bc3a1f60c91b8152600701600080516020614a438339815191528152600080516020614a2383398151915260208201527f73657269663b20666f6e742d73697a653a20313370783b2077686974652d737060408201527f6163653a207072653b2220783d223230302220793d223437302e39303222207460608201527f6578742d616e63686f723d226d6964646c652220646f6d696e616e742d62617360808201526e32b634b7329e9136b4b2323632911f60891b60a082015260af016144a49161158a565b661e17ba32bc3a1f60c91b8152600701600080516020614a438339815191528152600080516020614a2383398151915260208201527f73657269663b20666f6e742d73697a653a20313870783b2077686974652d737060408201527f6163653a207072653b2220783d223230302220793d223536322e36313922207460608201527332bc3a16b0b731b437b91e9136b4b2323632911f60611b608082015260940161454e90612a90565b6c1e17ba32bc3a1f1e17b9bb339f60991b8152600d01612fd0565b6141ea6141d9613d956141a886600052601a602052604060002090565b6145a0613d9561415b84600052601a602052604060002090565b9061418f565b6145c0613d9561410e83600052601a602052604060002090565b614142565b6145df613d956140c783600052601a602052604060002090565b906140f5565b6145ff613d9561406783600052601a602052604060002090565b906140ae565b8061460e6130fe565b91603061461a84613ded565b53607861462684613dff565b5360295b6001811161465c575061463b575090565b60405163e22e27eb60e01b8152600481019190915260146024820152604490fd5b90600f8116906010821015613dfa57614699916f181899199a1a9b1b9c1cb0b131b232b360811b901a61468f8487613e0f565b5360041c91612880565b61462a565b620151806146ac91046147f9565b505090565b906003820191600060038412911290801582169115161761250657565b906001820191600060018412911290801582169115161761250657565b90601f8201916000601f8412911290801582169115161761250657565b906002820191600060028412911290801582169115161761250657565b9190916000838201938412911290801582169115161761250657565b908160021b91600483050361250657565b9062023ab1918083029283050361250657565b90610fa0918083029283050361250657565b906105b5918083029283050361250657565b908160500291605083050361250657565b9061098f918083029283050361250657565b9081600c0291600c83050361250657565b908160640291606483050361250657565b90603019820191821360011661250657565b8181039291600013801582851316918412161761250657565b9062010bd9918281019283126000821290801582169115161761250657622649650191600062253d8c841291129080158216911516176125065761486d61484b61484284614741565b62023ab1900590565b9261486761486061485b86614752565b6146b1565b6004900590565b906147e0565b906149046148a66148a161489461488b614886876146ce565b614765565b62164b09900590565b9461486761486087614777565b6146eb565b6148ff6148d46148c06148b884614789565b61098f900590565b926148676148cd8561479a565b6050900590565b946148ff6148fa6148f46148eb600b870596614708565b614867876147ac565b986147ce565b6147bd565b614725565b929190565b6201518061491791046147f9565b50905090565b6201518061492b91046147f9565b91505090565b80600052601960205261494860406000205461323e565b90600052601a60205261041a61496260406000205461323e565b916118ac607b6040519485937f2261747472696275746573223a205b7b202274726169745f74797065223a2022602086015270222826a1911610113b30b63ab2911d101160791b60408601526149c28151809260206051890191016103c1565b84017f22207d2c7b2274726169745f74797065223a202274696d655374616d70222c20605182015269113b30b63ab2911d101160b11b6071820152614a1082518093602086850191016103c1565b010160039062227d5d60e81b8152019056fe20323535293b20666f6e742d66616d696c793a20417269616c2c2073616e732d3c74657874207374796c653d2266696c6c3a20726762283235352c203235352ca264697066735822122078f075ced8dd0bcfe2a7b7d44b9567f45e4e98a273967808e24b277860a964ab64736f6c63430008140033c65a7bb8d6351c1cf70c95a316cc6a92839c986682d98bc35f958f4883f9d2a8",
  "linkReferences": {},
  "deployedLinkReferences": {}
}