{
  "_format": "hh-sol-artifact-1",
  "contractName": "STAKE",
  "sourceName": "contracts/nft-staking-smart-contract.sol",
  "abi": [
    {
      "inputs": [],
      "stateMutability": "nonpayable",
      "type": "constructor"
    },
    {
      "inputs": [],
      "name": "ECDSAInvalidSignature",
      "type": "error"
    },
    {
      "inputs": [
        {
          "internalType": "uint256",
          "name": "length",
          "type": "uint256"
        }
      ],
      "name": "ECDSAInvalidSignatureLength",
      "type": "error"
    },
    {
      "inputs": [
        {
          "internalType": "bytes32",
          "name": "s",
          "type": "bytes32"
        }
      ],
      "name": "ECDSAInvalidSignatureS",
      "type": "error"
    },
    {
      "inputs": [
        {
          "internalType": "address",
          "name": "owner",
          "type": "address"
        }
      ],
      "name": "OwnableInvalidOwner",
      "type": "error"
    },
    {
      "inputs": [
        {
          "internalType": "address",
          "name": "account",
          "type": "address"
        }
      ],
      "name": "OwnableUnauthorizedAccount",
      "type": "error"
    },
    {
      "inputs": [],
      "name": "ReentrancyGuardReentrantCall",
      "type": "error"
    },
    {
      "inputs": [
        {
          "internalType": "address",
          "name": "token",
          "type": "address"
        }
      ],
      "name": "SafeERC20FailedOperation",
      "type": "error"
    },
    {
      "anonymous": false,
      "inputs": [
        {
          "indexed": true,
          "internalType": "address",
          "name": "admin",
          "type": "address"
        },
        {
          "indexed": false,
          "internalType": "bool",
          "name": "isAdmin",
          "type": "bool"
        }
      ],
      "name": "AdminUpdated",
      "type": "event"
    },
    {
      "anonymous": false,
      "inputs": [
        {
          "indexed": false,
          "internalType": "uint8",
          "name": "stakePeriod",
          "type": "uint8"
        },
        {
          "indexed": false,
          "internalType": "uint256",
          "name": "previousValue",
          "type": "uint256"
        },
        {
          "indexed": false,
          "internalType": "uint256",
          "name": "newValue",
          "type": "uint256"
        }
      ],
      "name": "AprPercentageUpdated",
      "type": "event"
    },
    {
      "anonymous": false,
      "inputs": [
        {
          "indexed": true,
          "internalType": "address",
          "name": "user",
          "type": "address"
        },
        {
          "indexed": false,
          "internalType": "bool",
          "name": "isBlacklisted",
          "type": "bool"
        }
      ],
      "name": "BlacklistedAddressUpdated",
      "type": "event"
    },
    {
      "anonymous": false,
      "inputs": [
        {
          "indexed": true,
          "internalType": "address",
          "name": "stakedToken",
          "type": "address"
        },
        {
          "indexed": false,
          "internalType": "uint256",
          "name": "tokenId",
          "type": "uint256"
        },
        {
          "indexed": false,
          "internalType": "bool",
          "name": "isBlacklisted",
          "type": "bool"
        }
      ],
      "name": "BlacklistedTokenIdUpdated",
      "type": "event"
    },
    {
      "anonymous": false,
      "inputs": [
        {
          "indexed": false,
          "internalType": "address",
          "name": "dpmcAddress",
          "type": "address"
        }
      ],
      "name": "DPMCAddressUpdated",
      "type": "event"
    },
    {
      "anonymous": false,
      "inputs": [
        {
          "indexed": false,
          "internalType": "uint256",
          "name": "stakeId",
          "type": "uint256"
        },
        {
          "indexed": false,
          "internalType": "uint256",
          "name": "tokenId",
          "type": "uint256"
        },
        {
          "indexed": false,
          "internalType": "address",
          "name": "staker",
          "type": "address"
        },
        {
          "indexed": false,
          "internalType": "address",
          "name": "admin",
          "type": "address"
        },
        {
          "indexed": false,
          "internalType": "uint256",
          "name": "timeStamp",
          "type": "uint256"
        }
      ],
      "name": "ForceStop",
      "type": "event"
    },
    {
      "anonymous": false,
      "inputs": [
        {
          "indexed": false,
          "internalType": "uint16",
          "name": "unstakeDays",
          "type": "uint16"
        }
      ],
      "name": "ForcedUnstakeInDaysUpdated",
      "type": "event"
    },
    {
      "anonymous": false,
      "inputs": [
        {
          "indexed": false,
          "internalType": "uint256",
          "name": "previousValue",
          "type": "uint256"
        },
        {
          "indexed": false,
          "internalType": "uint256",
          "name": "newValue",
          "type": "uint256"
        }
      ],
      "name": "MaxStakingPoolUpdated",
      "type": "event"
    },
    {
      "anonymous": false,
      "inputs": [
        {
          "indexed": false,
          "internalType": "uint256",
          "name": "minNFE",
          "type": "uint256"
        }
      ],
      "name": "MinNFEUpdated",
      "type": "event"
    },
    {
      "anonymous": false,
      "inputs": [
        {
          "indexed": false,
          "internalType": "address",
          "name": "nfeAddress",
          "type": "address"
        }
      ],
      "name": "NFEAddressUpdated",
      "type": "event"
    },
    {
      "anonymous": false,
      "inputs": [
        {
          "indexed": true,
          "internalType": "address",
          "name": "previousOwner",
          "type": "address"
        },
        {
          "indexed": true,
          "internalType": "address",
          "name": "newOwner",
          "type": "address"
        }
      ],
      "name": "OwnershipTransferred",
      "type": "event"
    },
    {
      "anonymous": false,
      "inputs": [
        {
          "indexed": false,
          "internalType": "address",
          "name": "account",
          "type": "address"
        }
      ],
      "name": "Paused",
      "type": "event"
    },
    {
      "anonymous": false,
      "inputs": [
        {
          "indexed": true,
          "internalType": "uint8",
          "name": "stakePeriod",
          "type": "uint8"
        },
        {
          "indexed": false,
          "internalType": "uint256",
          "name": "penaltyValue",
          "type": "uint256"
        }
      ],
      "name": "PenaltyPercentageUpdated",
      "type": "event"
    },
    {
      "anonymous": false,
      "inputs": [
        {
          "indexed": false,
          "internalType": "bool",
          "name": "isPercentageUsed",
          "type": "bool"
        }
      ],
      "name": "PercentageUsedUpdated",
      "type": "event"
    },
    {
      "anonymous": false,
      "inputs": [
        {
          "indexed": false,
          "internalType": "uint16",
          "name": "restrictN",
          "type": "uint16"
        }
      ],
      "name": "RestrictedReStakingUpdated",
      "type": "event"
    },
    {
      "anonymous": false,
      "inputs": [
        {
          "indexed": false,
          "internalType": "address",
          "name": "rewardAddress",
          "type": "address"
        }
      ],
      "name": "RewardAddressUpdated",
      "type": "event"
    },
    {
      "anonymous": false,
      "inputs": [
        {
          "indexed": false,
          "internalType": "address",
          "name": "signerAddress",
          "type": "address"
        }
      ],
      "name": "SignerAddressUpdated",
      "type": "event"
    },
    {
      "anonymous": false,
      "inputs": [
        {
          "indexed": false,
          "internalType": "uint256",
          "name": "stakeId",
          "type": "uint256"
        },
        {
          "indexed": false,
          "internalType": "uint256",
          "name": "tokenId",
          "type": "uint256"
        },
        {
          "indexed": false,
          "internalType": "uint256",
          "name": "tokenValue",
          "type": "uint256"
        },
        {
          "indexed": false,
          "internalType": "uint256",
          "name": "period",
          "type": "uint256"
        },
        {
          "indexed": false,
          "internalType": "uint256",
          "name": "apr",
          "type": "uint256"
        },
        {
          "indexed": false,
          "internalType": "uint256",
          "name": "penalty",
          "type": "uint256"
        },
        {
          "indexed": false,
          "internalType": "uint256",
          "name": "startedPrice",
          "type": "uint256"
        },
        {
          "indexed": false,
          "internalType": "uint256",
          "name": "startedAt",
          "type": "uint256"
        },
        {
          "indexed": false,
          "internalType": "uint256",
          "name": "endedAt",
          "type": "uint256"
        },
        {
          "indexed": false,
          "internalType": "uint256",
          "name": "forcedUnstakeAt",
          "type": "uint256"
        },
        {
          "indexed": false,
          "internalType": "uint256",
          "name": "brvLow",
          "type": "uint256"
        },
        {
          "indexed": false,
          "internalType": "uint256",
          "name": "brvHigh",
          "type": "uint256"
        }
      ],
      "name": "Staking",
      "type": "event"
    },
    {
      "anonymous": false,
      "inputs": [
        {
          "indexed": false,
          "internalType": "uint256",
          "name": "stakeId",
          "type": "uint256"
        },
        {
          "indexed": false,
          "internalType": "uint256",
          "name": "tokenId",
          "type": "uint256"
        },
        {
          "indexed": false,
          "internalType": "uint256",
          "name": "endedPrice",
          "type": "uint256"
        },
        {
          "indexed": false,
          "internalType": "uint256",
          "name": "reward",
          "type": "uint256"
        },
        {
          "indexed": false,
          "internalType": "uint256",
          "name": "finalApr",
          "type": "uint256"
        },
        {
          "indexed": false,
          "internalType": "uint256",
          "name": "finalPenalty",
          "type": "uint256"
        },
        {
          "indexed": false,
          "internalType": "uint256",
          "name": "timeStamp",
          "type": "uint256"
        }
      ],
      "name": "UnStaking",
      "type": "event"
    },
    {
      "anonymous": false,
      "inputs": [
        {
          "indexed": false,
          "internalType": "address",
          "name": "account",
          "type": "address"
        }
      ],
      "name": "Unpaused",
      "type": "event"
    },
    {
      "inputs": [
        {
          "internalType": "uint256",
          "name": "_aprPercentage",
          "type": "uint256"
        }
      ],
      "name": "AMP",
      "outputs": [
        {
          "internalType": "uint256",
          "name": "",
          "type": "uint256"
        }
      ],
      "stateMutability": "pure",
      "type": "function"
    },
    {
      "inputs": [
        {
          "internalType": "uint256",
          "name": "",
          "type": "uint256"
        }
      ],
      "name": "APR",
      "outputs": [
        {
          "internalType": "uint256",
          "name": "",
          "type": "uint256"
        }
      ],
      "stateMutability": "view",
      "type": "function"
    },
    {
      "inputs": [
        {
          "internalType": "uint256",
          "name": "_gpv",
          "type": "uint256"
        },
        {
          "internalType": "uint256",
          "name": "_spp",
          "type": "uint256"
        }
      ],
      "name": "BRV",
      "outputs": [
        {
          "internalType": "uint256",
          "name": "",
          "type": "uint256"
        }
      ],
      "stateMutability": "pure",
      "type": "function"
    },
    {
      "inputs": [],
      "name": "DEFAULT_PERCENTAGE_USED",
      "outputs": [
        {
          "internalType": "bool",
          "name": "",
          "type": "bool"
        }
      ],
      "stateMutability": "view",
      "type": "function"
    },
    {
      "inputs": [
        {
          "internalType": "uint256",
          "name": "",
          "type": "uint256"
        },
        {
          "internalType": "uint256",
          "name": "",
          "type": "uint256"
        }
      ],
      "name": "ESTIMATED_BRV",
      "outputs": [
        {
          "internalType": "uint256",
          "name": "",
          "type": "uint256"
        }
      ],
      "stateMutability": "view",
      "type": "function"
    },
    {
      "inputs": [],
      "name": "FORCED_UNSTAKE_IN_DAYS",
      "outputs": [
        {
          "internalType": "uint256",
          "name": "",
          "type": "uint256"
        }
      ],
      "stateMutability": "view",
      "type": "function"
    },
    {
      "inputs": [
        {
          "internalType": "uint256",
          "name": "_tokenRateUSDT",
          "type": "uint256"
        },
        {
          "internalType": "uint256",
          "name": "_tokenValue",
          "type": "uint256"
        }
      ],
      "name": "GPV",
      "outputs": [
        {
          "internalType": "uint256",
          "name": "",
          "type": "uint256"
        }
      ],
      "stateMutability": "pure",
      "type": "function"
    },
    {
      "inputs": [],
      "name": "MIN_TOKEN_TO_STAKE",
      "outputs": [
        {
          "internalType": "uint256",
          "name": "",
          "type": "uint256"
        }
      ],
      "stateMutability": "view",
      "type": "function"
    },
    {
      "inputs": [
        {
          "internalType": "uint256",
          "name": "",
          "type": "uint256"
        }
      ],
      "name": "PENALTY",
      "outputs": [
        {
          "internalType": "uint256",
          "name": "",
          "type": "uint256"
        }
      ],
      "stateMutability": "view",
      "type": "function"
    },
    {
      "inputs": [],
      "name": "RESTRICTED_RE_STAKING",
      "outputs": [
        {
          "internalType": "uint16",
          "name": "",
          "type": "uint16"
        }
      ],
      "stateMutability": "view",
      "type": "function"
    },
    {
      "inputs": [],
      "name": "REWARD",
      "outputs": [
        {
          "internalType": "address",
          "name": "",
          "type": "address"
        }
      ],
      "stateMutability": "view",
      "type": "function"
    },
    {
      "inputs": [],
      "name": "SIGNER",
      "outputs": [
        {
          "internalType": "address",
          "name": "",
          "type": "address"
        }
      ],
      "stateMutability": "view",
      "type": "function"
    },
    {
      "inputs": [
        {
          "internalType": "uint256",
          "name": "_amp",
          "type": "uint256"
        },
        {
          "internalType": "uint256",
          "name": "_stakePeriod",
          "type": "uint256"
        }
      ],
      "name": "SPP",
      "outputs": [
        {
          "internalType": "uint256",
          "name": "",
          "type": "uint256"
        }
      ],
      "stateMutability": "pure",
      "type": "function"
    },
    {
      "inputs": [
        {
          "internalType": "uint256",
          "name": "",
          "type": "uint256"
        }
      ],
      "name": "STAKING_REWARD",
      "outputs": [
        {
          "internalType": "uint256",
          "name": "",
          "type": "uint256"
        }
      ],
      "stateMutability": "view",
      "type": "function"
    },
    {
      "inputs": [
        {
          "internalType": "address",
          "name": "_admin",
          "type": "address"
        },
        {
          "internalType": "bool",
          "name": "_true",
          "type": "bool"
        }
      ],
      "name": "addOrRemoveAdmin",
      "outputs": [],
      "stateMutability": "nonpayable",
      "type": "function"
    },
    {
      "inputs": [
        {
          "internalType": "uint256",
          "name": "_apr",
          "type": "uint256"
        },
        {
          "internalType": "uint256",
          "name": "_tokenRateUSDT",
          "type": "uint256"
        },
        {
          "internalType": "uint256",
          "name": "_tokenValue",
          "type": "uint256"
        },
        {
          "internalType": "uint256",
          "name": "_stakePeriod",
          "type": "uint256"
        }
      ],
      "name": "calculateBasedRewardValue",
      "outputs": [
        {
          "internalType": "uint256",
          "name": "",
          "type": "uint256"
        }
      ],
      "stateMutability": "pure",
      "type": "function"
    },
    {
      "inputs": [
        {
          "internalType": "uint256",
          "name": "_usdtValue",
          "type": "uint256"
        },
        {
          "internalType": "uint256",
          "name": "_penaltyPercentage",
          "type": "uint256"
        }
      ],
      "name": "calculatePenaltyBRV",
      "outputs": [
        {
          "internalType": "uint256",
          "name": "",
          "type": "uint256"
        }
      ],
      "stateMutability": "view",
      "type": "function"
    },
    {
      "inputs": [
        {
          "internalType": "uint256",
          "name": "_aprValue",
          "type": "uint256"
        },
        {
          "internalType": "uint8",
          "name": "_stakePeriod",
          "type": "uint8"
        },
        {
          "internalType": "uint256",
          "name": "_penaltyPercentage",
          "type": "uint256"
        }
      ],
      "name": "calculatePenaltyValue",
      "outputs": [
        {
          "internalType": "uint256",
          "name": "",
          "type": "uint256"
        }
      ],
      "stateMutability": "view",
      "type": "function"
    },
    {
      "inputs": [
        {
          "internalType": "uint256",
          "name": "value",
          "type": "uint256"
        },
        {
          "internalType": "uint256",
          "name": "basisPoints",
          "type": "uint256"
        }
      ],
      "name": "calculatePercentage",
      "outputs": [
        {
          "internalType": "uint256",
          "name": "",
          "type": "uint256"
        }
      ],
      "stateMutability": "view",
      "type": "function"
    },
    {
      "inputs": [
        {
          "internalType": "uint256",
          "name": "usdtAmount",
          "type": "uint256"
        },
        {
          "internalType": "uint256",
          "name": "tokenRateUSDT",
          "type": "uint256"
        }
      ],
      "name": "convertUsdtToToken",
      "outputs": [
        {
          "internalType": "uint256",
          "name": "",
          "type": "uint256"
        }
      ],
      "stateMutability": "pure",
      "type": "function"
    },
    {
      "inputs": [],
      "name": "erc20token",
      "outputs": [
        {
          "internalType": "address",
          "name": "",
          "type": "address"
        }
      ],
      "stateMutability": "view",
      "type": "function"
    },
    {
      "inputs": [],
      "name": "erc721token",
      "outputs": [
        {
          "internalType": "address",
          "name": "",
          "type": "address"
        }
      ],
      "stateMutability": "view",
      "type": "function"
    },
    {
      "inputs": [
        {
          "internalType": "uint256",
          "name": "stakeId",
          "type": "uint256"
        }
      ],
      "name": "forceStop",
      "outputs": [],
      "stateMutability": "nonpayable",
      "type": "function"
    },
    {
      "inputs": [
        {
          "internalType": "uint256",
          "name": "_stakeEndedAt",
          "type": "uint256"
        }
      ],
      "name": "forcedUnstakePeriodInUnixTimestamp",
      "outputs": [
        {
          "internalType": "uint256",
          "name": "",
          "type": "uint256"
        }
      ],
      "stateMutability": "pure",
      "type": "function"
    },
    {
      "inputs": [
        {
          "internalType": "uint256",
          "name": "tokenPrice",
          "type": "uint256"
        },
        {
          "internalType": "uint256",
          "name": "tokenAmount",
          "type": "uint256"
        }
      ],
      "name": "getCertPriceInUsdt",
      "outputs": [
        {
          "internalType": "uint256",
          "name": "",
          "type": "uint256"
        }
      ],
      "stateMutability": "pure",
      "type": "function"
    },
    {
      "inputs": [
        {
          "internalType": "address",
          "name": "",
          "type": "address"
        }
      ],
      "name": "isAddressBlacklisted",
      "outputs": [
        {
          "internalType": "bool",
          "name": "",
          "type": "bool"
        }
      ],
      "stateMutability": "view",
      "type": "function"
    },
    {
      "inputs": [
        {
          "internalType": "address",
          "name": "",
          "type": "address"
        }
      ],
      "name": "isAdmin",
      "outputs": [
        {
          "internalType": "bool",
          "name": "",
          "type": "bool"
        }
      ],
      "stateMutability": "view",
      "type": "function"
    },
    {
      "inputs": [
        {
          "internalType": "uint256",
          "name": "counter",
          "type": "uint256"
        }
      ],
      "name": "isRestricted",
      "outputs": [
        {
          "internalType": "bool",
          "name": "",
          "type": "bool"
        }
      ],
      "stateMutability": "view",
      "type": "function"
    },
    {
      "inputs": [
        {
          "internalType": "address",
          "name": "",
          "type": "address"
        },
        {
          "internalType": "uint256",
          "name": "",
          "type": "uint256"
        }
      ],
      "name": "isTokenIdBlacklisted",
      "outputs": [
        {
          "internalType": "bool",
          "name": "",
          "type": "bool"
        }
      ],
      "stateMutability": "view",
      "type": "function"
    },
    {
      "inputs": [],
      "name": "maxStakingPool",
      "outputs": [
        {
          "internalType": "uint256",
          "name": "",
          "type": "uint256"
        }
      ],
      "stateMutability": "view",
      "type": "function"
    },
    {
      "inputs": [
        {
          "internalType": "address",
          "name": "operator",
          "type": "address"
        },
        {
          "internalType": "address",
          "name": "from",
          "type": "address"
        },
        {
          "internalType": "uint256",
          "name": "tokenId",
          "type": "uint256"
        },
        {
          "internalType": "bytes",
          "name": "data",
          "type": "bytes"
        }
      ],
      "name": "onERC721Received",
      "outputs": [
        {
          "internalType": "bytes4",
          "name": "",
          "type": "bytes4"
        }
      ],
      "stateMutability": "nonpayable",
      "type": "function"
    },
    {
      "inputs": [],
      "name": "owner",
      "outputs": [
        {
          "internalType": "address",
          "name": "",
          "type": "address"
        }
      ],
      "stateMutability": "view",
      "type": "function"
    },
    {
      "inputs": [],
      "name": "pause",
      "outputs": [],
      "stateMutability": "nonpayable",
      "type": "function"
    },
    {
      "inputs": [],
      "name": "paused",
      "outputs": [
        {
          "internalType": "bool",
          "name": "",
          "type": "bool"
        }
      ],
      "stateMutability": "view",
      "type": "function"
    },
    {
      "inputs": [
        {
          "internalType": "uint256",
          "name": "_stakePeriod",
          "type": "uint256"
        }
      ],
      "name": "periodInUnixTimestamp",
      "outputs": [
        {
          "internalType": "uint256",
          "name": "",
          "type": "uint256"
        }
      ],
      "stateMutability": "view",
      "type": "function"
    },
    {
      "inputs": [],
      "name": "periodList",
      "outputs": [
        {
          "internalType": "uint256[]",
          "name": "",
          "type": "uint256[]"
        }
      ],
      "stateMutability": "view",
      "type": "function"
    },
    {
      "inputs": [
        {
          "internalType": "address",
          "name": "",
          "type": "address"
        },
        {
          "internalType": "uint256",
          "name": "",
          "type": "uint256"
        }
      ],
      "name": "receivedERC721",
      "outputs": [
        {
          "internalType": "address",
          "name": "operator",
          "type": "address"
        },
        {
          "internalType": "address",
          "name": "from",
          "type": "address"
        },
        {
          "internalType": "uint256",
          "name": "tokenId",
          "type": "uint256"
        },
        {
          "internalType": "bytes",
          "name": "data",
          "type": "bytes"
        }
      ],
      "stateMutability": "view",
      "type": "function"
    },
    {
      "inputs": [],
      "name": "renounceOwnership",
      "outputs": [],
      "stateMutability": "nonpayable",
      "type": "function"
    },
    {
      "inputs": [
        {
          "internalType": "address",
          "name": "",
          "type": "address"
        },
        {
          "internalType": "uint256",
          "name": "",
          "type": "uint256"
        }
      ],
      "name": "restrictedReStakingCounter",
      "outputs": [
        {
          "internalType": "uint256",
          "name": "",
          "type": "uint256"
        }
      ],
      "stateMutability": "view",
      "type": "function"
    },
    {
      "inputs": [
        {
          "internalType": "uint256",
          "name": "",
          "type": "uint256"
        }
      ],
      "name": "stakes",
      "outputs": [
        {
          "internalType": "address",
          "name": "stakedToken",
          "type": "address"
        },
        {
          "internalType": "address",
          "name": "staker",
          "type": "address"
        },
        {
          "internalType": "uint256",
          "name": "tokenId",
          "type": "uint256"
        },
        {
          "internalType": "uint256",
          "name": "stakedValue",
          "type": "uint256"
        },
        {
          "internalType": "uint256",
          "name": "stakedValueUSDT",
          "type": "uint256"
        },
        {
          "internalType": "uint256",
          "name": "startedPrice",
          "type": "uint256"
        },
        {
          "internalType": "uint256",
          "name": "endedPrice",
          "type": "uint256"
        },
        {
          "internalType": "uint256",
          "name": "startedAt",
          "type": "uint256"
        },
        {
          "internalType": "uint256",
          "name": "endedAt",
          "type": "uint256"
        },
        {
          "internalType": "uint256",
          "name": "forcedUnstakeAt",
          "type": "uint256"
        },
        {
          "internalType": "uint8",
          "name": "stakePeriod",
          "type": "uint8"
        },
        {
          "internalType": "uint256",
          "name": "aprPercentage",
          "type": "uint256"
        },
        {
          "internalType": "uint256",
          "name": "penaltyPercentage",
          "type": "uint256"
        }
      ],
      "stateMutability": "view",
      "type": "function"
    },
    {
      "inputs": [
        {
          "internalType": "uint256",
          "name": "tokenId",
          "type": "uint256"
        },
        {
          "internalType": "uint8",
          "name": "stakePeriod",
          "type": "uint8"
        },
        {
          "internalType": "uint256",
          "name": "tokenRateUSDT",
          "type": "uint256"
        },
        {
          "internalType": "uint256",
          "name": "exp",
          "type": "uint256"
        },
        {
          "internalType": "bytes",
          "name": "sig",
          "type": "bytes"
        }
      ],
      "name": "staking",
      "outputs": [
        {
          "internalType": "uint256",
          "name": "tokenValue",
          "type": "uint256"
        }
      ],
      "stateMutability": "nonpayable",
      "type": "function"
    },
    {
      "inputs": [
        {
          "internalType": "bytes4",
          "name": "interfaceId",
          "type": "bytes4"
        }
      ],
      "name": "supportsInterface",
      "outputs": [
        {
          "internalType": "bool",
          "name": "",
          "type": "bool"
        }
      ],
      "stateMutability": "view",
      "type": "function"
    },
    {
      "inputs": [],
      "name": "totalStakingPool",
      "outputs": [
        {
          "internalType": "uint256",
          "name": "",
          "type": "uint256"
        }
      ],
      "stateMutability": "view",
      "type": "function"
    },
    {
      "inputs": [
        {
          "internalType": "address",
          "name": "newOwner",
          "type": "address"
        }
      ],
      "name": "transferOwnership",
      "outputs": [],
      "stateMutability": "nonpayable",
      "type": "function"
    },
    {
      "inputs": [
        {
          "internalType": "uint256",
          "name": "stakeId",
          "type": "uint256"
        },
        {
          "internalType": "uint256",
          "name": "tokenRateUSDT",
          "type": "uint256"
        },
        {
          "internalType": "uint256",
          "name": "exp",
          "type": "uint256"
        },
        {
          "internalType": "bytes",
          "name": "sig",
          "type": "bytes"
        }
      ],
      "name": "unStaking",
      "outputs": [],
      "stateMutability": "nonpayable",
      "type": "function"
    },
    {
      "inputs": [],
      "name": "unpause",
      "outputs": [],
      "stateMutability": "nonpayable",
      "type": "function"
    },
    {
      "inputs": [
        {
          "internalType": "uint8",
          "name": "_stakePeriod",
          "type": "uint8"
        },
        {
          "internalType": "uint256",
          "name": "_aprValue",
          "type": "uint256"
        }
      ],
      "name": "updateAprPercentage",
      "outputs": [],
      "stateMutability": "nonpayable",
      "type": "function"
    },
    {
      "inputs": [
        {
          "internalType": "address",
          "name": "_user",
          "type": "address"
        },
        {
          "internalType": "bool",
          "name": "_isBlacklisted",
          "type": "bool"
        }
      ],
      "name": "updateBlacklistedAddress",
      "outputs": [],
      "stateMutability": "nonpayable",
      "type": "function"
    },
    {
      "inputs": [
        {
          "internalType": "uint256",
          "name": "tokenId",
          "type": "uint256"
        },
        {
          "internalType": "bool",
          "name": "_isBlacklisted",
          "type": "bool"
        }
      ],
      "name": "updateBlacklistedTokenId",
      "outputs": [],
      "stateMutability": "nonpayable",
      "type": "function"
    },
    {
      "inputs": [
        {
          "internalType": "address",
          "name": "_dpmcAddress",
          "type": "address"
        }
      ],
      "name": "updateDPMCaddress",
      "outputs": [],
      "stateMutability": "nonpayable",
      "type": "function"
    },
    {
      "inputs": [
        {
          "internalType": "uint16",
          "name": "_days",
          "type": "uint16"
        }
      ],
      "name": "updateForceUnstakeInDays",
      "outputs": [],
      "stateMutability": "nonpayable",
      "type": "function"
    },
    {
      "inputs": [
        {
          "internalType": "uint256",
          "name": "newMaxStakingPool",
          "type": "uint256"
        }
      ],
      "name": "updateMaxStakingPool",
      "outputs": [],
      "stateMutability": "nonpayable",
      "type": "function"
    },
    {
      "inputs": [
        {
          "internalType": "uint256",
          "name": "_mintStake",
          "type": "uint256"
        }
      ],
      "name": "updateMinStake",
      "outputs": [],
      "stateMutability": "nonpayable",
      "type": "function"
    },
    {
      "inputs": [
        {
          "internalType": "address",
          "name": "_nfeAddress",
          "type": "address"
        }
      ],
      "name": "updateNFEaddress",
      "outputs": [],
      "stateMutability": "nonpayable",
      "type": "function"
    },
    {
      "inputs": [
        {
          "internalType": "uint8",
          "name": "_stakePeriod",
          "type": "uint8"
        },
        {
          "internalType": "uint256",
          "name": "_penaltyValue",
          "type": "uint256"
        }
      ],
      "name": "updatePenaltyPercentage",
      "outputs": [],
      "stateMutability": "nonpayable",
      "type": "function"
    },
    {
      "inputs": [
        {
          "internalType": "bool",
          "name": "_true",
          "type": "bool"
        }
      ],
      "name": "updatePercentageUsed",
      "outputs": [],
      "stateMutability": "nonpayable",
      "type": "function"
    },
    {
      "inputs": [
        {
          "internalType": "uint16",
          "name": "_restrictN",
          "type": "uint16"
        }
      ],
      "name": "updateRestrictedReStaking",
      "outputs": [],
      "stateMutability": "nonpayable",
      "type": "function"
    },
    {
      "inputs": [
        {
          "internalType": "address",
          "name": "_rewardAddress",
          "type": "address"
        }
      ],
      "name": "updateRewardAddress",
      "outputs": [],
      "stateMutability": "nonpayable",
      "type": "function"
    },
    {
      "inputs": [
        {
          "internalType": "address",
          "name": "_signerAddress",
          "type": "address"
        }
      ],
      "name": "updateSignerAddress",
      "outputs": [],
      "stateMutability": "nonpayable",
      "type": "function"
    },
    {
      "inputs": [
        {
          "internalType": "bytes",
          "name": "",
          "type": "bytes"
        }
      ],
      "name": "usedSig",
      "outputs": [
        {
          "internalType": "bool",
          "name": "",
          "type": "bool"
        }
      ],
      "stateMutability": "view",
      "type": "function"
    }
  ],
  "bytecode": "0x6080806040523461015a573315610144576000547401900c6f8aacd4aa70f1477be27ccbbd4bf9cc011e604051913360018060a01b0382167f8be0079c531659141344cd1fd0a4f28419497f9722a3daafe3b4186f6b6457e0600080a360018060a81b0319908160ff60a01b1933169116176000556001805560016002540160025568056bc75e2d63100000600355620f424060045560065473b63683c2d9563c25f65793164a282ef82c0a03f660018060a01b0319734515b54ca126c52a5c25d98c2e5b94edd59971cc816007541617600755600854161760085575143e5c4160eaef1c01251d23f2a04f0b3e9d6c1000006009549160018060b01b031916176006551617600955601e600555620249f0806010558060135580601655601955620186a080601d5580602055806023556026556000600b5561349f90816101608239f35b631e4fbdf760e01b815260006004820152602490fd5b600080fdfe6080604052600436101561001257600080fd5b60003560e01c806301ffc9a7146103d2578063054ce4f5146103cd5780630e77bf57146103c8578063150b7a02146103c35780631dcea427146103be5780632133e3b91461030a5780632215de50146103b957806324d7806c146103b457806328f85daa146103af57806329ecb1ec146103aa5780632e6bcd76146103a5578063393cbc0f146103a05780633d20ec5f1461039b5780633da18bcf146103965780633da48c6f146103915780633f4ba83a1461038c5780634a3dc11b14610387578063564bd0e714610382578063582abd121461037d5780635a626a50146103785780635c975abb146103735780635ed127481461036e5780635f19b6f2146103695780636754c8e1146103645780636a5d3f751461035f5780636ac3d9e61461035a5780636f79b8eb14610355578063715018a61461035057806372cb1ebf1461034b578063749a0954146103465780637be3032a146103415780637effcc2f1461033c57806381057ee2146103375780638456cb5914610332578063899982c21461032d57806389fa2c03146103285780638cdb442f146103235780638da5cb5b1461031e5780638fa2a9f01461031957806390683e8c14610314578063944dd5a21461030f578063978ddca11461030a5780639a00eb4414610305578063a5dc971314610300578063b3bdebcf146102fb578063b7c46096146102f6578063b83a3091146102f1578063bc8daf8a146102ec578063c789714c146102e7578063c9282121146102e2578063cab34c08146102dd578063d3316cdb146102d8578063d5a44f86146102d3578063d8f8467f146102ce578063dcb6dc67146102c9578063e5ebccf4146102c4578063f2fde38b146102bf578063f56b3c76146102ba578063f74af801146102b55763ff51c6a8146102b057600080fd5b6126a3565b61267b565b61265a565b6125ce565b6125a5565b612508565b612487565b612391565b612365565b61233c565b612316565b6122ea565b6122cc565b6121b1565b612187565b612087565b611fbc565b611f4a565b610798565b611ead565b611e6b565b611dc0565b611d97565b611d1e565b611cb2565b611c94565b611c07565b611be5565b611bab565b611b8d565b611b61565b611ada565b611a7f565b6115ee565b6115d0565b6113b4565b610fa1565b610f2a565b610eaa565b610e67565b610da8565b610d7b565b610c31565b610bc6565b610afc565b610ade565b610ab9565b610a9b565b610a4b565b6109b2565b61091c565b610869565b6107ec565b6107cd565b61076f565b6105d3565b610471565b61042d565b346104285760203660031901126104285760043563ffffffff60e01b811680910361042857602090630a85bd0160e11b8114908115610417575b506040519015158152f35b6301ffc9a760e01b1490503861040c565b600080fd5b34610428576040366003190112610428576020670de0b6b3a76400006104576004356024356128cb565b04604051908152f35b6001600160a01b0381160361042857565b34610428576020366003190112610428577fd6692b9507449fc2250c8a8b87ff7bedc93d7b1df474f347764a1caed09f112760206004356104b181610460565b33600052602a825260ff6040600020541680156104fa575b6104d2906126f9565b600880546001600160a01b0319166001600160a01b03929092169182179055604051908152a1005b506000546001600160a01b031633146104c9565b634e487b7160e01b600052604160045260246000fd5b67ffffffffffffffff811161053857604052565b61050e565b6104c0810190811067ffffffffffffffff82111761053857604052565b90601f8019910116810190811067ffffffffffffffff82111761053857604052565b81601f820112156104285780359067ffffffffffffffff821161053857604051926105b1601f8401601f19166020018561055a565b8284526020838301011161042857816000926020809301838601378301015290565b34610428576080366003190112610428576004356105f081610460565b6024356105fc81610460565b6044359067ffffffffffffffff906064358281116104285761062290369060040161057c565b6001600160a01b038281166000908152602e602090815260408083208884528252822080546001600160a01b031916939098169290921787559195909460039190600182810180546001600160a01b0319166001600160a01b0390971696909617909555600282015501948051938411610538576106aa846106a48854612005565b8861279c565b8491601f85116001146106f75793945084929190836106ec575b50501b916000199060031b1c19161790555b604051630a85bd0160e11b8152602090f35b0390f35b0151925038806106c4565b92948490601f1982169061071089600052602060002090565b95905b8883831061074a5750505010610731575b505050811b0190556106d6565b015160001960f88460031b161c19169055388080610724565b858701518855909601959485019487935090810190610713565b600091031261042857565b34610428576000366003190112610428576008546040516001600160a01b039091168152602090f35b346104285760403660031901126104285760206107c56107bc6024356004356128cb565b60045490612889565b604051908152f35b346104285760203660031901126104285760206107c5600435426129d9565b346104285760203660031901126104285760043561080981610460565b60018060a01b0316600052602a602052602060ff604060002054166040519015158152f35b6020908160408183019282815285518094520193019160005b828110610855575050505090565b835185529381019392810192600101610847565b34610428576000366003190112610428576040516108868161053d565b602581526104a0366020830137600090815b600d808210156108d9578101546108b8575b6108b39061299b565b610898565b916108d181846108cb6108b394866129aa565b5261299b565b9290506108aa565b838352604051806106e8858261082e565b8015150361042857565b60409060031901126104285760043561090c81610460565b90602435610919816108ea565b90565b346104285761092a366108f4565b7f9a870aac051d9e1e2b9c52fdaf1ea568e8accfe6055ea83e382e3978f9eb97036020600093338552602a825260ff604086205416801561099f575b61096f906126f9565b6001600160a01b03168085526029825260408520805460ff191660ff86151516179055926040519015158152a280f35b5084546001600160a01b03163314610966565b34610428576020366003190112610428577f190bd073cd47a353059b8d9f50a8eac16e16eda9cbe181e6230d15fda03e315060206004356109f2816108ea565b33600052602a825260ff604060002054168015610a37575b610a13906126f9565b151560095460ff60a01b8260a01b169060ff60a01b191617600955604051908152a1005b506000546001600160a01b03163314610a0a565b3461042857604036600319011261042857600435610a6881610460565b60018060a01b0316600052602b6020526040600020602435600052602052602060ff604060002054166040519015158152f35b34610428576000366003190112610428576020600a54604051908152f35b34610428576040366003190112610428576020629896806104576024356004356128cb565b34610428576000366003190112610428576020600354604051908152f35b3461042857600080600319360112610bc357338152602a60205260ff6040822054168015610bb0575b610b2e906126f9565b805460ff8160a01c1615610b745760ff60a01b191681556040513381527f5db9ee0a495bf2e6ff9c91a7834c1ba4fdd244a5e8aa4e537bd38aeae4b073aa90602090a180f35b60405162461bcd60e51b815260206004820152601460248201527314185d5cd8589b194e881b9bdd081c185d5cd95960621b6044820152606490fd5b5080546001600160a01b03163314610b25565b80fd5b3461042857604036600319011261042857600435610be381610460565b60018060a01b0316600052602c60205260406000206024356000526020526020604060002054604051908152f35b6004359060ff8216820361042857565b6024359060ff8216820361042857565b3461042857604036600319011261042857610c4a610c11565b60243533600052602a60205260ff604060002054168015610d67575b610c6f906126f9565b6127108110610cfc57600d821015610cf75781610cf27f1ec7e57e40f378f398dd8b69b5db8c08de9107ee80af422f5c1c01dd62cab5e393600d015492610cd281610cb985611b3d565b90919082549060031b91821b91600019901b1916179055565b6040519384938460409194939260ff606083019616825260208201520152565b0390a1005b611b27565b60405162461bcd60e51b815260206004820152603960248201527f4156323a204150522070657263656e746167652073686f756c6420626520677260448201527f6561746572207468616e206f7220657175616c20746f203125000000000000006064820152608490fd5b506000546001600160a01b03163314610c66565b346104285760003660031901126104285760065460405160109190911c6001600160a01b03168152602090f35b346104285760408060031936011261042857600435907f7fd5dc1285cb0c462bf26026ca2f87edc5fb4968f0f58459bad7d084632e363660243591610dec836108ea565b600093338552602a60205260ff82862054168015610e54575b610e0e906126f9565b6007546001600160a01b039081168652602b60209081528387208388529052828620805460ff191660ff871515161790556007541693825191825215156020820152a280f35b5084546001600160a01b03163314610e05565b3461042857600036600319011261042857602060ff60005460a01c166040519015158152f35b60209060031901126104285760043561ffff811681036104285790565b34610428577f3e5c906c80ec016700f602705c4e9400266dbada62055dc31d9f514e51dbb0b6602061ffff610ede36610e8d565b33600052602a835260ff604060002054168015610f16575b610eff906126f9565b168061ffff196006541617600655604051908152a1005b506000546001600160a01b03163314610ef6565b34610428577fb99da7a4126651a2f5c90f9ca3f3a867c6beb085b5841cf4d7f1da6dab911424602061ffff610f5e36610e8d565b33600052602a835260ff604060002054168015610f8d575b610f7f906126f9565b1680600555604051908152a1005b506000546001600160a01b03163314610f76565b346104285760a036600319011261042857600435610fbd610c21565b90604435916064359160843567ffffffffffffffff811161042857610fe690369060040161057c565b93610fef612755565b610ff7612dba565b61100082613042565b9361102461101086600a546129cc565b600b5480159182156113a9575b5050612a0f565b61102f428211612a5b565b61105161104c61104861104189611f96565b5460ff1690565b1590565b612a9f565b61107161106a61106086611b3d565b90549060031b1c90565b1515612ae4565b336000908152602960205260409020611096906110919061104890611041565b612b30565b600754611180906001600160a01b0316966110e46110df611048611041886110d08d60018060a01b0316600052602b602052604060002090565b90600052602052604060002090565b612b7b565b61111861111361104861110d886110d08d60018060a01b0316600052602c602052604060002090565b54612857565b612bc6565b6040513360601b6bffffffffffffffffffffffff191660208083019182526034830188905260f889901b6001600160f81b03191660548401526055830187905260758301959095529061117881609581015b03601f19810183528261055a565b519020612ddd565b6006546111a09060101c6001600160a01b03165b6001600160a01b031690565b6001600160a01b0397889290916111b991841614612c38565b6040516331a9108f60e11b81526004810186905291169682826024818b5afa908115611348576111f49260009261137a575b50163314612c9b565b60405163e985e9c560e01b815233600482015230602482015281816044818a5afa9081156113485761122f9260009261134d575b5050612cfc565b61123d600354851015612d48565b670de0b6b3a764000061125082866128cb565b0490853b1561042857604051632142170760e11b815233600482015230602482015260448101849052956000908790606490829084905af1938415611348576106e8966113169561132f575b50856112aa81848487612f60565b9590946112be836002549287878686613099565b6007546001600160a01b03166000908152602c602052604090206112e39083906110d0565b6112ed81546129be565b90556113036112fe84600a546129cc565b600a55565b611311600160025401600255565b61315b565b61131f60018055565b6040519081529081906020820190565b8061133c61134292610524565b80610764565b3861129c565b612c8f565b61136c9250803d10611373575b611364818361055a565b810190612ce7565b3880611228565b503d61135a565b61139b919250843d86116113a2575b611393818361055a565b810190612c7a565b90386111eb565b503d611389565b11159050388061101d565b3461042857602036600319011261042857600435600090338252602a60205260ff60408320541680156115bd575b6113eb906126f9565b6113f3612dba565b61140781600052600c602052604060002090565b906006820191611418835415612fdb565b60075461142f90611194906001600160a01b031681565b60028201805460405163cb91449160e01b81526004810191909152909491602090829060249082905afa80156113485761147c926112fe928892611589575b50600190555b600a546128de565b60075460019061149690611194906001600160a01b031681565b9101805490919085906001600160a01b031691855490803b1561158557604051632142170760e11b81523060048201526001600160a01b0394909416602485015260448401919091528290606490829084905af18015611348577f7e7485263a6ed023df382c64345ce672e30eff633c5eaf92758495f72a485812946115639261152f92611572575b505492546001600160a01b031690565b6040805194855260208501939093526001600160a01b031691830191909152336060830152426080830152819060a0820190565b0390a161156f60018055565b80f35b8061133c61157f92610524565b3861151f565b8280fd5b6114749192506115af9060203d81116115b6575b6115a7818361055a565b810190613033565b919061146e565b503d61159d565b5081546001600160a01b031633146113e2565b34610428576000366003190112610428576020600554604051908152f35b34610428576080366003190112610428576004602435813560443560643567ffffffffffffffff811161042857611628903690860161057c565b91611631612dba565b61163c428311612a5b565b61165361164e61104861104186611f96565b6131fb565b61166781600052600c602052604060002090565b946116b26040948551946020956111788161116a898201948c8a3388929091607494926bffffffffffffffffffffffff199060601b1684526014840152603483015260548201520190565b6006546116df906116ce9060101c6001600160a01b0316611194565b6001600160a01b0392831614613247565b60068701906116ef825415612fdb565b600188015461170a9082166001600160a01b0316331461328a565b61171a60098901544210156132ec565b60088801544210926009549260ff8460a01c169384600014611a5f578a600b810154955b15611a4057600c0154955b15611a0e5761177c8a6117778d8661176f8b611769600a85015460ff1690565b8c6128eb565b910154612925565b612977565b935b60085461179590611194906001600160a01b031681565b8a516370a0823160e01b8152929091166001600160a01b0381168584019081529192918a90839081906020010381865afa928315611348576117e787611818958d956000916119f1575b501015613338565b8b51636eb1769f60e11b81526001600160a01b03909216868301908152306020820152919384928391829160400190565b03915afa908115611348576118399185916000916119d4575b501015613384565b60075460029061185390611194906001600160a01b031681565b9a019182549a803b15610428578951632142170760e11b815230838201908152336020820152604081019d909d529b6000918d9182908490829060600103925af1908115611348576119109b89926119c1575b506008546118d79086906118c2906001600160a01b0316611194565b6009543391906001600160a01b0316906133d0565b6007546118ee90611194906001600160a01b031681565b84548b5163cb91449160e01b8152928301908152919c8d928391829160200190565b03915afa998a15611348577f0519ed8454f376d7dcdc5c60d5f398998c922d126892c894090497ad17ab34ca9a8a61195d936112fe936119949b6000946119a2575b505055600a546128de565b54955196879642958893909796959260c0959260e08601998652602086015260408501526060840152608083015260a08201520152565b0390a16119a060018055565b005b6119b9929450803d106115b6576115a7818361055a565b913880611952565b8061133c6119ce92610524565b386118a6565b6119eb91508a3d8c116115b6576115a7818361055a565b38611831565b611a089150863d88116115b6576115a7818361055a565b386117df565b611a3a8a6117778d611a32611a2c600a600384015493015460ff1690565b60ff1690565b90838a61294c565b9361177e565b611060611a54600a611a5993015460ff1690565b611b4f565b95611749565b8a611a79611060611a74600a84015460ff1690565b611b3d565b9561173e565b3461042857600080600319360112610bc357611a996126cd565b80546001600160a01b03198116825581906001600160a01b03167f8be0079c531659141344cd1fd0a4f28419497f9722a3daafe3b4186f6b6457e08280a380f35b3461042857608036600319011261042857602062989680610457611b0a606435611b05600435612932565b6128cb565b670de0b6b3a7640000611b216044356024356128cb565b046128cb565b634e487b7160e01b600052603260045260246000fd5b600d811015610cf757600d0190600090565b600d811015610cf757601a0190600090565b3461042857602036600319011261042857600435600d81101561042857602090601a0154604051908152f35b346104285760203660031901126104285760206107c5600435612932565b3461042857604036600319011261042857600435600052602d60205260406000206024356000526020526020604060002054604051908152f35b3461042857600036600319011261042857602061ffff60065416604051908152f35b3461042857600080600319360112610bc357338152602a60205260ff6040822054168015611c81575b611c39906126f9565b611c41612755565b805460ff60a01b1916600160a01b1781556040513381527f62e78cea01bee320cd4e420270b5ea74000d11b0c9f74754ebdbfc544b05a25890602090a180f35b5080546001600160a01b03163314611c30565b346104285760203660031901126104285760206107c5600435612a00565b346104285760207f235bc17e7930760029e9f4d860a2a8089976de5b381cf8380fc11c1d88a11133611ce3366108f4565b9290611ced6126cd565b6001600160a01b03166000818152602a835260409020805460ff191660ff86151516179055926040519015158152a2005b34610428576020366003190112610428577fa260dc78a7ff19ddd810f273dd9d4773ba96a8ae7b97e8762b3a40de2f201929602060043533600052602a825260ff604060002054168015611d83575b611d76906126f9565b80600355604051908152a1005b506000546001600160a01b03163314611d6d565b34610428576000366003190112610428576000546040516001600160a01b039091168152602090f35b34610428576020366003190112610428577f67b0833b261bf8dee41032afa09cb41cf516d84e7ade2bd54dad0aa53ae956b76020600435611e0081610460565b33600052602a825260ff604060002054168015611e57575b611e21906126f9565b6006805462010000600160b01b031916601083901b62010000600160b01b03161790556040516001600160a01b039091168152a1005b506000546001600160a01b03163314611e18565b3461042857602036600319011261042857600435611e8881610460565b60018060a01b03166000526029602052602060ff604060002054166040519015158152f35b34610428576020366003190112610428577f97e1f675f69047e4b663d3b795841c629240f48eb403a6337e5367c4405737e06020600435611eed81610460565b33600052602a825260ff604060002054168015611f36575b611f0e906126f9565b600980546001600160a01b0319166001600160a01b03929092169182179055604051908152a1005b506000546001600160a01b03163314611f05565b346104285760403660031901126104285760206107c5602435611f6e6004356128a9565b612889565b60005b838110611f865750506000910152565b8181015183820152602001611f76565b6020611faf918160405193828580945193849201611f73565b8101602781520301902090565b346104285760203660031901126104285760043567ffffffffffffffff81116104285760ff611ff9611ff4602093369060040161057c565b611f96565b54166040519015158152f35b90600182811c92168015612035575b602083101461201f57565b634e487b7160e01b600052602260045260246000fd5b91607f1691612014565b929060a09492600180871b03809216855216602084015260408301526080606083015261207b8151809281608086015260208686019101611f73565b601f01601f1916010190565b34610428576040366003190112610428576004356120a481610460565b60018060a01b0380600092168252602090602e825260408320602435845282526040832090808254169160019182820154169360036002830154920160405193878254926120f184612005565b808852938381169081156121635750600114612128575b5087876106e8888861211c828f038361055a565b6040519485948561203f565b9080949950528783205b8284106121505750505082019094019361211c826106e83880612108565b80548685018a0152928801928101612132565b60ff19168887015250505050151560051b830101945061211c826106e83880612108565b346104285760603660031901126104285760206107c56121a5610c21565b604435906004356128eb565b34610428576040366003190112610428576121ca610c11565b6024359033600052602a60205260ff6040600020541680156122b8575b6121f0906126f9565b6004548083101561225c577fbcec21b9d78923182477ec9fa21366ad49eb60ce029583d3280baec5bfb1b25f9161223660ff926127108610159081612251575b506127f0565b61224384610cb983611b4f565b6040519384521691602090a2005b905085111538612230565b60405162461bcd60e51b815260206004820152602e60248201527f5056313a2070656e616c747950657263656e746167652073686f756c6420626560448201526d206c657373207468616e2050504d60901b6064820152608490fd5b506000546001600160a01b031633146121e7565b34610428576000366003190112610428576020600b54604051908152f35b346104285760203660031901126104285760043560005260286020526020604060002054604051908152f35b3461042857600036600319011261042857602060ff60095460a01c166040519015158152f35b34610428576000366003190112610428576009546040516001600160a01b039091168152602090f35b3461042857602036600319011261042857600435600d81101561042857602090600d0154604051908152f35b34610428576020366003190112610428576004356000908152600c6020526040902080546001600160a01b031660018201546106e8906001600160a01b031692600281015490600381015460048201546005830154600684015460078501549060088601549260098701549461240b600a89015460ff1690565b96600c600b8a0154990154996040519d8e9d8e9a98969492909d9c9b99979593919d6101a08c019e600160a01b600190038092168d521660208c015260408b015260608a0152608089015260a088015260c087015260e086015261010085015261012084015260ff166101408301526101608201526101800152565b34610428576020366003190112610428577f3f47f03ed87e00534c8562d033f3b2078497ff66153f579b96ae1d660e4c0a8d604060043533600052602a60205260ff82600020541680156124f4575b6124df906126f9565b600b549080600b5582519182526020820152a1005b506000546001600160a01b031633146124d6565b34610428576020366003190112610428577fe8a6b8760c4b98a334f35b6364496411e3f26d679a51ba7f6303df5c8c91715a602060043561254881610460565b33600052602a825260ff604060002054168015612591575b612569906126f9565b600780546001600160a01b0319166001600160a01b03929092169182179055604051908152a1005b506000546001600160a01b03163314612560565b34610428576000366003190112610428576007546040516001600160a01b039091168152602090f35b34610428576020366003190112610428576004356125eb81610460565b6125f36126cd565b6001600160a01b03908116801561264157600080546001600160a01b03198116831782559092167f8be0079c531659141344cd1fd0a4f28419497f9722a3daafe3b4186f6b6457e08380a380f35b604051631e4fbdf760e01b815260006004820152602490fd5b346104285760403660031901126104285760206107c56024356004356128cb565b34610428576020366003190112610428576020612699600435612857565b6040519015158152f35b34610428576040366003190112610428576020670de0b6b3a76400006104576024356004356128cb565b6000546001600160a01b031633036126e157565b60405163118cdaa760e01b8152336004820152602490fd5b1561270057565b60405162461bcd60e51b815260206004820152602760248201527f4f6e6c79207468652061646d696e2063616e20706572666f726d20746869732060448201526630b1ba34b7b71760c91b6064820152608490fd5b60ff60005460a01c1661276457565b60405162461bcd60e51b815260206004820152601060248201526f14185d5cd8589b194e881c185d5cd95960821b6044820152606490fd5b90601f81116127aa57505050565b600091825260208220906020601f850160051c830194106127e6575b601f0160051c01915b8281106127db57505050565b8181556001016127cf565b90925082906127c6565b156127f757565b60405162461bcd60e51b815260206004820152603260248201527f5056323a2070656e616c747950657263656e746167652073686f756c64206265604482015271206265747765656e203130202d203230202560701b6064820152608490fd5b61ffff60065416801515918261286c57505090565b1015919050565b634e487b7160e01b600052601160045260246000fd5b8115612893570490565b634e487b7160e01b600052601260045260246000fd5b90670de0b6b3a7640000918281029281840414901517156128c657565b612873565b818102929181159184041417156128c657565b919082039182116128c657565b60ff918216600019019182116128c6576129126107bc91600c60ff612919951691046128cb565b92836128cb565b81039081116128c65790565b610919916107bc916128cb565b600a810290808204600a14901517156128c657600c900490565b611b216129739361296d6298968096611b05670de0b6b3a764000095612932565b936128cb565b0490565b90670de0b6b3a7640000918281029281840414901517156128c65761091991612889565b60001981146128c65760010190565b8051821015610cf75760209160051b010190565b90600182018092116128c657565b919082018092116128c657565b9190603c810290808204603c14901517156128c6578201918281116128c657821061042857565b603b1981019081116128c65790565b15612a1657565b60405162461bcd60e51b815260206004820152601c60248201527f5374616b696e6720706f6f6c206c696d69742065786365656465642e000000006044820152606490fd5b15612a6257565b60405162461bcd60e51b815260206004820152601560248201527429b4b3b730ba3ab9329034b99032bc3834b932b21760591b6044820152606490fd5b15612aa657565b60405162461bcd60e51b815260206004820152601660248201527514da59db985d1d5c9948185b1c9958591e481d5cd95960521b6044820152606490fd5b15612aeb57565b60405162461bcd60e51b815260206004820152601b60248201527f5354303a20496e76616c6964207374616b696e6720706572696f6400000000006044820152606490fd5b15612b3757565b606460405162461bcd60e51b815260206004820152602060248201527f5354313a2055736572206164647265737320697320626c61636b6c69737465646044820152fd5b15612b8257565b606460405162461bcd60e51b815260206004820152602060248201527f5354323a205468697320746f6b656e494420697320626c61636b6c69737465646044820152fd5b15612bcd57565b60405162461bcd60e51b815260206004820152603960248201527f5354333a20526573747269637465642072652d7374616b696e6720686173206560448201527f7863656564656420746865206d6178696d756d206c696d6974000000000000006064820152608490fd5b15612c3f57565b60405162461bcd60e51b81526020600482015260136024820152722aa9989d1024b73b30b634b21039b4b3b732b960691b6044820152606490fd5b90816020910312610428575161091981610460565b6040513d6000823e3d90fd5b15612ca257565b60405162461bcd60e51b815260206004820152601e60248201527f5354343a20596f7520646f206e6f74206f776e207468697320746f6b656e00006044820152606490fd5b908160209103126104285751610919816108ea565b15612d0357565b60405162461bcd60e51b815260206004820152601e60248201527f5354353a20436f6e7472616374206d75737420626520617070726f76656400006044820152606490fd5b15612d4f57565b60405162461bcd60e51b815260206004820152603760248201527f5354363a20657263373231746f6b656e2076616c7565206973206c6f7765722060448201527f7468616e204d494e5f544f4b454e5f544f5f5354414b450000000000000000006064820152608490fd5b600260015414612dcb576002600155565b604051633ee5aeb560e01b8152600490fd5b61091991612dea91612df3565b90929192612ed3565b8151919060418303612e2457612e1d92506020820151906060604084015193015160001a90612e2f565b9192909190565b505060009160029190565b91907f7fffffffffffffffffffffffffffffff5d576e7357a4501ddfe92f46681b20a08411612ea757926020929160ff608095604051948552168484015260408301526060820152600092839182805260015afa156113485780516001600160a01b03811615612e9e57918190565b50809160019190565b50505060009160039190565b60041115612ebd57565b634e487b7160e01b600052602160045260246000fd5b612edc81612eb3565b80612ee5575050565b612eee81612eb3565b60018103612f085760405163f645eedf60e01b8152600490fd5b612f1181612eb3565b60028103612f325760405163fce698f760e01b815260048101839052602490fd5b80612f3e600392612eb3565b14612f465750565b6040516335e2f38360e21b81526004810191909152602490fd5b91909392600d851015610cf757612fb36298968091612fa0612f8d6107bc611b21978a601a0154906128cb565b97611b0560ff82600d0154921691612932565b90670de0b6b3a7640000958691866128cb565b04938281029281840414901517156128c657611f6e612fd58261091994612889565b946128a9565b15612fe257565b60405162461bcd60e51b8152602060048201526024808201527f5553323a2074686973207374616b65496420686173206265656e20756e73746160448201526335b2b21760e11b6064820152608490fd5b90816020910312610428575190565b60075460405163cb91449160e01b81526004810192909252602090829060249082906001600160a01b03165afa90811561134857600091613081575090565b610919915060203d81116115b6576115a7818361055a565b92600c946110609392966130ba61315696600052600c602052604060002090565b60075481546001600160a01b0319166001600160a01b03909116178155976001890180546001600160a01b03191633179055600289015560038801556004870155600586015542600786015561312a61312560ff831661311a81426129d9565b6008890155426129d9565b612a00565b6009860155600a8501805460ff191660ff831617905561314c61106082611b3d565b600b860155611b4f565b910155565b9395929094919460ff82169661317188426129d9565b9161317b83612a00565b93600d811015610cf7577f6ce041b314bc0732fa60a18e6679fbcb1e13b93705b6dcc9bce34d66d84ed4b6996101809982600d015492601a0154936040519a8b5260208b015260408a01526060890152608088015260a087015260c08601524260e0860152610100850152610120840152610140830152610160820152a1565b1561320257565b60405162461bcd60e51b815260206004820152601760248201527f5369676e617475726520616c726561647920757365642e0000000000000000006044820152606490fd5b1561324e57565b60405162461bcd60e51b81526020600482015260146024820152732aa9989d1024b73b30b634b21039b4b3b732b91760611b6044820152606490fd5b1561329157565b60405162461bcd60e51b815260206004820152602d60248201527f5553333a206d73672073656e6465722073686f756c642062652074686520737460448201526c30b5b2b91030b2323932b9b99760991b6064820152608490fd5b156132f357565b60405162461bcd60e51b815260206004820152601760248201527f5553343a20756e61626c6520746f20756e7374616b652e0000000000000000006044820152606490fd5b1561333f57565b60405162461bcd60e51b815260206004820152601b60248201527f496e73756666696369656e74207265776172642062616c616e636500000000006044820152606490fd5b1561338b57565b60405162461bcd60e51b815260206004820152601d60248201527f496e73756666696369656e742072657761726420616c6c6f77616e63650000006044820152606490fd5b6040516323b872dd60e01b60208083019182526001600160a01b03948516602484015294909316604482015260648101949094529260009190613416816084810161116a565b519082855af115612c8f576000513d61346057506001600160a01b0381163b155b61343e5750565b604051635274afe760e01b81526001600160a01b039091166004820152602490fd5b6001141561343756fea26469706673582212208ea717322437744cba678b7dc13438ce2d6c65c7b7066d3f44c7304399e0b77d64736f6c63430008140033",
  "linkReferences": {},
  "deployedLinkReferences": {}
}