{
  "_format": "hh-sol-artifact-1",
  "contractName": "REDEEM",
  "sourceName": "contracts/nft-redeem-smart-contract.sol",
  "abi": [
    {
      "inputs": [],
      "stateMutability": "nonpayable",
      "type": "constructor"
    },
    {
      "inputs": [
        {
          "internalType": "address",
          "name": "owner",
          "type": "address"
        }
      ],
      "name": "OwnableInvalidOwner",
      "type": "error"
    },
    {
      "inputs": [
        {
          "internalType": "address",
          "name": "account",
          "type": "address"
        }
      ],
      "name": "OwnableUnauthorizedAccount",
      "type": "error"
    },
    {
      "inputs": [],
      "name": "ReentrancyGuardReentrantCall",
      "type": "error"
    },
    {
      "inputs": [
        {
          "internalType": "address",
          "name": "token",
          "type": "address"
        }
      ],
      "name": "SafeERC20FailedOperation",
      "type": "error"
    },
    {
      "anonymous": false,
      "inputs": [
        {
          "indexed": true,
          "internalType": "address",
          "name": "admin",
          "type": "address"
        },
        {
          "indexed": false,
          "internalType": "bool",
          "name": "isAdmin",
          "type": "bool"
        }
      ],
      "name": "AddOrRemoveAdmin",
      "type": "event"
    },
    {
      "anonymous": false,
      "inputs": [
        {
          "indexed": true,
          "internalType": "address",
          "name": "user",
          "type": "address"
        },
        {
          "indexed": false,
          "internalType": "bool",
          "name": "isBlacklisted",
          "type": "bool"
        },
        {
          "indexed": false,
          "internalType": "uint256",
          "name": "timeStamp",
          "type": "uint256"
        }
      ],
      "name": "BlacklistedAddress",
      "type": "event"
    },
    {
      "anonymous": false,
      "inputs": [
        {
          "indexed": true,
          "internalType": "uint256",
          "name": "tokenId",
          "type": "uint256"
        },
        {
          "indexed": false,
          "internalType": "bool",
          "name": "isBlacklisted",
          "type": "bool"
        },
        {
          "indexed": false,
          "internalType": "uint256",
          "name": "timeStamp",
          "type": "uint256"
        }
      ],
      "name": "BlacklistedNfe",
      "type": "event"
    },
    {
      "anonymous": false,
      "inputs": [
        {
          "indexed": true,
          "internalType": "address",
          "name": "previousOwner",
          "type": "address"
        },
        {
          "indexed": true,
          "internalType": "address",
          "name": "newOwner",
          "type": "address"
        }
      ],
      "name": "OwnershipTransferred",
      "type": "event"
    },
    {
      "anonymous": false,
      "inputs": [
        {
          "indexed": true,
          "internalType": "address",
          "name": "nfe",
          "type": "address"
        },
        {
          "indexed": true,
          "internalType": "address",
          "name": "lastOwner",
          "type": "address"
        },
        {
          "indexed": true,
          "internalType": "uint256",
          "name": "tokenId",
          "type": "uint256"
        },
        {
          "indexed": false,
          "internalType": "uint256",
          "name": "mniValue",
          "type": "uint256"
        },
        {
          "indexed": false,
          "internalType": "uint256",
          "name": "timeStamp",
          "type": "uint256"
        }
      ],
      "name": "Redeem",
      "type": "event"
    },
    {
      "anonymous": false,
      "inputs": [
        {
          "indexed": false,
          "internalType": "bool",
          "name": "isRedeemable",
          "type": "bool"
        }
      ],
      "name": "SetIsRedeemable",
      "type": "event"
    },
    {
      "anonymous": false,
      "inputs": [
        {
          "indexed": true,
          "internalType": "address",
          "name": "user",
          "type": "address"
        },
        {
          "indexed": false,
          "internalType": "bool",
          "name": "isBlacklisted",
          "type": "bool"
        }
      ],
      "name": "UpdateBlacklistedAddress",
      "type": "event"
    },
    {
      "anonymous": false,
      "inputs": [
        {
          "indexed": true,
          "internalType": "uint256",
          "name": "tokenId",
          "type": "uint256"
        },
        {
          "indexed": false,
          "internalType": "bool",
          "name": "isBlacklisted",
          "type": "bool"
        }
      ],
      "name": "UpdateBlacklistedTokenId",
      "type": "event"
    },
    {
      "anonymous": false,
      "inputs": [
        {
          "indexed": true,
          "internalType": "address",
          "name": "newAddress",
          "type": "address"
        }
      ],
      "name": "UpdateDPMCaddress",
      "type": "event"
    },
    {
      "anonymous": false,
      "inputs": [
        {
          "indexed": true,
          "internalType": "address",
          "name": "newAddress",
          "type": "address"
        }
      ],
      "name": "UpdateNFEaddress",
      "type": "event"
    },
    {
      "anonymous": false,
      "inputs": [
        {
          "indexed": true,
          "internalType": "address",
          "name": "newAddress",
          "type": "address"
        }
      ],
      "name": "UpdatePayoutAddress",
      "type": "event"
    },
    {
      "inputs": [],
      "name": "PAYOUT",
      "outputs": [
        {
          "internalType": "address",
          "name": "",
          "type": "address"
        }
      ],
      "stateMutability": "view",
      "type": "function"
    },
    {
      "inputs": [
        {
          "internalType": "address",
          "name": "_admin",
          "type": "address"
        },
        {
          "internalType": "bool",
          "name": "_isAdmin",
          "type": "bool"
        }
      ],
      "name": "addOrRemoveAdmin",
      "outputs": [],
      "stateMutability": "nonpayable",
      "type": "function"
    },
    {
      "inputs": [],
      "name": "erc20token",
      "outputs": [
        {
          "internalType": "address",
          "name": "",
          "type": "address"
        }
      ],
      "stateMutability": "view",
      "type": "function"
    },
    {
      "inputs": [],
      "name": "erc721token",
      "outputs": [
        {
          "internalType": "address",
          "name": "",
          "type": "address"
        }
      ],
      "stateMutability": "view",
      "type": "function"
    },
    {
      "inputs": [
        {
          "internalType": "address",
          "name": "",
          "type": "address"
        }
      ],
      "name": "isAddressBlacklisted",
      "outputs": [
        {
          "internalType": "bool",
          "name": "",
          "type": "bool"
        }
      ],
      "stateMutability": "view",
      "type": "function"
    },
    {
      "inputs": [
        {
          "internalType": "address",
          "name": "",
          "type": "address"
        }
      ],
      "name": "isAdmin",
      "outputs": [
        {
          "internalType": "bool",
          "name": "",
          "type": "bool"
        }
      ],
      "stateMutability": "view",
      "type": "function"
    },
    {
      "inputs": [],
      "name": "isRedeemable",
      "outputs": [
        {
          "internalType": "bool",
          "name": "",
          "type": "bool"
        }
      ],
      "stateMutability": "view",
      "type": "function"
    },
    {
      "inputs": [
        {
          "internalType": "address",
          "name": "",
          "type": "address"
        },
        {
          "internalType": "uint256",
          "name": "",
          "type": "uint256"
        }
      ],
      "name": "isTokenIdBlacklisted",
      "outputs": [
        {
          "internalType": "bool",
          "name": "",
          "type": "bool"
        }
      ],
      "stateMutability": "view",
      "type": "function"
    },
    {
      "inputs": [
        {
          "internalType": "address",
          "name": "",
          "type": "address"
        },
        {
          "internalType": "address",
          "name": "from",
          "type": "address"
        },
        {
          "internalType": "uint256",
          "name": "tokenId",
          "type": "uint256"
        },
        {
          "internalType": "bytes",
          "name": "",
          "type": "bytes"
        }
      ],
      "name": "onERC721Received",
      "outputs": [
        {
          "internalType": "bytes4",
          "name": "",
          "type": "bytes4"
        }
      ],
      "stateMutability": "nonpayable",
      "type": "function"
    },
    {
      "inputs": [],
      "name": "owner",
      "outputs": [
        {
          "internalType": "address",
          "name": "",
          "type": "address"
        }
      ],
      "stateMutability": "view",
      "type": "function"
    },
    {
      "inputs": [
        {
          "internalType": "uint256",
          "name": "tokenId",
          "type": "uint256"
        }
      ],
      "name": "redeem",
      "outputs": [],
      "stateMutability": "nonpayable",
      "type": "function"
    },
    {
      "inputs": [],
      "name": "renounceOwnership",
      "outputs": [],
      "stateMutability": "nonpayable",
      "type": "function"
    },
    {
      "inputs": [
        {
          "internalType": "bool",
          "name": "_isRedeemable",
          "type": "bool"
        }
      ],
      "name": "setIsRedeemable",
      "outputs": [],
      "stateMutability": "nonpayable",
      "type": "function"
    },
    {
      "inputs": [
        {
          "internalType": "bytes4",
          "name": "interfaceId",
          "type": "bytes4"
        }
      ],
      "name": "supportsInterface",
      "outputs": [
        {
          "internalType": "bool",
          "name": "",
          "type": "bool"
        }
      ],
      "stateMutability": "view",
      "type": "function"
    },
    {
      "inputs": [
        {
          "internalType": "address",
          "name": "newOwner",
          "type": "address"
        }
      ],
      "name": "transferOwnership",
      "outputs": [],
      "stateMutability": "nonpayable",
      "type": "function"
    },
    {
      "inputs": [
        {
          "internalType": "address",
          "name": "_user",
          "type": "address"
        },
        {
          "internalType": "bool",
          "name": "_isBlacklisted",
          "type": "bool"
        }
      ],
      "name": "updateBlacklistedAddress",
      "outputs": [],
      "stateMutability": "nonpayable",
      "type": "function"
    },
    {
      "inputs": [
        {
          "internalType": "uint256",
          "name": "tokenId",
          "type": "uint256"
        },
        {
          "internalType": "bool",
          "name": "_isBlacklisted",
          "type": "bool"
        }
      ],
      "name": "updateBlacklistedTokenId",
      "outputs": [],
      "stateMutability": "nonpayable",
      "type": "function"
    },
    {
      "inputs": [
        {
          "internalType": "address",
          "name": "_address",
          "type": "address"
        }
      ],
      "name": "updateDPMCaddress",
      "outputs": [],
      "stateMutability": "nonpayable",
      "type": "function"
    },
    {
      "inputs": [
        {
          "internalType": "address",
          "name": "_address",
          "type": "address"
        }
      ],
      "name": "updateNFEaddress",
      "outputs": [],
      "stateMutability": "nonpayable",
      "type": "function"
    },
    {
      "inputs": [
        {
          "internalType": "address",
          "name": "_address",
          "type": "address"
        }
      ],
      "name": "updatePayoutAddress",
      "outputs": [],
      "stateMutability": "nonpayable",
      "type": "function"
    }
  ],
  "bytecode": "0x6080806040523461018157331561016b5760008054336001600160a01b0319808316821784556040517fde89eb5d3f40f5a7cf8ee0e90cd1dd03f1279caabb29b0cf77ea06b0a2cced1a9460209491937fcec2f56f5ee5f3a9a552fd6c583ece73d28115e2b91d736e8d132820c72a773a926001600160a01b03167f8be0079c531659141344cd1fd0a4f28419497f9722a3daafe3b4186f6b6457e08380a360018055734d67bb397810e4e790b5e5fac44bb495f54c20d380846002541617600255730c24c252d7c63891c2c7c74ce8fb2a35ea693c0890818560035416176003557373d004d298627140afcbe5f62a235ea18853474280956004541617600455600160ff1960075416176007557f8e2c0c9da3ef8125269e364262af61b4dd1e419fe70c2e74dbe1404165191cde8380a27f650905b142b916b5dddbf5a893ee3b2ce3cc10fb08f60901eb9756fdb307759e8280a280a260018152a1604051610f3d90816101878239f35b631e4fbdf760e01b815260006004820152602490fd5b600080fdfe6080604081815260048036101561001557600080fd5b600092833560e01c90816301ffc9a714610db8575080630e77bf5714610d50578063150b7a0214610c625780631dcea42714610c3957806324d7806c14610bfb57806329ecb1ec14610b5c57806332da3d1014610b35578063393cbc0f14610aee5780635620081914610a865780635a626a50146109e4578063715018a61461098a57806389fa2c031461090e5780638da5cb5b146108e657806390683e8c146108a8578063af92058214610884578063d00be4cc146107f9578063db006a751461022a578063dcb6dc67146101bf578063e5ebccf4146101925763f2fde38b146100ff57600080fd5b3461018e57602036600319011261018e57610118610e0c565b90610121610e69565b6001600160a01b03918216928315610178575050600054826bffffffffffffffffffffffff60a01b821617600055167f8be0079c531659141344cd1fd0a4f28419497f9722a3daafe3b4186f6b6457e0600080a380f35b51631e4fbdf760e01b8152908101849052602490fd5b8280fd5b5050346101bb57816003193601126101bb5760025490516001600160a01b039091168152602090f35b5080fd5b8334610227576020366003190112610227576101d9610e0c565b6101e1610e69565b600280546001600160a01b0319166001600160a01b039290921691821790557f8e2c0c9da3ef8125269e364262af61b4dd1e419fe70c2e74dbe1404165191cde8280a280f35b80fd5b503461018e576020806003193601126107f5578135926002600154146107e657600260015560ff6007541615610796573385526005825260ff8186205416610755576002546001600160a01b039081168087526008845282872086885284528287205490949060ff166107125782516331a9108f60e11b815281810187905260249190858184818a5afa9081156105df5789916106dc575b50833391160361069c57835163e985e9c560e01b81523382820190815230602082015286908290819060400103818a5afa9081156105df578991610662575b5015610622578784519663cb91449160e01b8852888389015286888581845afa9788156106185782986105e9575b50803b156101bb5781906064875180948193632142170760e11b8352338884015261dead898401528d60448401525af180156105df576105b3575b5082600354168382541685516370a0823160e01b8152818482015287818681865afa908115610536579089918c91610582575b5010610540578551636eb1769f60e11b81526001600160a01b0382168482019081523060208201528890829081906040010381865afa908115610536579089918c91610500575b50106104be578551878101916323b872dd60e01b8352858201523360448201528860648201526064815260a0810181811067ffffffffffffffff8211176104aa5787525187918b919082855af1156104a05788513d6104975750803b155b61048557505050907f215abfcd108b85fbee47f26fda2de66f90f14fa5fcaf0201698ad8ac9323545f916002541692815194855242908501523393a46001805580f35b8451635274afe760e01b815291820152fd5b60011415610442565b84513d8a823e3d90fd5b85604186634e487b7160e01b600052526000fd5b855162461bcd60e51b8152808401889052601d818601527f496e73756666696369656e74207061796f757420616c6c6f77616e63650000006044820152606490fd5b809250898092503d831161052f575b6105198183610e22565b8101031261052a57889051386103e4565b600080fd5b503d61050f565b87513d8d823e3d90fd5b855162461bcd60e51b8152808401889052601b818601527f496e73756666696369656e74207061796f75742062616c616e636500000000006044820152606490fd5b809250898092503d83116105ac575b61059b8183610e22565b8101031261052a578890513861039d565b503d610591565b67ffffffffffffffff81999299116105ce578452963861036a565b50634e487b7160e01b815260418852fd5b85513d8b823e3d90fd5b9097508681813d8311610611575b6106018183610e22565b810103126101bb5751963861032f565b503d6105f7565b86513d84823e3d90fd5b601d6064928686519362461bcd60e51b85528401528201527f52353a20436f6e7472616374206d75737420626520617070726f7665640000006044820152fd5b90508581813d8311610695575b6106798183610e22565b81010312610691575180151581036106915738610301565b8880fd5b503d61066f565b601d6064928686519362461bcd60e51b85528401528201527f52343a20596f7520646f206e6f74206f776e207468697320746f6b656e0000006044820152fd5b90508581813d831161070b575b6106f38183610e22565b810103126106915751838116810361069157386102c2565b503d6106e9565b825162461bcd60e51b8152908101849052601f60248201527f52333a205468697320746f6b656e494420697320626c61636b6c6973746564006044820152606490fd5b5162461bcd60e51b815291820152601f60248201527f52323a2055736572206164647265737320697320626c61636b6c697374656400604482015260649150fd5b5162461bcd60e51b815291820152602660248201527f52313a20657263373231746f6b656e206973206e6f742072656465656d61626c60448201526532903cb2ba1760d11b606482015260849150fd5b51633ee5aeb560e01b81529050fd5b8380fd5b503461018e57602036600319011261018e57359081151580920361018e577fde89eb5d3f40f5a7cf8ee0e90cd1dd03f1279caabb29b0cf77ea06b0a2cced1a916020913385526006835260ff81862054168015610871575b61085a90610e95565b60ff196007541660ff83161760075551908152a180f35b5084546001600160a01b03163314610851565b5050346101bb57816003193601126101bb5760209060ff6007541690519015158152f35b5050346101bb5760203660031901126101bb5760209160ff9082906001600160a01b036108d3610e0c565b1681526005855220541690519015158152f35b5050346101bb57816003193601126101bb57905490516001600160a01b039091168152602090f35b5050346101bb57806003193601126101bb577ff3d06386eba3643016aa50f35cfe6853051b28b71e9ff2e02f277074c344eff0602061094b610e0c565b610953610e5a565b9061095c610e69565b6001600160a01b031680865260068352848620805460ff191660ff84151516179055935b519015158152a280f35b83346102275780600319360112610227576109a3610e69565b80546001600160a01b03198116825581906001600160a01b03167f8be0079c531659141344cd1fd0a4f28419497f9722a3daafe3b4186f6b6457e08280a380f35b503461018e578160031936011261018e5760207f77b3aa3d7bb6f662cf7d43d55032c500106596a2ac79b2d15aa4955089bccd42913592610a23610e5a565b903386526006835260ff81872054168015610a73575b610a4290610e95565b6002546001600160a01b03168652600883528086208587528352808620805460ff191660ff84151516179055610980565b5085546001600160a01b03163314610a39565b8382346101bb5760203660031901126101bb57610aa1610e0c565b610aa9610e69565b81546001600160a01b0319166001600160a01b03919091169081179091557fcec2f56f5ee5f3a9a552fd6c583ece73d28115e2b91d736e8d132820c72a773a8280a280f35b5050346101bb57806003193601126101bb5760209160ff9082906001600160a01b03610b18610e0c565b168152600885528181206024358252855220541690519015158152f35b503461018e578260031936011261018e575490516001600160a01b03909116815260209150f35b5050346101bb57806003193601126101bb577f8d532cff2153d80953765c294a9ac3db1821290c27a7d93e6266b2a6748e297a6020610b99610e0c565b610ba1610e5a565b903386526006835260ff85872054168015610be8575b610bc090610e95565b6001600160a01b031680865260058352848620805460ff191660ff8415151617905593610980565b5085546001600160a01b03163314610bb7565b5050346101bb5760203660031901126101bb5760209160ff9082906001600160a01b03610c26610e0c565b1681526006855220541690519015158152f35b5050346101bb57816003193601126101bb5760035490516001600160a01b039091168152602090f35b50913461022757608036600319011261022757610c7d610e0c565b506024356001600160a01b038181169182900361018e5760643567ffffffffffffffff95868211610d395736602383011215610d395781810135968711610d3d5750845190610cd6601f8801601f191660200183610e22565b8682523660248883010111610d395786859260209860248a94018483013701015260025416835192835242858401527f215abfcd108b85fbee47f26fda2de66f90f14fa5fcaf0201698ad8ac9323545f8460443594a451630a85bd0160e11b8152f35b8480fd5b634e487b7160e01b855260419052602484fd5b833461022757602036600319011261022757610d6a610e0c565b610d72610e69565b600380546001600160a01b0319166001600160a01b039290921691821790557f650905b142b916b5dddbf5a893ee3b2ce3cc10fb08f60901eb9756fdb307759e8280a280f35b9250503461018e57602036600319011261018e573563ffffffff60e01b811680910361018e5760209250630a85bd0160e11b8114908115610dfb575b5015158152f35b6301ffc9a760e01b14905038610df4565b600435906001600160a01b038216820361052a57565b90601f8019910116810190811067ffffffffffffffff821117610e4457604052565b634e487b7160e01b600052604160045260246000fd5b60243590811515820361052a57565b6000546001600160a01b03163303610e7d57565b60405163118cdaa760e01b8152336004820152602490fd5b15610e9c57565b60405162461bcd60e51b815260206004820152603860248201527f4f6e6c79207468652061646d696e206f72206f776e657220616464726573732060448201527f63616e20706572666f726d207468697320616374696f6e2e00000000000000006064820152608490fdfea2646970667358221220b03106d228b419a43b0623eb78f8b8f8983639c3926afa8d34ab3a5a3b9b37b664736f6c63430008140033",
  "linkReferences": {},
  "deployedLinkReferences": {}
}