{
  "_format": "hh-sol-artifact-1",
  "contractName": "ReentrancyAttacker",
  "sourceName": "contracts/mocks/ReentrancyAttacker.sol",
  "abi": [
    {
      "inputs": [],
      "name": "approveForStake",
      "outputs": [],
      "stateMutability": "nonpayable",
      "type": "function"
    },
    {
      "inputs": [],
      "name": "nft",
      "outputs": [
        {
          "internalType": "address",
          "name": "",
          "type": "address"
        }
      ],
      "stateMutability": "view",
      "type": "function"
    },
    {
      "inputs": [
        {
          "internalType": "address",
          "name": "",
          "type": "address"
        },
        {
          "internalType": "address",
          "name": "",
          "type": "address"
        },
        {
          "internalType": "uint256",
          "name": "",
          "type": "uint256"
        },
        {
          "internalType": "bytes",
          "name": "",
          "type": "bytes"
        }
      ],
      "name": "onERC721Received",
      "outputs": [
        {
          "internalType": "bytes4",
          "name": "",
          "type": "bytes4"
        }
      ],
      "stateMutability": "nonpayable",
      "type": "function"
    },
    {
      "inputs": [],
      "name": "re_exp",
      "outputs": [
        {
          "internalType": "uint256",
          "name": "",
          "type": "uint256"
        }
      ],
      "stateMutability": "view",
      "type": "function"
    },
    {
      "inputs": [],
      "name": "re_sig",
      "outputs": [
        {
          "internalType": "bytes",
          "name": "",
          "type": "bytes"
        }
      ],
      "stateMutability": "view",
      "type": "function"
    },
    {
      "inputs": [],
      "name": "re_stakeId",
      "outputs": [
        {
          "internalType": "uint256",
          "name": "",
          "type": "uint256"
        }
      ],
      "stateMutability": "view",
      "type": "function"
    },
    {
      "inputs": [],
      "name": "re_tokenRateUSDT",
      "outputs": [
        {
          "internalType": "uint256",
          "name": "",
          "type": "uint256"
        }
      ],
      "stateMutability": "view",
      "type": "function"
    },
    {
      "inputs": [
        {
          "internalType": "uint256",
          "name": "stakeId",
          "type": "uint256"
        },
        {
          "internalType": "uint256",
          "name": "tokenRateUSDT",
          "type": "uint256"
        },
        {
          "internalType": "uint256",
          "name": "exp",
          "type": "uint256"
        },
        {
          "internalType": "bytes",
          "name": "sig",
          "type": "bytes"
        }
      ],
      "name": "setReenterParams",
      "outputs": [],
      "stateMutability": "nonpayable",
      "type": "function"
    },
    {
      "inputs": [
        {
          "internalType": "address",
          "name": "_stake",
          "type": "address"
        },
        {
          "internalType": "address",
          "name": "_nft",
          "type": "address"
        }
      ],
      "name": "setup",
      "outputs": [],
      "stateMutability": "nonpayable",
      "type": "function"
    },
    {
      "inputs": [],
      "name": "stake",
      "outputs": [
        {
          "internalType": "address",
          "name": "",
          "type": "address"
        }
      ],
      "stateMutability": "view",
      "type": "function"
    },
    {
      "inputs": [
        {
          "internalType": "uint256",
          "name": "tokenId",
          "type": "uint256"
        },
        {
          "internalType": "uint8",
          "name": "stakePeriod",
          "type": "uint8"
        },
        {
          "internalType": "uint256",
          "name": "tokenRateUSDT",
          "type": "uint256"
        },
        {
          "internalType": "uint256",
          "name": "exp",
          "type": "uint256"
        },
        {
          "internalType": "bytes",
          "name": "sig",
          "type": "bytes"
        }
      ],
      "name": "stakeOnce",
      "outputs": [],
      "stateMutability": "nonpayable",
      "type": "function"
    },
    {
      "inputs": [
        {
          "internalType": "uint256",
          "name": "stakeId",
          "type": "uint256"
        },
        {
          "internalType": "uint256",
          "name": "tokenRateUSDT",
          "type": "uint256"
        },
        {
          "internalType": "uint256",
          "name": "exp",
          "type": "uint256"
        },
        {
          "internalType": "bytes",
          "name": "sig",
          "type": "bytes"
        }
      ],
      "name": "triggerUnstake",
      "outputs": [],
      "stateMutability": "nonpayable",
      "type": "function"
    }
  ],
  "bytecode": "0x60808060405234610016576108d4908161001c8239f35b600080fdfe6080604081815260048036101561001557600080fd5b600092833560e01c90816303331da11461063c57508063081d941c1461056b5780630faa90b614610502578063150b7a02146103835780632d34ba79146103365780633a4b66f11461030e57806347ccca02146102e5578063535f9e5e146102c657806362c1a2151461018257806372fe61291461016157806376c2ac401461013e57637db21cfb146100a757600080fd5b82913461013a576100b736610821565b939060018060a09894981b0388541692833b1561013657610107899692879389519a8b9889978896636f79b8eb60e01b88528701526024860152604485015260806064850152608484019161085d565b03925af190811561012d575061011a5750f35b61012390610776565b61012a5780f35b80fd5b513d84823e3d90fd5b8880fd5b5050fd5b50503461015d578160031936011261015d576020906003549051908152f35b5080fd5b503461017e578260031936011261017e5760209250549051908152f35b8280fd5b50823461012a5761019236610821565b9360029693919655600355815567ffffffffffffffff82116102b357506101ba60055461073c565b601f8111610266575b5081601f82116001146101fd5782938293926101f2575b50508160011b916000199060031b1c19161760055580f35b0135905083806101da565b601f1982169360008051602061087f83398151915291845b86811061024e5750836001959610610234575b505050811b0160055580f35b0135600019600384901b60f8161c19169055838080610228565b90926020600181928686013581550194019101610215565b60008051602061087f833981519152601f830160051c810191602084106102a9575b601f0160051c01905b81811061029e57506101c3565b838155600101610291565b9091508190610288565b634e487b7160e01b835260419052602482fd5b50503461015d578160031936011261015d576020906002549051908152f35b50503461015d578160031936011261015d5760015490516001600160a01b039091168152602090f35b50503461015d578160031936011261015d57905490516001600160a01b039091168152602090f35b50503461015d5736600319011261012a5761034f6107f5565b61035761080b565b82546001600160a01b039283166001600160a01b03199182161784556001805492909316911617905580f35b503461017e57608036600319011261017e5761039d6107f5565b506103a661080b565b5060643567ffffffffffffffff81116104fe576103c690369083016107c2565b5050805490816103e2575b8251630a85bd0160e11b8152602090f35b835460025460035490938693926001600160a01b031691823b156104fa578651958694636f79b8eb60e01b86528501526024840152604483015260806064830152826005546104308161073c565b90816084860152600190858783831692836000146104d75750505060011461048e575b50508383809203925af180156104825761046e575b806103d1565b6104788391610776565b61015d5781610468565b505051903d90823e3d90fd5b6005865285925060008051602061087f8339815191525b8284106104bb57505050820160a4018383610453565b805460a4858a01015289965087955060209093019281016104a5565b60ff191660a48084019190915294151560051b8201909401945091506104539050565b8480fd5b8380fd5b50903461017e578260031936011261017e578260018060a01b039283600154169382541690843b1561017e57604490838551968794859363a22cb46560e01b8552840152600160248401525af190811561012d575061055f575080f35b61056890610776565b80f35b50903461017e5760a036600319011261017e576024359160ff83168093036104fe576084359067ffffffffffffffff82116104fa576105af602092369083016107c2565b9190948660018060a01b0381541692610600875198899687958694636754c8e160e01b865280359086015260248501526044356044850152606435606485015260a0608485015260a484019161085d565b03925af190811561012d5750610614575080f35b602090813d8111610635575b61062a81836107a0565b8101031261012a5780f35b503d610620565b9150503461017e578260031936011261017e57600554818461065d8361073c565b8083529260019081811690811561071a57506001146106cf575b50610687925094929403846107a0565b815192839160208084528251928382860152825b8481106106b957505050828201840152601f01601f19168101030190f35b818101830151888201880152879550820161069b565b6005875286915060008051602061087f8339815191525b8483106106ff5750610687935050810160200138610677565b819350908160209254838589010152019101909184926106e6565b90506020925061068794915060ff191682840152151560051b82010138610677565b90600182811c9216801561076c575b602083101461075657565b634e487b7160e01b600052602260045260246000fd5b91607f169161074b565b67ffffffffffffffff811161078a57604052565b634e487b7160e01b600052604160045260246000fd5b90601f8019910116810190811067ffffffffffffffff82111761078a57604052565b9181601f840112156107f05782359167ffffffffffffffff83116107f057602083818601950101116107f057565b600080fd5b600435906001600160a01b03821682036107f057565b602435906001600160a01b03821682036107f057565b9060806003198301126107f0576004359160243591604435916064359067ffffffffffffffff82116107f057610859916004016107c2565b9091565b908060209392818452848401376000828201840152601f01601f191601019056fe036b6384b5eca791c62761152d0c79bb0604c104a5fb6f4eb0703f3154bb3db0a26469706673582212202cef86ab1c1ecde1db4c79db13ea98deffeafb0ef3f835ef2c64f9bf258bc2d264736f6c63430008140033",
  "linkReferences": {},
  "deployedLinkReferences": {}
}