{
  "_format": "hh-sol-artifact-1",
  "contractName": "MockNFE721",
  "sourceName": "contracts/mocks/MockNFE721.sol",
  "abi": [
    {
      "inputs": [],
      "stateMutability": "nonpayable",
      "type": "constructor"
    },
    {
      "inputs": [
        {
          "internalType": "address",
          "name": "sender",
          "type": "address"
        },
        {
          "internalType": "uint256",
          "name": "tokenId",
          "type": "uint256"
        },
        {
          "internalType": "address",
          "name": "owner",
          "type": "address"
        }
      ],
      "name": "ERC721IncorrectOwner",
      "type": "error"
    },
    {
      "inputs": [
        {
          "internalType": "address",
          "name": "operator",
          "type": "address"
        },
        {
          "internalType": "uint256",
          "name": "tokenId",
          "type": "uint256"
        }
      ],
      "name": "ERC721InsufficientApproval",
      "type": "error"
    },
    {
      "inputs": [
        {
          "internalType": "address",
          "name": "approver",
          "type": "address"
        }
      ],
      "name": "ERC721InvalidApprover",
      "type": "error"
    },
    {
      "inputs": [
        {
          "internalType": "address",
          "name": "operator",
          "type": "address"
        }
      ],
      "name": "ERC721InvalidOperator",
      "type": "error"
    },
    {
      "inputs": [
        {
          "internalType": "address",
          "name": "owner",
          "type": "address"
        }
      ],
      "name": "ERC721InvalidOwner",
      "type": "error"
    },
    {
      "inputs": [
        {
          "internalType": "address",
          "name": "receiver",
          "type": "address"
        }
      ],
      "name": "ERC721InvalidReceiver",
      "type": "error"
    },
    {
      "inputs": [
        {
          "internalType": "address",
          "name": "sender",
          "type": "address"
        }
      ],
      "name": "ERC721InvalidSender",
      "type": "error"
    },
    {
      "inputs": [
        {
          "internalType": "uint256",
          "name": "tokenId",
          "type": "uint256"
        }
      ],
      "name": "ERC721NonexistentToken",
      "type": "error"
    },
    {
      "inputs": [
        {
          "internalType": "address",
          "name": "owner",
          "type": "address"
        }
      ],
      "name": "OwnableInvalidOwner",
      "type": "error"
    },
    {
      "inputs": [
        {
          "internalType": "address",
          "name": "account",
          "type": "address"
        }
      ],
      "name": "OwnableUnauthorizedAccount",
      "type": "error"
    },
    {
      "anonymous": false,
      "inputs": [
        {
          "indexed": true,
          "internalType": "address",
          "name": "owner",
          "type": "address"
        },
        {
          "indexed": true,
          "internalType": "address",
          "name": "approved",
          "type": "address"
        },
        {
          "indexed": true,
          "internalType": "uint256",
          "name": "tokenId",
          "type": "uint256"
        }
      ],
      "name": "Approval",
      "type": "event"
    },
    {
      "anonymous": false,
      "inputs": [
        {
          "indexed": true,
          "internalType": "address",
          "name": "owner",
          "type": "address"
        },
        {
          "indexed": true,
          "internalType": "address",
          "name": "operator",
          "type": "address"
        },
        {
          "indexed": false,
          "internalType": "bool",
          "name": "approved",
          "type": "bool"
        }
      ],
      "name": "ApprovalForAll",
      "type": "event"
    },
    {
      "anonymous": false,
      "inputs": [
        {
          "indexed": true,
          "internalType": "address",
          "name": "previousOwner",
          "type": "address"
        },
        {
          "indexed": true,
          "internalType": "address",
          "name": "newOwner",
          "type": "address"
        }
      ],
      "name": "OwnershipTransferred",
      "type": "event"
    },
    {
      "anonymous": false,
      "inputs": [
        {
          "indexed": true,
          "internalType": "address",
          "name": "from",
          "type": "address"
        },
        {
          "indexed": true,
          "internalType": "address",
          "name": "to",
          "type": "address"
        },
        {
          "indexed": true,
          "internalType": "uint256",
          "name": "tokenId",
          "type": "uint256"
        }
      ],
      "name": "Transfer",
      "type": "event"
    },
    {
      "inputs": [
        {
          "internalType": "uint256",
          "name": "",
          "type": "uint256"
        }
      ],
      "name": "_tokenValue",
      "outputs": [
        {
          "internalType": "uint256",
          "name": "",
          "type": "uint256"
        }
      ],
      "stateMutability": "view",
      "type": "function"
    },
    {
      "inputs": [
        {
          "internalType": "address",
          "name": "to",
          "type": "address"
        },
        {
          "internalType": "uint256",
          "name": "tokenId",
          "type": "uint256"
        }
      ],
      "name": "approve",
      "outputs": [],
      "stateMutability": "nonpayable",
      "type": "function"
    },
    {
      "inputs": [
        {
          "internalType": "address",
          "name": "owner",
          "type": "address"
        }
      ],
      "name": "balanceOf",
      "outputs": [
        {
          "internalType": "uint256",
          "name": "",
          "type": "uint256"
        }
      ],
      "stateMutability": "view",
      "type": "function"
    },
    {
      "inputs": [
        {
          "internalType": "uint256",
          "name": "tokenId",
          "type": "uint256"
        }
      ],
      "name": "getApproved",
      "outputs": [
        {
          "internalType": "address",
          "name": "",
          "type": "address"
        }
      ],
      "stateMutability": "view",
      "type": "function"
    },
    {
      "inputs": [
        {
          "internalType": "address",
          "name": "owner",
          "type": "address"
        },
        {
          "internalType": "address",
          "name": "operator",
          "type": "address"
        }
      ],
      "name": "isApprovedForAll",
      "outputs": [
        {
          "internalType": "bool",
          "name": "",
          "type": "bool"
        }
      ],
      "stateMutability": "view",
      "type": "function"
    },
    {
      "inputs": [
        {
          "internalType": "address",
          "name": "to",
          "type": "address"
        },
        {
          "internalType": "uint256",
          "name": "tokenId",
          "type": "uint256"
        }
      ],
      "name": "mint",
      "outputs": [],
      "stateMutability": "nonpayable",
      "type": "function"
    },
    {
      "inputs": [],
      "name": "name",
      "outputs": [
        {
          "internalType": "string",
          "name": "",
          "type": "string"
        }
      ],
      "stateMutability": "view",
      "type": "function"
    },
    {
      "inputs": [],
      "name": "owner",
      "outputs": [
        {
          "internalType": "address",
          "name": "",
          "type": "address"
        }
      ],
      "stateMutability": "view",
      "type": "function"
    },
    {
      "inputs": [
        {
          "internalType": "uint256",
          "name": "tokenId",
          "type": "uint256"
        }
      ],
      "name": "ownerOf",
      "outputs": [
        {
          "internalType": "address",
          "name": "",
          "type": "address"
        }
      ],
      "stateMutability": "view",
      "type": "function"
    },
    {
      "inputs": [],
      "name": "renounceOwnership",
      "outputs": [],
      "stateMutability": "nonpayable",
      "type": "function"
    },
    {
      "inputs": [
        {
          "internalType": "address",
          "name": "from",
          "type": "address"
        },
        {
          "internalType": "address",
          "name": "to",
          "type": "address"
        },
        {
          "internalType": "uint256",
          "name": "tokenId",
          "type": "uint256"
        }
      ],
      "name": "safeTransferFrom",
      "outputs": [],
      "stateMutability": "nonpayable",
      "type": "function"
    },
    {
      "inputs": [
        {
          "internalType": "address",
          "name": "from",
          "type": "address"
        },
        {
          "internalType": "address",
          "name": "to",
          "type": "address"
        },
        {
          "internalType": "uint256",
          "name": "tokenId",
          "type": "uint256"
        },
        {
          "internalType": "bytes",
          "name": "data",
          "type": "bytes"
        }
      ],
      "name": "safeTransferFrom",
      "outputs": [],
      "stateMutability": "nonpayable",
      "type": "function"
    },
    {
      "inputs": [
        {
          "internalType": "address",
          "name": "operator",
          "type": "address"
        },
        {
          "internalType": "bool",
          "name": "approved",
          "type": "bool"
        }
      ],
      "name": "setApprovalForAll",
      "outputs": [],
      "stateMutability": "nonpayable",
      "type": "function"
    },
    {
      "inputs": [
        {
          "internalType": "uint256",
          "name": "tokenId",
          "type": "uint256"
        },
        {
          "internalType": "uint256",
          "name": "value",
          "type": "uint256"
        }
      ],
      "name": "setTokenValue",
      "outputs": [],
      "stateMutability": "nonpayable",
      "type": "function"
    },
    {
      "inputs": [
        {
          "internalType": "bytes4",
          "name": "interfaceId",
          "type": "bytes4"
        }
      ],
      "name": "supportsInterface",
      "outputs": [
        {
          "internalType": "bool",
          "name": "",
          "type": "bool"
        }
      ],
      "stateMutability": "view",
      "type": "function"
    },
    {
      "inputs": [],
      "name": "symbol",
      "outputs": [
        {
          "internalType": "string",
          "name": "",
          "type": "string"
        }
      ],
      "stateMutability": "view",
      "type": "function"
    },
    {
      "inputs": [
        {
          "internalType": "uint256",
          "name": "tokenId",
          "type": "uint256"
        }
      ],
      "name": "tokenURI",
      "outputs": [
        {
          "internalType": "string",
          "name": "",
          "type": "string"
        }
      ],
      "stateMutability": "view",
      "type": "function"
    },
    {
      "inputs": [
        {
          "internalType": "uint256",
          "name": "tokenId",
          "type": "uint256"
        }
      ],
      "name": "tokenValue",
      "outputs": [
        {
          "internalType": "uint256",
          "name": "",
          "type": "uint256"
        }
      ],
      "stateMutability": "view",
      "type": "function"
    },
    {
      "inputs": [
        {
          "internalType": "address",
          "name": "from",
          "type": "address"
        },
        {
          "internalType": "address",
          "name": "to",
          "type": "address"
        },
        {
          "internalType": "uint256",
          "name": "tokenId",
          "type": "uint256"
        }
      ],
      "name": "transferFrom",
      "outputs": [],
      "stateMutability": "nonpayable",
      "type": "function"
    },
    {
      "inputs": [
        {
          "internalType": "address",
          "name": "newOwner",
          "type": "address"
        }
      ],
      "name": "transferOwnership",
      "outputs": [],
      "stateMutability": "nonpayable",
      "type": "function"
    }
  ],
  "bytecode": "0x608034620003975760406001600160401b03828201818111848210176200038157825260088352602092674d6f636b204e464560c01b848201528251918383018381108282111762000381578452600492838152634d4e464560e01b868201528251908282116200036c576000968754926001958685811c9516801562000361575b838610146200034e578190601f95868111620002fb575b50839086831160011462000297578b926200028b575b5050600019600383901b1c191690861b1788555b8151938411620002785784548581811c911680156200026d575b828210146200025a57908184869594931162000203575b50809284116001146200019b575087926200018f575b5050600019600383901b1c191690821b1790555b33156200017a575060068054336001600160a01b03198216811790925591519290916001600160a01b0316907f8be0079c531659141344cd1fd0a4f28419497f9722a3daafe3b4186f6b6457e09080a3610f5290816200039d8239f35b826024925191631e4fbdf760e01b8352820152fd5b01519050388062000109565b9190859450601f198416858a52838a20938a905b828210620001e95750508411620001cf575b505050811b0190556200011d565b015160001960f88460031b161c19169055388080620001c1565b8484015186558897909501949384019390810190620001af565b90919293508589528189208480870160051c82019284881062000250575b9187968992969594930160051c01915b82811062000241575050620000f3565b8b815587965088910162000231565b9250819262000221565b634e487b7160e01b895260228752602489fd5b90607f1690620000dc565b634e487b7160e01b885260418652602488fd5b015190503880620000ae565b8b8052848c208994509190601f1984168d5b87828210620002e45750508411620002ca575b505050811b018855620000c2565b015160001960f88460031b161c19169055388080620002bc565b8385015186558c97909501949384019301620002a9565b9091508a8052838b208680850160051c82019286861062000344575b918a91869594930160051c01915b8281106200033557505062000098565b8d81558594508a910162000325565b9250819262000317565b634e487b7160e01b8a526022885260248afd5b94607f169462000081565b604185634e487b7160e01b6000525260246000fd5b634e487b7160e01b600052604160045260246000fd5b600080fdfe6080604081815260048036101561001557600080fd5b600092833560e01c90816301ffc9a714610a4657508063059fb57014610a1b57806306fdde0314610950578063081812fc14610915578063095ea7b31461083957806323b872dd1461082157806340c10f19146105e757806342842e0e146105b85780636352211e1461058757806370a0823114610532578063715018a6146104d55780638da5cb5b146104ac57806393090b27146101e357806395d89b4114610393578063a22cb465146102f2578063b88d4fde1461025d578063c87b56dd1461020a578063cb914491146101e3578063e985e9c5146101915763f2fde38b146100ff57600080fd5b3461018d57602036600319011261018d57610118610af2565b90610121610bc8565b6001600160a01b03918216928315610177575050600654826bffffffffffffffffffffffff60a01b821617600655167f8be0079c531659141344cd1fd0a4f28419497f9722a3daafe3b4186f6b6457e08380a380f35b51631e4fbdf760e01b8152908101849052602490fd5b8280fd5b5050346101df57806003193601126101df5760ff816020936101b1610af2565b6101b9610b0d565b6001600160a01b0391821683526005875283832091168252855220549151911615158152f35b5080fd5b503461018d57602036600319011261018d5760209282913581526007845220549051908152f35b509190346101df5760203660031901126101df5761022b6102599335610d93565b5081815161023881610b58565b5280519161024583610b58565b825251918291602083526020830190610ab2565b0390f35b50903461018d57608036600319011261018d57610278610af2565b610280610b0d565b60443591856064359567ffffffffffffffff87116101df57366023880112156101df57860135956102bc6102b388610bac565b96519687610b8a565b86865236602488830101116101df57866102ef9760246020930183890137860101526102e9838383610bf4565b33610dce565b80f35b50903461018d578060031936011261018d5761030c610af2565b906024359182151580930361038f576001600160a01b031692831561037a5750338452600560205280842083855260205280842060ff1981541660ff8416179055519081527f17307eab39ab6107e8899845ad3d59bd9653f200f220920489ca2b5937696c3160203392a380f35b836024925191630b61174360e31b8352820152fd5b8480fd5b5091346104a957806003193601126104a9578151918160019283549384811c9181861695861561049f575b602096878510811461048c578899509688969785829a52918260001461046557505060011461040a575b50505061025992916103fb910385610b8a565b51928284938452830190610ab2565b91908693508083527fb10e2d527612073b26eecdfd717e6a320cf44b4afac2b0732d9fcbe2b7fa0cf65b82841061044d57505050820101816103fb6102596103e8565b8054848a018601528895508794909301928101610434565b60ff19168782015293151560051b860190930193508492506103fb915061025990506103e8565b634e487b7160e01b835260228a52602483fd5b92607f16926103be565b80fd5b5050346101df57816003193601126101df5760065490516001600160a01b039091168152602090f35b83346104a957806003193601126104a9576104ee610bc8565b600680546001600160a01b0319811690915581906001600160a01b03167f8be0079c531659141344cd1fd0a4f28419497f9722a3daafe3b4186f6b6457e08280a380f35b5091346104a95760203660031901126104a9576001600160a01b03610555610af2565b169283156105725750806020938392526003845220549051908152f35b91516322718ad960e21b815291820152602490fd5b5091346104a95760203660031901126104a957506105a760209235610d93565b90516001600160a01b039091168152f35b5050346101df576102ef906105cc36610b23565b919251926105d984610b58565b8584526102e9838383610bf4565b503461018d578160031936011261018d57610600610af2565b602492833561060d610bc8565b81519061061982610b58565b8682526001600160a01b0384811694909290851561080b5782895260209360028552858a205416838782151592836107d8575b818d5260038852888d2080546001019055828d5260028852888d2080546001600160a01b031916831790557fddf252ad1be2c89b69c2b068fc378daa952ba7f163c4a11628f55a4df523b3ef8d80a46107c2573b6106a8578780f35b908288886106e7899a9b9798999589519586948594630a85bd0160e11b998a875233908701528501526044840152608060648401526084830190610ab2565b0381878a5af1849181610782575b5061074b5750503d15610742573d61070c81610bac565b9061071985519283610b8a565b81528092823d92013e5b8151918261073f575050505191633250574960e11b8352820152fd5b01fd5b60609150610723565b9296959493926001600160e01b0319160390506107715750505050388080808080808780f35b51633250574960e11b815291820152fd5b9091508381813d83116107bb575b61079a8183610b8a565b8101031261038f57516001600160e01b03198116810361038f5790386106f5565b503d610790565b84516339e3563760e11b81528088018a90528890fd5b600083815260046020526040902080546001600160a01b0319169055808d5260038852888d20805460001901905561064c565b8451633250574960e11b81528088018a90528890fd5b83346104a9576102ef61083336610b23565b91610bf4565b50903461018d578060031936011261018d57610853610af2565b9160243561086081610d93565b33151580610902575b806108d9575b6108c3576001600160a01b039485169482918691167f8c5be1e5ebec7d5bd14f71427d1e84f3dd0314c0f7b2291e5b200ac8c7c3b9258880a48452602052822080546001600160a01b031916909117905580f35b835163a9fbf51f60e01b81523381850152602490fd5b506001600160a01b03811686526005602090815284872033885290528386205460ff161561086f565b506001600160a01b038116331415610869565b503461018d57602036600319011261018d5791826020933561093681610d93565b50825283528190205490516001600160a01b039091168152f35b5091346104a957806003193601126104a95781519181825492600184811c91818616958615610a11575b602096878510811461048c578899509688969785829a5291826000146104655750506001146109b65750505061025992916103fb910385610b8a565b91908693508280527f290decd9548b62a8d60345a988386fc84ba6bc95484008f6362f93160ef3e5635b8284106109f957505050820101816103fb6102596103e8565b8054848a0186015288955087949093019281016109e0565b92607f169261097a565b503461018d578160031936011261018d57610a34610bc8565b35825260076020526024359082205580f35b9250503461018d57602036600319011261018d573563ffffffff60e01b811680910361018d57602092506380ac58cd60e01b8114908115610aa1575b8115610a90575b5015158152f35b6301ffc9a760e01b14905038610a89565b635b5e139f60e01b81149150610a82565b919082519283825260005b848110610ade575050826000602080949584010152601f8019910116010190565b602081830181015184830182015201610abd565b600435906001600160a01b0382168203610b0857565b600080fd5b602435906001600160a01b0382168203610b0857565b6060906003190112610b08576001600160a01b03906004358281168103610b0857916024359081168103610b08579060443590565b6020810190811067ffffffffffffffff821117610b7457604052565b634e487b7160e01b600052604160045260246000fd5b90601f8019910116810190811067ffffffffffffffff821117610b7457604052565b67ffffffffffffffff8111610b7457601f01601f191660200190565b6006546001600160a01b03163303610bdc57565b60405163118cdaa760e01b8152336004820152602490fd5b6001600160a01b039182169290918315610d7a57600092828452826020956002875260409684888820541696879133151580610ce4575b509060027fddf252ad1be2c89b69c2b068fc378daa952ba7f163c4a11628f55a4df523b3ef9284610cb1575b858352600381528b8320805460010190558683525289812080546001600160a01b0319168517905580a41692838303610c905750505050565b6064945051926364283d7b60e01b8452600484015260248301526044820152fd5b600087815260046020526040902080546001600160a01b0319169055848352600381528b83208054600019019055610c57565b91939450915080610d39575b15610d0057859291879138610c2b565b878688610d1d576024915190637e27328960e01b82526004820152fd5b604491519063177e802f60e01b82523360048301526024820152fd5b503387148015610d5e575b80610cf05750858252600481523385898420541614610cf0565b5086825260058152878220338352815260ff8883205416610d44565b604051633250574960e11b815260006004820152602490fd5b6000818152600260205260409020546001600160a01b0316908115610db6575090565b60249060405190637e27328960e01b82526004820152fd5b90939192833b610de0575b5050505050565b604051630a85bd0160e11b8082526001600160a01b039384166004830152958316602482015260448101919091526080606482015294921692602092918590610e2d906084830190610ab2565b039483816000978189895af1869181610ed8575b50610ea2575050503d600014610e99573d610e5b81610bac565b90610e696040519283610b8a565b81528093823d92013e5b82519283610e9457604051633250574960e11b815260048101849052602490fd5b019050fd5b60609250610e73565b919450915063ffffffff60e01b1603610ec057503880808080610dd9565b60249060405190633250574960e11b82526004820152fd5b9091508481813d8311610f15575b610ef08183610b8a565b81010312610f1157516001600160e01b031981168103610f11579038610e41565b8680fd5b503d610ee656fea26469706673582212204ac8c03794338c1d12e700ec47f827b2b2b3883dda35c58fc35c2f9f492e3e1e64736f6c63430008140033",
  "linkReferences": {},
  "deployedLinkReferences": {}
}