{
  "_format": "hh-sol-artifact-1",
  "contractName": "MockLockToken",
  "sourceName": "contracts/mocks/MockLockToken.sol",
  "abi": [
    {
      "inputs": [
        {
          "internalType": "string",
          "name": "name_",
          "type": "string"
        },
        {
          "internalType": "string",
          "name": "symbol_",
          "type": "string"
        },
        {
          "internalType": "uint256",
          "name": "initialSupply",
          "type": "uint256"
        },
        {
          "internalType": "address",
          "name": "receiver",
          "type": "address"
        }
      ],
      "stateMutability": "nonpayable",
      "type": "constructor"
    },
    {
      "inputs": [
        {
          "internalType": "address",
          "name": "spender",
          "type": "address"
        },
        {
          "internalType": "uint256",
          "name": "allowance",
          "type": "uint256"
        },
        {
          "internalType": "uint256",
          "name": "needed",
          "type": "uint256"
        }
      ],
      "name": "ERC20InsufficientAllowance",
      "type": "error"
    },
    {
      "inputs": [
        {
          "internalType": "address",
          "name": "sender",
          "type": "address"
        },
        {
          "internalType": "uint256",
          "name": "balance",
          "type": "uint256"
        },
        {
          "internalType": "uint256",
          "name": "needed",
          "type": "uint256"
        }
      ],
      "name": "ERC20InsufficientBalance",
      "type": "error"
    },
    {
      "inputs": [
        {
          "internalType": "address",
          "name": "approver",
          "type": "address"
        }
      ],
      "name": "ERC20InvalidApprover",
      "type": "error"
    },
    {
      "inputs": [
        {
          "internalType": "address",
          "name": "receiver",
          "type": "address"
        }
      ],
      "name": "ERC20InvalidReceiver",
      "type": "error"
    },
    {
      "inputs": [
        {
          "internalType": "address",
          "name": "sender",
          "type": "address"
        }
      ],
      "name": "ERC20InvalidSender",
      "type": "error"
    },
    {
      "inputs": [
        {
          "internalType": "address",
          "name": "spender",
          "type": "address"
        }
      ],
      "name": "ERC20InvalidSpender",
      "type": "error"
    },
    {
      "anonymous": false,
      "inputs": [
        {
          "indexed": true,
          "internalType": "address",
          "name": "owner",
          "type": "address"
        },
        {
          "indexed": true,
          "internalType": "address",
          "name": "spender",
          "type": "address"
        },
        {
          "indexed": false,
          "internalType": "uint256",
          "name": "value",
          "type": "uint256"
        }
      ],
      "name": "Approval",
      "type": "event"
    },
    {
      "anonymous": false,
      "inputs": [
        {
          "indexed": true,
          "internalType": "address",
          "name": "from",
          "type": "address"
        },
        {
          "indexed": true,
          "internalType": "address",
          "name": "to",
          "type": "address"
        },
        {
          "indexed": false,
          "internalType": "uint256",
          "name": "value",
          "type": "uint256"
        }
      ],
      "name": "Transfer",
      "type": "event"
    },
    {
      "inputs": [
        {
          "internalType": "address",
          "name": "owner",
          "type": "address"
        },
        {
          "internalType": "address",
          "name": "spender",
          "type": "address"
        }
      ],
      "name": "allowance",
      "outputs": [
        {
          "internalType": "uint256",
          "name": "",
          "type": "uint256"
        }
      ],
      "stateMutability": "view",
      "type": "function"
    },
    {
      "inputs": [
        {
          "internalType": "address",
          "name": "spender",
          "type": "address"
        },
        {
          "internalType": "uint256",
          "name": "value",
          "type": "uint256"
        }
      ],
      "name": "approve",
      "outputs": [
        {
          "internalType": "bool",
          "name": "",
          "type": "bool"
        }
      ],
      "stateMutability": "nonpayable",
      "type": "function"
    },
    {
      "inputs": [
        {
          "internalType": "address",
          "name": "account",
          "type": "address"
        }
      ],
      "name": "balanceOf",
      "outputs": [
        {
          "internalType": "uint256",
          "name": "",
          "type": "uint256"
        }
      ],
      "stateMutability": "view",
      "type": "function"
    },
    {
      "inputs": [],
      "name": "decimals",
      "outputs": [
        {
          "internalType": "uint8",
          "name": "",
          "type": "uint8"
        }
      ],
      "stateMutability": "view",
      "type": "function"
    },
    {
      "inputs": [
        {
          "internalType": "address",
          "name": "",
          "type": "address"
        }
      ],
      "name": "locked",
      "outputs": [
        {
          "internalType": "uint256",
          "name": "",
          "type": "uint256"
        }
      ],
      "stateMutability": "view",
      "type": "function"
    },
    {
      "inputs": [],
      "name": "name",
      "outputs": [
        {
          "internalType": "string",
          "name": "",
          "type": "string"
        }
      ],
      "stateMutability": "view",
      "type": "function"
    },
    {
      "inputs": [],
      "name": "symbol",
      "outputs": [
        {
          "internalType": "string",
          "name": "",
          "type": "string"
        }
      ],
      "stateMutability": "view",
      "type": "function"
    },
    {
      "inputs": [
        {
          "internalType": "address",
          "name": "account",
          "type": "address"
        }
      ],
      "name": "tokenLocked",
      "outputs": [
        {
          "internalType": "uint256",
          "name": "",
          "type": "uint256"
        }
      ],
      "stateMutability": "view",
      "type": "function"
    },
    {
      "inputs": [],
      "name": "totalSupply",
      "outputs": [
        {
          "internalType": "uint256",
          "name": "",
          "type": "uint256"
        }
      ],
      "stateMutability": "view",
      "type": "function"
    },
    {
      "inputs": [
        {
          "internalType": "address",
          "name": "to",
          "type": "address"
        },
        {
          "internalType": "uint256",
          "name": "value",
          "type": "uint256"
        }
      ],
      "name": "transfer",
      "outputs": [
        {
          "internalType": "bool",
          "name": "",
          "type": "bool"
        }
      ],
      "stateMutability": "nonpayable",
      "type": "function"
    },
    {
      "inputs": [
        {
          "internalType": "address",
          "name": "from",
          "type": "address"
        },
        {
          "internalType": "address",
          "name": "to",
          "type": "address"
        },
        {
          "internalType": "uint256",
          "name": "value",
          "type": "uint256"
        }
      ],
      "name": "transferFrom",
      "outputs": [
        {
          "internalType": "bool",
          "name": "",
          "type": "bool"
        }
      ],
      "stateMutability": "nonpayable",
      "type": "function"
    },
    {
      "inputs": [
        {
          "internalType": "address",
          "name": "account",
          "type": "address"
        },
        {
          "internalType": "uint256",
          "name": "amount",
          "type": "uint256"
        },
        {
          "internalType": "bool",
          "name": "increase",
          "type": "bool"
        }
      ],
      "name": "updateLockedAmount",
      "outputs": [],
      "stateMutability": "nonpayable",
      "type": "function"
    }
  ],
  "bytecode": "0x60406080815234620003b55762000c31803803806200001e81620003ba565b9283398101608082820312620003b55781516001600160401b039290838111620003b5578262000050918301620003e0565b6020928383015190858211620003b5576200006d918401620003e0565b906060868401519301519460018060a01b038616809603620003b5578151818111620002b5576003908154906001948583811c93168015620003aa575b8984101462000394578190601f938481116200033e575b508990848311600114620002d757600092620002cb575b505060001982851b1c191690851b1782555b8451928311620002b55760049485548581811c91168015620002aa575b8982101462000295578281116200024a575b5087918411600114620001df57938394918492600095620001d3575b50501b92600019911b1c19161781555b8315620001bc5760025490828201809211620001a7575060025560008381528083528481208054830190558451918252917fddf252ad1be2c89b69c2b068fc378daa952ba7f163c4a11628f55a4df523b3ef91a3516107de9081620004538239f35b601190634e487b7160e01b6000525260246000fd5b602490600086519163ec442f0560e01b8352820152fd5b01519350388062000135565b9190601f198416928660005284896000209460005b8b8983831062000232575050501062000217575b50505050811b01815562000145565b01519060f884600019921b161c191690553880808062000208565b868601518955909701969485019488935001620001f4565b86600052886000208380870160051c8201928b88106200028b575b0160051c019086905b8281106200027e57505062000119565b600081550186906200026e565b9250819262000265565b602287634e487b7160e01b6000525260246000fd5b90607f169062000107565b634e487b7160e01b600052604160045260246000fd5b015190503880620000d8565b90879350601f19831691866000528b6000209260005b8d8282106200032757505084116200030e575b505050811b018255620000ea565b015160001983871b60f8161c1916905538808062000300565b8385015186558b97909501949384019301620002ed565b90915084600052896000208480850160051c8201928c86106200038a575b918991869594930160051c01915b8281106200037a575050620000c1565b600081558594508991016200036a565b925081926200035c565b634e487b7160e01b600052602260045260246000fd5b92607f1692620000aa565b600080fd5b6040519190601f01601f191682016001600160401b03811183821017620002b557604052565b919080601f84011215620003b55782516001600160401b038111620002b55760209062000416601f8201601f19168301620003ba565b92818452828287010111620003b55760005b8181106200043e57508260009394955001015290565b85810183015184820184015282016200042856fe608060408181526004918236101561001657600080fd5b600092833560e01c91826306fdde031461057857508163095ea7b3146104ce57816318160ddd146104af57816323b872dd146103b8578163313ce5671461039c57816370a08231146103655781638aff5e3a1461027a57816395d89b411461015b57508063a9059cbb1461012b578063c8cc4984146100f4578063cbf9fe5f146100f45763dd62ed3e146100a957600080fd5b346100f057806003193601126100f057806020926100c5610699565b6100cd6106b4565b6001600160a01b0391821683526001865283832091168252845220549051908152f35b5080fd5b50346100f05760203660031901126100f05760209181906001600160a01b0361011b610699565b1681526005845220549051908152f35b50346100f057806003193601126100f05760209061015461014a610699565b60243590336106ca565b5160018152f35b8383346100f057816003193601126100f057805190828454600181811c90808316928315610270575b602093848410811461025d5783885290811561024157506001146101ec575b505050829003601f01601f191682019267ffffffffffffffff8411838510176101d957508291826101d5925282610650565b0390f35b634e487b7160e01b815260418552602490fd5b8787529192508591837f8a35acfbc15ff81a39ae7d344fd709f28e8600b4aa8c65c6b64bfe7fe36bd19b5b83851061022d57505050508301018580806101a3565b805488860183015293019284908201610217565b60ff1916878501525050151560051b84010190508580806101a3565b634e487b7160e01b895260228a52602489fd5b91607f1691610184565b90503461036157606036600319011261036157610295610699565b9160243592604435801515810361035d57156102e4576001600160a01b031684526005602052832080549283019290919083106102d157505580f35b634e487b7160e01b845260119052602483fd5b6001600160a01b0316808552600560205281852054841161031a578452600560205283209081549283039283116102d157505580f35b815162461bcd60e51b8152602081850152601a60248201527f496e73756666696369656e74206c6f636b656420746f6b656e730000000000006044820152606490fd5b8580fd5b8280fd5b5050346100f05760203660031901126100f05760209181906001600160a01b0361038d610699565b16815280845220549051908152f35b5050346100f057816003193601126100f0576020905160128152f35b905082346104ac5760603660031901126104ac576103d4610699565b6103dc6106b4565b916044359360018060a01b038316808352600160205286832033845260205286832054916000198310610418575b6020886101548989896106ca565b868310610480578115610469573315610452575082526001602090815286832033845281529186902090859003905582906101548761040a565b8751634a1406b160e11b8152908101849052602490fd5b875163e602df0560e01b8152908101849052602490fd5b8751637dc7a0d960e11b8152339181019182526020820193909352604081018790528291506060010390fd5b80fd5b5050346100f057816003193601126100f0576020906002549051908152f35b9050346103615781600319360112610361576104e8610699565b602435903315610561576001600160a01b031691821561054a57508083602095338152600187528181208582528752205582519081527f8c5be1e5ebec7d5bd14f71427d1e84f3dd0314c0f7b2291e5b200ac8c7c3b925843392a35160018152f35b8351634a1406b160e11b8152908101859052602490fd5b835163e602df0560e01b8152808401869052602490fd5b8490843461036157826003193601126103615782600354600181811c90808316928315610646575b602093848410811461025d5783885290811561024157506001146105f057505050829003601f01601f191682019267ffffffffffffffff8411838510176101d957508291826101d5925282610650565b600387529192508591837fc2575a0e9e593c00f959f8c92f12db2869c3395a3b0502d05e2516446f71f85b5b83851061063257505050508301018580806101a3565b80548886018301529301928490820161061c565b91607f16916105a0565b6020808252825181830181905290939260005b82811061068557505060409293506000838284010152601f8019910116010190565b818101860151848201604001528501610663565b600435906001600160a01b03821682036106af57565b600080fd5b602435906001600160a01b03821682036106af57565b916001600160a01b0380841692831561078f57169283156107765760009083825281602052604082205490838210610744575091604082827fddf252ad1be2c89b69c2b068fc378daa952ba7f163c4a11628f55a4df523b3ef958760209652828652038282205586815220818154019055604051908152a3565b60405163391434e360e21b81526001600160a01b03919091166004820152602481019190915260448101839052606490fd5b60405163ec442f0560e01b815260006004820152602490fd5b604051634b637e8f60e11b815260006004820152602490fdfea2646970667358221220335d765f1c13440b2499718055e929f64fdaf346c00a47d11ed929d2266e61b964736f6c63430008140033",
  "linkReferences": {},
  "deployedLinkReferences": {}
}